{
  "_format": "hh-sol-artifact-1",
  "contractName": "WasteVan",
  "sourceName": "contracts/WasteVan.sol",
  "abi": [
    {
      "inputs": [
        {
          "internalType": "address",
          "name": "_tokenAddress",
          "type": "address"
        }
      ],
      "stateMutability": "nonpayable",
      "type": "constructor"
    },
    {
      "anonymous": false,
      "inputs": [
        {
          "indexed": true,
          "internalType": "address",
          "name": "agent",
          "type": "address"
        }
      ],
      "name": "AgentRegistered",
      "type": "event"
    },
    {
      "anonymous": false,
      "inputs": [
        {
          "indexed": true,
          "internalType": "address",
          "name": "previousOwner",
          "type": "address"
        },
        {
          "indexed": true,
          "internalType": "address",
          "name": "newOwner",
          "type": "address"
        }
      ],
      "name": "OwnershipTransferred",
      "type": "event"
    },
    {
      "anonymous": false,
      "inputs": [
        {
          "indexed": true,
          "internalType": "address",
          "name": "agent",
          "type": "address"
        },
        {
          "indexed": false,
          "internalType": "uint256",
          "name": "amount",
          "type": "uint256"
        }
      ],
      "name": "PointsPurchased",
      "type": "event"
    },
    {
      "anonymous": false,
      "inputs": [
        {
          "indexed": true,
          "internalType": "address",
          "name": "user",
          "type": "address"
        },
        {
          "indexed": false,
          "internalType": "uint256",
          "name": "amount",
          "type": "uint256"
        }
      ],
      "name": "TokensDistributed",
      "type": "event"
    },
    {
      "anonymous": false,
      "inputs": [
        {
          "indexed": true,
          "internalType": "address",
          "name": "user",
          "type": "address"
        },
        {
          "indexed": false,
          "internalType": "string",
          "name": "username",
          "type": "string"
        },
        {
          "indexed": false,
          "internalType": "string",
          "name": "email",
          "type": "string"
        }
      ],
      "name": "UserRegistered",
      "type": "event"
    },
    {
      "anonymous": false,
      "inputs": [
        {
          "indexed": true,
          "internalType": "uint256",
          "name": "reportId",
          "type": "uint256"
        },
        {
          "indexed": true,
          "internalType": "address",
          "name": "agent",
          "type": "address"
        }
      ],
      "name": "WasteCollected",
      "type": "event"
    },
    {
      "anonymous": false,
      "inputs": [
        {
          "indexed": true,
          "internalType": "uint256",
          "name": "reportId",
          "type": "uint256"
        },
        {
          "indexed": true,
          "internalType": "address",
          "name": "reporter",
          "type": "address"
        },
        {
          "indexed": false,
          "internalType": "string",
          "name": "ipfsHash",
          "type": "string"
        }
      ],
      "name": "WasteReported",
      "type": "event"
    },
    {
      "inputs": [],
      "name": "POINTS_PER_COLLECTION",
      "outputs": [
        {
          "internalType": "uint256",
          "name": "",
          "type": "uint256"
        }
      ],
      "stateMutability": "view",
      "type": "function"
    },
    {
      "inputs": [],
      "name": "TOKENS_PER_POINT",
      "outputs": [
        {
          "internalType": "uint256",
          "name": "",
          "type": "uint256"
        }
      ],
      "stateMutability": "view",
      "type": "function"
    },
    {
      "inputs": [
        {
          "internalType": "address",
          "name": "",
          "type": "address"
        }
      ],
      "name": "agents",
      "outputs": [
        {
          "internalType": "bool",
          "name": "isVerified",
          "type": "bool"
        },
        {
          "internalType": "uint256",
          "name": "points",
          "type": "uint256"
        },
        {
          "internalType": "uint256",
          "name": "totalCollections",
          "type": "uint256"
        },
        {
          "internalType": "uint256",
          "name": "totalPointsDistributed",
          "type": "uint256"
        }
      ],
      "stateMutability": "view",
      "type": "function"
    },
    {
      "inputs": [
        {
          "internalType": "uint256",
          "name": "_reportId",
          "type": "uint256"
        }
      ],
      "name": "collectWaste",
      "outputs": [],
      "stateMutability": "nonpayable",
      "type": "function"
    },
    {
      "inputs": [
        {
          "internalType": "address",
          "name": "_agent",
          "type": "address"
        },
        {
          "internalType": "uint256",
          "name": "_amount",
          "type": "uint256"
        }
      ],
      "name": "distributeAgentTokens",
      "outputs": [],
      "stateMutability": "nonpayable",
      "type": "function"
    },
    {
      "inputs": [
        {
          "internalType": "address",
          "name": "_agent",
          "type": "address"
        }
      ],
      "name": "getAgentStats",
      "outputs": [
        {
          "internalType": "bool",
          "name": "isVerified",
          "type": "bool"
        },
        {
          "internalType": "uint256",
          "name": "points",
          "type": "uint256"
        },
        {
          "internalType": "uint256",
          "name": "totalCollections",
          "type": "uint256"
        },
        {
          "internalType": "uint256",
          "name": "totalPointsDistributed",
          "type": "uint256"
        }
      ],
      "stateMutability": "view",
      "type": "function"
    },
    {
      "inputs": [
        {
          "internalType": "address",
          "name": "_user",
          "type": "address"
        }
      ],
      "name": "getUserStats",
      "outputs": [
        {
          "internalType": "string",
          "name": "username",
          "type": "string"
        },
        {
          "internalType": "uint256",
          "name": "totalWasteReported",
          "type": "uint256"
        },
        {
          "internalType": "uint256",
          "name": "totalTokensEarned",
          "type": "uint256"
        }
      ],
      "stateMutability": "view",
      "type": "function"
    },
    {
      "inputs": [
        {
          "internalType": "uint256",
          "name": "_reportId",
          "type": "uint256"
        }
      ],
      "name": "getWasteReport",
      "outputs": [
        {
          "internalType": "address",
          "name": "reporter",
          "type": "address"
        },
        {
          "internalType": "string",
          "name": "ipfsHash",
          "type": "string"
        },
        {
          "internalType": "uint256",
          "name": "quantity",
          "type": "uint256"
        },
        {
          "internalType": "string",
          "name": "wasteType",
          "type": "string"
        },
        {
          "internalType": "string",
          "name": "location",
          "type": "string"
        },
        {
          "internalType": "bool",
          "name": "isCollected",
          "type": "bool"
        },
        {
          "internalType": "address",
          "name": "collectedBy",
          "type": "address"
        }
      ],
      "stateMutability": "view",
      "type": "function"
    },
    {
      "inputs": [
        {
          "internalType": "uint256",
          "name": "_reportId",
          "type": "uint256"
        }
      ],
      "name": "getWasteReportDetails",
      "outputs": [
        {
          "internalType": "uint256",
          "name": "reportId",
          "type": "uint256"
        },
        {
          "internalType": "address",
          "name": "reporter",
          "type": "address"
        },
        {
          "internalType": "string",
          "name": "ipfsHash",
          "type": "string"
        },
        {
          "internalType": "uint256",
          "name": "quantity",
          "type": "uint256"
        },
        {
          "internalType": "string",
          "name": "wasteType",
          "type": "string"
        },
        {
          "internalType": "string",
          "name": "location",
          "type": "string"
        },
        {
          "internalType": "uint256",
          "name": "timestamp",
          "type": "uint256"
        },
        {
          "internalType": "bool",
          "name": "isCollected",
          "type": "bool"
        },
        {
          "internalType": "address",
          "name": "collectedBy",
          "type": "address"
        },
        {
          "internalType": "uint256",
          "name": "tokenReward",
          "type": "uint256"
        }
      ],
      "stateMutability": "view",
      "type": "function"
    },
    {
      "inputs": [],
      "name": "owner",
      "outputs": [
        {
          "internalType": "address",
          "name": "",
          "type": "address"
        }
      ],
      "stateMutability": "view",
      "type": "function"
    },
    {
      "inputs": [],
      "name": "purchasePoints",
      "outputs": [],
      "stateMutability": "payable",
      "type": "function"
    },
    {
      "inputs": [],
      "name": "registerAgent",
      "outputs": [],
      "stateMutability": "nonpayable",
      "type": "function"
    },
    {
      "inputs": [
        {
          "internalType": "string",
          "name": "_username",
          "type": "string"
        },
        {
          "internalType": "string",
          "name": "_email",
          "type": "string"
        }
      ],
      "name": "registerUser",
      "outputs": [],
      "stateMutability": "nonpayable",
      "type": "function"
    },
    {
      "inputs": [],
      "name": "renounceOwnership",
      "outputs": [],
      "stateMutability": "nonpayable",
      "type": "function"
    },
    {
      "inputs": [],
      "name": "reportCounter",
      "outputs": [
        {
          "internalType": "uint256",
          "name": "",
          "type": "uint256"
        }
      ],
      "stateMutability": "view",
      "type": "function"
    },
    {
      "inputs": [
        {
          "internalType": "string",
          "name": "_ipfsHash",
          "type": "string"
        },
        {
          "internalType": "uint256",
          "name": "_quantity",
          "type": "uint256"
        },
        {
          "internalType": "string",
          "name": "_wasteType",
          "type": "string"
        },
        {
          "internalType": "string",
          "name": "_location",
          "type": "string"
        }
      ],
      "name": "reportWaste",
      "outputs": [],
      "stateMutability": "nonpayable",
      "type": "function"
    },
    {
      "inputs": [
        {
          "internalType": "address",
          "name": "newOwner",
          "type": "address"
        }
      ],
      "name": "transferOwnership",
      "outputs": [],
      "stateMutability": "nonpayable",
      "type": "function"
    },
    {
      "inputs": [
        {
          "internalType": "string",
          "name": "",
          "type": "string"
        }
      ],
      "name": "usedQRCodes",
      "outputs": [
        {
          "internalType": "bool",
          "name": "",
          "type": "bool"
        }
      ],
      "stateMutability": "view",
      "type": "function"
    },
    {
      "inputs": [
        {
          "internalType": "address",
          "name": "",
          "type": "address"
        }
      ],
      "name": "users",
      "outputs": [
        {
          "internalType": "string",
          "name": "username",
          "type": "string"
        },
        {
          "internalType": "string",
          "name": "email",
          "type": "string"
        },
        {
          "internalType": "bool",
          "name": "isRegistered",
          "type": "bool"
        },
        {
          "internalType": "uint256",
          "name": "totalWasteReported",
          "type": "uint256"
        },
        {
          "internalType": "uint256",
          "name": "totalTokensEarned",
          "type": "uint256"
        }
      ],
      "stateMutability": "view",
      "type": "function"
    },
    {
      "inputs": [
        {
          "internalType": "uint256",
          "name": "",
          "type": "uint256"
        }
      ],
      "name": "wasteReports",
      "outputs": [
        {
          "internalType": "uint256",
          "name": "reportId",
          "type": "uint256"
        },
        {
          "internalType": "address",
          "name": "reporter",
          "type": "address"
        },
        {
          "internalType": "string",
          "name": "ipfsHash",
          "type": "string"
        },
        {
          "internalType": "uint256",
          "name": "quantity",
          "type": "uint256"
        },
        {
          "internalType": "string",
          "name": "wasteType",
          "type": "string"
        },
        {
          "internalType": "string",
          "name": "location",
          "type": "string"
        },
        {
          "internalType": "uint256",
          "name": "timestamp",
          "type": "uint256"
        },
        {
          "internalType": "bool",
          "name": "isCollected",
          "type": "bool"
        },
        {
          "internalType": "address",
          "name": "collectedBy",
          "type": "address"
        },
        {
          "internalType": "uint256",
          "name": "tokenReward",
          "type": "uint256"
        }
      ],
      "stateMutability": "view",
      "type": "function"
    },
    {
      "inputs": [],
      "name": "wasteVanToken",
      "outputs": [
        {
          "internalType": "contract WasteVanToken",
          "name": "",
          "type": "address"
        }
      ],
      "stateMutability": "view",
      "type": "function"
    },
    {
      "inputs": [],
      "name": "withdraw",
      "outputs": [],
      "stateMutability": "nonpayable",
      "type": "function"
    }
  ],
  "bytecode": "0x608060405234801561001057600080fd5b5060405161320e38038061320e833981810160405281019061003291906101cb565b61004e61004361009c60201b60201c565b6100a460201b60201c565b6001808190555080600260006101000a81548173ffffffffffffffffffffffffffffffffffffffff021916908373ffffffffffffffffffffffffffffffffffffffff160217905550506101f8565b600033905090565b60008060009054906101000a900473ffffffffffffffffffffffffffffffffffffffff169050816000806101000a81548173ffffffffffffffffffffffffffffffffffffffff021916908373ffffffffffffffffffffffffffffffffffffffff1602179055508173ffffffffffffffffffffffffffffffffffffffff168173ffffffffffffffffffffffffffffffffffffffff167f8be0079c531659141344cd1fd0a4f28419497f9722a3daafe3b4186f6b6457e060405160405180910390a35050565b600080fd5b600073ffffffffffffffffffffffffffffffffffffffff82169050919050565b60006101988261016d565b9050919050565b6101a88161018d565b81146101b357600080fd5b50565b6000815190506101c58161019f565b92915050565b6000602082840312156101e1576101e0610168565b5b60006101ef848285016101b6565b91505092915050565b613007806102076000396000f3fe60806040526004361061012a5760003560e01c80638da5cb5b116100ab578063b9bc38f21161006f578063b9bc38f2146103bd578063c5df2882146103e8578063d763bf7b14610411578063de9f9ee414610454578063f2fde38b1461047f578063fd66091e146104a85761012a565b80638da5cb5b146102bd578063907b5760146102e8578063a87430ba14610311578063b4885dae14610352578063b5695b381461037d5761012a565b80634e43603a116100f25780634e43603a146101d6578063518dab3c14610215578063715018a6146102525780637384490b14610269578063898a97b9146102925761012a565b80630cdd89821461012f5780631d2e4afd1461017557806335eb52081461019e5780633ccfd60b146101b55780634c8b9738146101cc575b600080fd5b34801561013b57600080fd5b5061015660048036038101906101519190611fd3565b6104e8565b60405161016c9a999897969594939291906120fb565b60405180910390f35b34801561018157600080fd5b5061019c600480360381019061019791906122e1565b610721565b005b3480156101aa57600080fd5b506101b36108d3565b005b3480156101c157600080fd5b506101ca610b3d565b005b6101d4610b95565b005b3480156101e257600080fd5b506101fd60048036038101906101f89190612385565b610ce6565b60405161020c939291906123b2565b60405180910390f35b34801561022157600080fd5b5061023c600480360381019061023791906123f0565b610ea9565b6040516102499190612439565b60405180910390f35b34801561025e57600080fd5b50610267610edf565b005b34801561027557600080fd5b50610290600480360381019061028b9190612454565b610ef3565b005b34801561029e57600080fd5b506102a761106b565b6040516102b49190612494565b60405180910390f35b3480156102c957600080fd5b506102d2611070565b6040516102df91906124af565b60405180910390f35b3480156102f457600080fd5b5061030f600480360381019061030a91906124ca565b611099565b005b34801561031d57600080fd5b5061033860048036038101906103339190612385565b6113a6565b604051610349959493929190612585565b60405180910390f35b34801561035e57600080fd5b506103676114f9565b6040516103749190612645565b60405180910390f35b34801561038957600080fd5b506103a4600480360381019061039f9190612385565b61151f565b6040516103b49493929190612660565b60405180910390f35b3480156103c957600080fd5b506103d26115d0565b6040516103df9190612494565b60405180910390f35b3480156103f457600080fd5b5061040f600480360381019061040a9190611fd3565b6115d6565b005b34801561041d57600080fd5b5061043860048036038101906104339190611fd3565b611a68565b60405161044b97969594939291906126a5565b60405180910390f35b34801561046057600080fd5b50610469611d7a565b6040516104769190612494565b60405180910390f35b34801561048b57600080fd5b506104a660048036038101906104a19190612385565b611d7f565b005b3480156104b457600080fd5b506104cf60048036038101906104ca9190612385565b611e02565b6040516104df9493929190612660565b60405180910390f35b60056020528060005260406000206000915090508060000154908060010160009054906101000a900473ffffffffffffffffffffffffffffffffffffffff169080600201805461053790612758565b80601f016020809104026020016040519081016040528092919081815260200182805461056390612758565b80156105b05780601f10610585576101008083540402835291602001916105b0565b820191906000526020600020905b81548152906001019060200180831161059357829003601f168201915b5050505050908060030154908060040180546105cb90612758565b80601f01602080910402602001604051908101604052809291908181526020018280546105f790612758565b80156106445780601f1061061957610100808354040283529160200191610644565b820191906000526020600020905b81548152906001019060200180831161062757829003601f168201915b50505050509080600501805461065990612758565b80601f016020809104026020016040519081016040528092919081815260200182805461068590612758565b80156106d25780601f106106a7576101008083540402835291602001916106d2565b820191906000526020600020905b8154815290600101906020018083116106b557829003601f168201915b5050505050908060060154908060070160009054906101000a900460ff16908060070160019054906101000a900473ffffffffffffffffffffffffffffffffffffffff1690806008015490508a565b600360003373ffffffffffffffffffffffffffffffffffffffff1673ffffffffffffffffffffffffffffffffffffffff16815260200190815260200160002060020160009054906101000a900460ff16156107b1576040517f08c379a00000000000000000000000000000000000000000000000000000000081526004016107a8906127d5565b60405180910390fd5b6040518060a00160405280838152602001828152602001600115158152602001600081526020016000815250600360003373ffffffffffffffffffffffffffffffffffffffff1673ffffffffffffffffffffffffffffffffffffffff16815260200190815260200160002060008201518160000190816108319190612997565b5060208201518160010190816108479190612997565b5060408201518160020160006101000a81548160ff02191690831515021790555060608201518160030155608082015181600401559050503373ffffffffffffffffffffffffffffffffffffffff167f92822564bab8864c3a47b34e8d23fbce5c46234eb5da261f94087b995ac0f33b83836040516108c7929190612a69565b60405180910390a25050565b600460003373ffffffffffffffffffffffffffffffffffffffff1673ffffffffffffffffffffffffffffffffffffffff16815260200190815260200160002060000160009054906101000a900460ff1615610963576040517f08c379a000000000000000000000000000000000000000000000000000000000815260040161095a90612aec565b60405180910390fd5b604051806080016040528060011515815260200160008152602001600081526020016000815250600460003373ffffffffffffffffffffffffffffffffffffffff1673ffffffffffffffffffffffffffffffffffffffff16815260200190815260200160002060008201518160000160006101000a81548160ff021916908315150217905550602082015181600101556040820151816002015560608201518160030155905050600260009054906101000a900473ffffffffffffffffffffffffffffffffffffffff1673ffffffffffffffffffffffffffffffffffffffff166340c10f1933683635c9adc5dea000006040518363ffffffff1660e01b8152600401610a70929190612b47565b600060405180830381600087803b158015610a8a57600080fd5b505af1925050508015610a9b575060015b15610af8573373ffffffffffffffffffffffffffffffffffffffff167f16b0da2ffcb90c6723317bd637d9aad7f04711f42bbe0ac0918ebe10f1f9001c683635c9adc5dea00000604051610aef9190612b70565b60405180910390a25b3373ffffffffffffffffffffffffffffffffffffffff167f82d0829d9d481e4cb9913897f9b9c903271c4db68c7b3324071d2a7e3b2c5ff060405160405180910390a2565b610b45611e3f565b610b4d611070565b73ffffffffffffffffffffffffffffffffffffffff166108fc479081150290604051600060405180830381858888f19350505050158015610b92573d6000803e3d6000fd5b50565b600460003373ffffffffffffffffffffffffffffffffffffffff1673ffffffffffffffffffffffffffffffffffffffff16815260200190815260200160002060000160009054906101000a900460ff16610c24576040517f08c379a0000000000000000000000000000000000000000000000000000000008152600401610c1b90612bd7565b60405180910390fd5b6000670de0b6b3a764000034610c3a9190612c55565b905080600460003373ffffffffffffffffffffffffffffffffffffffff1673ffffffffffffffffffffffffffffffffffffffff1681526020019081526020016000206001016000828254610c8e9190612c86565b925050819055503373ffffffffffffffffffffffffffffffffffffffff167f4188bb0074eb5be3d6b8089e8faaa457e592aab04dd8d5fc19d7358791c4eee482604051610cdb9190612494565b60405180910390a250565b60606000806000600360008673ffffffffffffffffffffffffffffffffffffffff1673ffffffffffffffffffffffffffffffffffffffff1681526020019081526020016000206040518060a0016040529081600082018054610d4790612758565b80601f0160208091040260200160405190810160405280929190818152602001828054610d7390612758565b8015610dc05780601f10610d9557610100808354040283529160200191610dc0565b820191906000526020600020905b815481529060010190602001808311610da357829003601f168201915b50505050508152602001600182018054610dd990612758565b80601f0160208091040260200160405190810160405280929190818152602001828054610e0590612758565b8015610e525780601f10610e2757610100808354040283529160200191610e52565b820191906000526020600020905b815481529060010190602001808311610e3557829003601f168201915b505050505081526020016002820160009054906101000a900460ff16151515158152602001600382015481526020016004820154815250509050806000015181606001518260800151935093509350509193909250565b6006818051602081018201805184825260208301602085012081835280955050505050506000915054906101000a900460ff1681565b610ee7611e3f565b610ef16000611ebd565b565b610efb611e3f565b600460008373ffffffffffffffffffffffffffffffffffffffff1673ffffffffffffffffffffffffffffffffffffffff16815260200190815260200160002060000160009054906101000a900460ff16610f8a576040517f08c379a0000000000000000000000000000000000000000000000000000000008152600401610f8190612bd7565b60405180910390fd5b600260009054906101000a900473ffffffffffffffffffffffffffffffffffffffff1673ffffffffffffffffffffffffffffffffffffffff166340c10f1983836040518363ffffffff1660e01b8152600401610fe7929190612cba565b600060405180830381600087803b15801561100157600080fd5b505af1158015611015573d6000803e3d6000fd5b505050508173ffffffffffffffffffffffffffffffffffffffff167f16b0da2ffcb90c6723317bd637d9aad7f04711f42bbe0ac0918ebe10f1f9001c8260405161105f9190612494565b60405180910390a25050565b600181565b60008060009054906101000a900473ffffffffffffffffffffffffffffffffffffffff16905090565b600360003373ffffffffffffffffffffffffffffffffffffffff1673ffffffffffffffffffffffffffffffffffffffff16815260200190815260200160002060020160009054906101000a900460ff16611128576040517f08c379a000000000000000000000000000000000000000000000000000000000815260040161111f90612d2f565b60405180910390fd5b6007600081548092919061113b90612d4f565b919050555060405180610140016040528060075481526020013373ffffffffffffffffffffffffffffffffffffffff168152602001858152602001848152602001838152602001828152602001428152602001600015158152602001600073ffffffffffffffffffffffffffffffffffffffff1681526020016001856111c19190612d97565b8152506005600060075481526020019081526020016000206000820151816000015560208201518160010160006101000a81548173ffffffffffffffffffffffffffffffffffffffff021916908373ffffffffffffffffffffffffffffffffffffffff160217905550604082015181600201908161123f9190612997565b5060608201518160030155608082015181600401908161125f9190612997565b5060a08201518160050190816112759190612997565b5060c0820151816006015560e08201518160070160006101000a81548160ff0219169083151502179055506101008201518160070160016101000a81548173ffffffffffffffffffffffffffffffffffffffff021916908373ffffffffffffffffffffffffffffffffffffffff160217905550610120820151816008015590505082600360003373ffffffffffffffffffffffffffffffffffffffff1673ffffffffffffffffffffffffffffffffffffffff16815260200190815260200160002060030160008282546113489190612c86565b925050819055503373ffffffffffffffffffffffffffffffffffffffff166007547f8380288083f7a53853cdd4ad41fb7f4d17a3ea763b59968823158f363ed7e07c866040516113989190612dd9565b60405180910390a350505050565b60036020528060005260406000206000915090508060000180546113c990612758565b80601f01602080910402602001604051908101604052809291908181526020018280546113f590612758565b80156114425780601f1061141757610100808354040283529160200191611442565b820191906000526020600020905b81548152906001019060200180831161142557829003601f168201915b50505050509080600101805461145790612758565b80601f016020809104026020016040519081016040528092919081815260200182805461148390612758565b80156114d05780601f106114a5576101008083540402835291602001916114d0565b820191906000526020600020905b8154815290600101906020018083116114b357829003601f168201915b5050505050908060020160009054906101000a900460ff16908060030154908060040154905085565b600260009054906101000a900473ffffffffffffffffffffffffffffffffffffffff1681565b6000806000806000600460008773ffffffffffffffffffffffffffffffffffffffff1673ffffffffffffffffffffffffffffffffffffffff1681526020019081526020016000206040518060800160405290816000820160009054906101000a900460ff161515151581526020016001820154815260200160028201548152602001600382015481525050905080600001518160200151826040015183606001519450945094509450509193509193565b60075481565b600460003373ffffffffffffffffffffffffffffffffffffffff1673ffffffffffffffffffffffffffffffffffffffff16815260200190815260200160002060000160009054906101000a900460ff16611665576040517f08c379a000000000000000000000000000000000000000000000000000000000815260040161165c90612bd7565b60405180910390fd5b60006005600083815260200190815260200160002090508060070160009054906101000a900460ff16156116ce576040517f08c379a00000000000000000000000000000000000000000000000000000000081526004016116c590612e47565b60405180910390fd5b600073ffffffffffffffffffffffffffffffffffffffff168160010160009054906101000a900473ffffffffffffffffffffffffffffffffffffffff1673ffffffffffffffffffffffffffffffffffffffff1603611761576040517f08c379a000000000000000000000000000000000000000000000000000000000815260040161175890612eb3565b60405180910390fd5b60018160070160006101000a81548160ff021916908315150217905550338160070160016101000a81548173ffffffffffffffffffffffffffffffffffffffff021916908373ffffffffffffffffffffffffffffffffffffffff160217905550600460003373ffffffffffffffffffffffffffffffffffffffff1673ffffffffffffffffffffffffffffffffffffffff168152602001908152602001600020600201600081548092919061181490612d4f565b91905055506064600460003373ffffffffffffffffffffffffffffffffffffffff1673ffffffffffffffffffffffffffffffffffffffff168152602001908152602001600020600101600082825461186c9190612c86565b92505081905550600260009054906101000a900473ffffffffffffffffffffffffffffffffffffffff1673ffffffffffffffffffffffffffffffffffffffff166340c10f198260010160009054906101000a900473ffffffffffffffffffffffffffffffffffffffff1683600801546040518363ffffffff1660e01b81526004016118f8929190612cba565b600060405180830381600087803b15801561191257600080fd5b505af1925050508015611923575060015b156119aa578060080154600360008360010160009054906101000a900473ffffffffffffffffffffffffffffffffffffffff1673ffffffffffffffffffffffffffffffffffffffff1673ffffffffffffffffffffffffffffffffffffffff16815260200190815260200160002060040160008282546119a29190612c86565b925050819055505b3373ffffffffffffffffffffffffffffffffffffffff16827f38d3917dbc216c1520f644e7bb11d91fd7ab92c81c7da47f42e0e7fa7bbfa24c60405160405180910390a38060010160009054906101000a900473ffffffffffffffffffffffffffffffffffffffff1673ffffffffffffffffffffffffffffffffffffffff167f16b0da2ffcb90c6723317bd637d9aad7f04711f42bbe0ac0918ebe10f1f9001c8260080154604051611a5c9190612494565b60405180910390a25050565b6000606060006060806000806000600560008a815260200190815260200160002060405180610140016040529081600082015481526020016001820160009054906101000a900473ffffffffffffffffffffffffffffffffffffffff1673ffffffffffffffffffffffffffffffffffffffff1673ffffffffffffffffffffffffffffffffffffffff168152602001600282018054611b0590612758565b80601f0160208091040260200160405190810160405280929190818152602001828054611b3190612758565b8015611b7e5780601f10611b5357610100808354040283529160200191611b7e565b820191906000526020600020905b815481529060010190602001808311611b6157829003601f168201915b5050505050815260200160038201548152602001600482018054611ba190612758565b80601f0160208091040260200160405190810160405280929190818152602001828054611bcd90612758565b8015611c1a5780601f10611bef57610100808354040283529160200191611c1a565b820191906000526020600020905b815481529060010190602001808311611bfd57829003601f168201915b50505050508152602001600582018054611c3390612758565b80601f0160208091040260200160405190810160405280929190818152602001828054611c5f90612758565b8015611cac5780601f10611c8157610100808354040283529160200191611cac565b820191906000526020600020905b815481529060010190602001808311611c8f57829003601f168201915b50505050508152602001600682015481526020016007820160009054906101000a900460ff161515151581526020016007820160019054906101000a900473ffffffffffffffffffffffffffffffffffffffff1673ffffffffffffffffffffffffffffffffffffffff1673ffffffffffffffffffffffffffffffffffffffff168152602001600882015481525050905080602001518160400151826060015183608001518460a001518560e00151866101000151975097509750975097509750975050919395979092949650565b606481565b611d87611e3f565b600073ffffffffffffffffffffffffffffffffffffffff168173ffffffffffffffffffffffffffffffffffffffff1603611df6576040517f08c379a0000000000000000000000000000000000000000000000000000000008152600401611ded90612f45565b60405180910390fd5b611dff81611ebd565b50565b60046020528060005260406000206000915090508060000160009054906101000a900460ff16908060010154908060020154908060030154905084565b611e47611f81565b73ffffffffffffffffffffffffffffffffffffffff16611e65611070565b73ffffffffffffffffffffffffffffffffffffffff1614611ebb576040517f08c379a0000000000000000000000000000000000000000000000000000000008152600401611eb290612fb1565b60405180910390fd5b565b60008060009054906101000a900473ffffffffffffffffffffffffffffffffffffffff169050816000806101000a81548173ffffffffffffffffffffffffffffffffffffffff021916908373ffffffffffffffffffffffffffffffffffffffff1602179055508173ffffffffffffffffffffffffffffffffffffffff168173ffffffffffffffffffffffffffffffffffffffff167f8be0079c531659141344cd1fd0a4f28419497f9722a3daafe3b4186f6b6457e060405160405180910390a35050565b600033905090565b6000604051905090565b600080fd5b600080fd5b6000819050919050565b611fb081611f9d565b8114611fbb57600080fd5b50565b600081359050611fcd81611fa7565b92915050565b600060208284031215611fe957611fe8611f93565b5b6000611ff784828501611fbe565b91505092915050565b61200981611f9d565b82525050565b600073ffffffffffffffffffffffffffffffffffffffff82169050919050565b600061203a8261200f565b9050919050565b61204a8161202f565b82525050565b600081519050919050565b600082825260208201905092915050565b60005b8381101561208a57808201518184015260208101905061206f565b60008484015250505050565b6000601f19601f8301169050919050565b60006120b282612050565b6120bc818561205b565b93506120cc81856020860161206c565b6120d581612096565b840191505092915050565b60008115159050919050565b6120f5816120e0565b82525050565b600061014082019050612111600083018d612000565b61211e602083018c612041565b8181036040830152612130818b6120a7565b905061213f606083018a612000565b818103608083015261215181896120a7565b905081810360a083015261216581886120a7565b905061217460c0830187612000565b61218160e08301866120ec565b61218f610100830185612041565b61219d610120830184612000565b9b9a5050505050505050505050565b600080fd5b600080fd5b7f4e487b7100000000000000000000000000000000000000000000000000000000600052604160045260246000fd5b6121ee82612096565b810181811067ffffffffffffffff8211171561220d5761220c6121b6565b5b80604052505050565b6000612220611f89565b905061222c82826121e5565b919050565b600067ffffffffffffffff82111561224c5761224b6121b6565b5b61225582612096565b9050602081019050919050565b82818337600083830152505050565b600061228461227f84612231565b612216565b9050828152602081018484840111156122a05761229f6121b1565b5b6122ab848285612262565b509392505050565b600082601f8301126122c8576122c76121ac565b5b81356122d8848260208601612271565b91505092915050565b600080604083850312156122f8576122f7611f93565b5b600083013567ffffffffffffffff81111561231657612315611f98565b5b612322858286016122b3565b925050602083013567ffffffffffffffff81111561234357612342611f98565b5b61234f858286016122b3565b9150509250929050565b6123628161202f565b811461236d57600080fd5b50565b60008135905061237f81612359565b92915050565b60006020828403121561239b5761239a611f93565b5b60006123a984828501612370565b91505092915050565b600060608201905081810360008301526123cc81866120a7565b90506123db6020830185612000565b6123e86040830184612000565b949350505050565b60006020828403121561240657612405611f93565b5b600082013567ffffffffffffffff81111561242457612423611f98565b5b612430848285016122b3565b91505092915050565b600060208201905061244e60008301846120ec565b92915050565b6000806040838503121561246b5761246a611f93565b5b600061247985828601612370565b925050602061248a85828601611fbe565b9150509250929050565b60006020820190506124a96000830184612000565b92915050565b60006020820190506124c46000830184612041565b92915050565b600080600080608085870312156124e4576124e3611f93565b5b600085013567ffffffffffffffff81111561250257612501611f98565b5b61250e878288016122b3565b945050602061251f87828801611fbe565b935050604085013567ffffffffffffffff8111156125405761253f611f98565b5b61254c878288016122b3565b925050606085013567ffffffffffffffff81111561256d5761256c611f98565b5b612579878288016122b3565b91505092959194509250565b600060a082019050818103600083015261259f81886120a7565b905081810360208301526125b381876120a7565b90506125c260408301866120ec565b6125cf6060830185612000565b6125dc6080830184612000565b9695505050505050565b6000819050919050565b600061260b6126066126018461200f565b6125e6565b61200f565b9050919050565b600061261d826125f0565b9050919050565b600061262f82612612565b9050919050565b61263f81612624565b82525050565b600060208201905061265a6000830184612636565b92915050565b600060808201905061267560008301876120ec565b6126826020830186612000565b61268f6040830185612000565b61269c6060830184612000565b95945050505050565b600060e0820190506126ba600083018a612041565b81810360208301526126cc81896120a7565b90506126db6040830188612000565b81810360608301526126ed81876120a7565b9050818103608083015261270181866120a7565b905061271060a08301856120ec565b61271d60c0830184612041565b98975050505050505050565b7f4e487b7100000000000000000000000000000000000000000000000000000000600052602260045260246000fd5b6000600282049050600182168061277057607f821691505b60208210810361278357612782612729565b5b50919050565b7f5573657220616c72656164792072656769737465726564000000000000000000600082015250565b60006127bf60178361205b565b91506127ca82612789565b602082019050919050565b600060208201905081810360008301526127ee816127b2565b9050919050565b60008190508160005260206000209050919050565b60006020601f8301049050919050565b600082821b905092915050565b6000600883026128577fffffffffffffffffffffffffffffffffffffffffffffffffffffffffffffffff8261281a565b612861868361281a565b95508019841693508086168417925050509392505050565b600061289461288f61288a84611f9d565b6125e6565b611f9d565b9050919050565b6000819050919050565b6128ae83612879565b6128c26128ba8261289b565b848454612827565b825550505050565b600090565b6128d76128ca565b6128e28184846128a5565b505050565b5b81811015612906576128fb6000826128cf565b6001810190506128e8565b5050565b601f82111561294b5761291c816127f5565b6129258461280a565b81016020851015612934578190505b6129486129408561280a565b8301826128e7565b50505b505050565b600082821c905092915050565b600061296e60001984600802612950565b1980831691505092915050565b6000612987838361295d565b9150826002028217905092915050565b6129a082612050565b67ffffffffffffffff8111156129b9576129b86121b6565b5b6129c38254612758565b6129ce82828561290a565b600060209050601f831160018114612a0157600084156129ef578287015190505b6129f9858261297b565b865550612a61565b601f198416612a0f866127f5565b60005b82811015612a3757848901518255600182019150602085019450602081019050612a12565b86831015612a545784890151612a50601f89168261295d565b8355505b6001600288020188555050505b505050505050565b60006040820190508181036000830152612a8381856120a7565b90508181036020830152612a9781846120a7565b90509392505050565b7f4167656e7420616c726561647920726567697374657265640000000000000000600082015250565b6000612ad660188361205b565b9150612ae182612aa0565b602082019050919050565b60006020820190508181036000830152612b0581612ac9565b9050919050565b6000819050919050565b6000612b31612b2c612b2784612b0c565b6125e6565b611f9d565b9050919050565b612b4181612b16565b82525050565b6000604082019050612b5c6000830185612041565b612b696020830184612b38565b9392505050565b6000602082019050612b856000830184612b38565b92915050565b7f4e6f742061207665726966696564206167656e74000000000000000000000000600082015250565b6000612bc160148361205b565b9150612bcc82612b8b565b602082019050919050565b60006020820190508181036000830152612bf081612bb4565b9050919050565b7f4e487b7100000000000000000000000000000000000000000000000000000000600052601260045260246000fd5b7f4e487b7100000000000000000000000000000000000000000000000000000000600052601160045260246000fd5b6000612c6082611f9d565b9150612c6b83611f9d565b925082612c7b57612c7a612bf7565b5b828204905092915050565b6000612c9182611f9d565b9150612c9c83611f9d565b9250828201905080821115612cb457612cb3612c26565b5b92915050565b6000604082019050612ccf6000830185612041565b612cdc6020830184612000565b9392505050565b7f55736572206e6f74207265676973746572656400000000000000000000000000600082015250565b6000612d1960138361205b565b9150612d2482612ce3565b602082019050919050565b60006020820190508181036000830152612d4881612d0c565b9050919050565b6000612d5a82611f9d565b91507fffffffffffffffffffffffffffffffffffffffffffffffffffffffffffffffff8203612d8c57612d8b612c26565b5b600182019050919050565b6000612da282611f9d565b9150612dad83611f9d565b9250828202612dbb81611f9d565b91508282048414831517612dd257612dd1612c26565b5b5092915050565b60006020820190508181036000830152612df381846120a7565b905092915050565b7f576173746520616c726561647920636f6c6c6563746564000000000000000000600082015250565b6000612e3160178361205b565b9150612e3c82612dfb565b602082019050919050565b60006020820190508181036000830152612e6081612e24565b9050919050565b7f496e76616c6964207265706f7274000000000000000000000000000000000000600082015250565b6000612e9d600e8361205b565b9150612ea882612e67565b602082019050919050565b60006020820190508181036000830152612ecc81612e90565b9050919050565b7f4f776e61626c653a206e6577206f776e657220697320746865207a65726f206160008201527f6464726573730000000000000000000000000000000000000000000000000000602082015250565b6000612f2f60268361205b565b9150612f3a82612ed3565b604082019050919050565b60006020820190508181036000830152612f5e81612f22565b9050919050565b7f4f776e61626c653a2063616c6c6572206973206e6f7420746865206f776e6572600082015250565b6000612f9b60208361205b565b9150612fa682612f65565b602082019050919050565b60006020820190508181036000830152612fca81612f8e565b905091905056fea26469706673582212207efa7d539659f8aea73eba957fe996f80591cedfb56b187c9a16bf96836a6c0f64736f6c634300081c0033",
  "linkReferences": {},
  "deployedLinkReferences": {}
}