{
  "_format": "hh-sol-artifact-1",
  "contractName": "WasteVan",
  "sourceName": "contracts/WasteVan.sol",
  "abi": [
    {
      "inputs": [
        {
          "internalType": "address",
          "name": "_tokenAddress",
          "type": "address"
        }
      ],
      "stateMutability": "nonpayable",
      "type": "constructor"
    },
    {
      "anonymous": false,
      "inputs": [
        {
          "indexed": true,
          "internalType": "address",
          "name": "agent",
          "type": "address"
        }
      ],
      "name": "AgentRegistered",
      "type": "event"
    },
    {
      "anonymous": false,
      "inputs": [
        {
          "indexed": true,
          "internalType": "address",
          "name": "previousOwner",
          "type": "address"
        },
        {
          "indexed": true,
          "internalType": "address",
          "name": "newOwner",
          "type": "address"
        }
      ],
      "name": "OwnershipTransferred",
      "type": "event"
    },
    {
      "anonymous": false,
      "inputs": [
        {
          "indexed": true,
          "internalType": "address",
          "name": "agent",
          "type": "address"
        },
        {
          "indexed": false,
          "internalType": "uint256",
          "name": "amount",
          "type": "uint256"
        }
      ],
      "name": "PointsPurchased",
      "type": "event"
    },
    {
      "anonymous": false,
      "inputs": [
        {
          "indexed": true,
          "internalType": "address",
          "name": "user",
          "type": "address"
        },
        {
          "indexed": false,
          "internalType": "uint256",
          "name": "amount",
          "type": "uint256"
        }
      ],
      "name": "TokensDistributed",
      "type": "event"
    },
    {
      "anonymous": false,
      "inputs": [
        {
          "indexed": true,
          "internalType": "address",
          "name": "user",
          "type": "address"
        },
        {
          "indexed": false,
          "internalType": "string",
          "name": "username",
          "type": "string"
        },
        {
          "indexed": false,
          "internalType": "string",
          "name": "email",
          "type": "string"
        }
      ],
      "name": "UserRegistered",
      "type": "event"
    },
    {
      "anonymous": false,
      "inputs": [
        {
          "indexed": true,
          "internalType": "uint256",
          "name": "reportId",
          "type": "uint256"
        },
        {
          "indexed": true,
          "internalType": "address",
          "name": "agent",
          "type": "address"
        }
      ],
      "name": "WasteApproved",
      "type": "event"
    },
    {
      "anonymous": false,
      "inputs": [
        {
          "indexed": true,
          "internalType": "uint256",
          "name": "reportId",
          "type": "uint256"
        },
        {
          "indexed": true,
          "internalType": "address",
          "name": "agent",
          "type": "address"
        }
      ],
      "name": "WasteCollected",
      "type": "event"
    },
    {
      "anonymous": false,
      "inputs": [
        {
          "indexed": true,
          "internalType": "uint256",
          "name": "reportId",
          "type": "uint256"
        },
        {
          "indexed": true,
          "internalType": "address",
          "name": "agent",
          "type": "address"
        },
        {
          "indexed": false,
          "internalType": "string",
          "name": "reason",
          "type": "string"
        }
      ],
      "name": "WasteRejected",
      "type": "event"
    },
    {
      "anonymous": false,
      "inputs": [
        {
          "indexed": true,
          "internalType": "uint256",
          "name": "reportId",
          "type": "uint256"
        },
        {
          "indexed": true,
          "internalType": "address",
          "name": "reporter",
          "type": "address"
        },
        {
          "indexed": false,
          "internalType": "string",
          "name": "ipfsHash",
          "type": "string"
        }
      ],
      "name": "WasteReported",
      "type": "event"
    },
    {
      "inputs": [],
      "name": "POINTS_PER_COLLECTION",
      "outputs": [
        {
          "internalType": "uint256",
          "name": "",
          "type": "uint256"
        }
      ],
      "stateMutability": "view",
      "type": "function"
    },
    {
      "inputs": [],
      "name": "TOKENS_PER_POINT",
      "outputs": [
        {
          "internalType": "uint256",
          "name": "",
          "type": "uint256"
        }
      ],
      "stateMutability": "view",
      "type": "function"
    },
    {
      "inputs": [
        {
          "internalType": "address",
          "name": "",
          "type": "address"
        }
      ],
      "name": "agents",
      "outputs": [
        {
          "internalType": "bool",
          "name": "isVerified",
          "type": "bool"
        },
        {
          "internalType": "uint256",
          "name": "points",
          "type": "uint256"
        },
        {
          "internalType": "uint256",
          "name": "totalCollections",
          "type": "uint256"
        },
        {
          "internalType": "uint256",
          "name": "totalPointsDistributed",
          "type": "uint256"
        }
      ],
      "stateMutability": "view",
      "type": "function"
    },
    {
      "inputs": [
        {
          "internalType": "uint256",
          "name": "_reportId",
          "type": "uint256"
        }
      ],
      "name": "approveWaste",
      "outputs": [],
      "stateMutability": "nonpayable",
      "type": "function"
    },
    {
      "inputs": [
        {
          "internalType": "uint256",
          "name": "_reportId",
          "type": "uint256"
        }
      ],
      "name": "collectWaste",
      "outputs": [],
      "stateMutability": "nonpayable",
      "type": "function"
    },
    {
      "inputs": [
        {
          "internalType": "address",
          "name": "_agent",
          "type": "address"
        },
        {
          "internalType": "uint256",
          "name": "_amount",
          "type": "uint256"
        }
      ],
      "name": "distributeAgentTokens",
      "outputs": [],
      "stateMutability": "nonpayable",
      "type": "function"
    },
    {
      "inputs": [
        {
          "internalType": "address",
          "name": "_agent",
          "type": "address"
        }
      ],
      "name": "getAgentStats",
      "outputs": [
        {
          "internalType": "bool",
          "name": "isVerified",
          "type": "bool"
        },
        {
          "internalType": "uint256",
          "name": "points",
          "type": "uint256"
        },
        {
          "internalType": "uint256",
          "name": "totalCollections",
          "type": "uint256"
        },
        {
          "internalType": "uint256",
          "name": "totalPointsDistributed",
          "type": "uint256"
        }
      ],
      "stateMutability": "view",
      "type": "function"
    },
    {
      "inputs": [
        {
          "internalType": "address",
          "name": "_user",
          "type": "address"
        }
      ],
      "name": "getUserStats",
      "outputs": [
        {
          "internalType": "string",
          "name": "username",
          "type": "string"
        },
        {
          "internalType": "uint256",
          "name": "totalWasteReported",
          "type": "uint256"
        },
        {
          "internalType": "uint256",
          "name": "totalTokensEarned",
          "type": "uint256"
        }
      ],
      "stateMutability": "view",
      "type": "function"
    },
    {
      "inputs": [
        {
          "internalType": "uint256",
          "name": "_reportId",
          "type": "uint256"
        }
      ],
      "name": "getWasteReport",
      "outputs": [
        {
          "internalType": "address",
          "name": "reporter",
          "type": "address"
        },
        {
          "internalType": "string",
          "name": "ipfsHash",
          "type": "string"
        },
        {
          "internalType": "uint256",
          "name": "quantity",
          "type": "uint256"
        },
        {
          "internalType": "string",
          "name": "wasteType",
          "type": "string"
        },
        {
          "internalType": "string",
          "name": "location",
          "type": "string"
        },
        {
          "internalType": "bool",
          "name": "isCollected",
          "type": "bool"
        },
        {
          "internalType": "address",
          "name": "collectedBy",
          "type": "address"
        }
      ],
      "stateMutability": "view",
      "type": "function"
    },
    {
      "inputs": [
        {
          "internalType": "uint256",
          "name": "_reportId",
          "type": "uint256"
        }
      ],
      "name": "getWasteReportDetails",
      "outputs": [
        {
          "internalType": "uint256",
          "name": "reportId",
          "type": "uint256"
        },
        {
          "internalType": "address",
          "name": "reporter",
          "type": "address"
        },
        {
          "internalType": "string",
          "name": "ipfsHash",
          "type": "string"
        },
        {
          "internalType": "uint256",
          "name": "quantity",
          "type": "uint256"
        },
        {
          "internalType": "string",
          "name": "wasteType",
          "type": "string"
        },
        {
          "internalType": "string",
          "name": "location",
          "type": "string"
        },
        {
          "internalType": "uint256",
          "name": "timestamp",
          "type": "uint256"
        },
        {
          "internalType": "bool",
          "name": "isCollected",
          "type": "bool"
        },
        {
          "internalType": "address",
          "name": "collectedBy",
          "type": "address"
        },
        {
          "internalType": "uint256",
          "name": "tokenReward",
          "type": "uint256"
        },
        {
          "internalType": "enum WasteVan.VerificationStatus",
          "name": "status",
          "type": "uint8"
        },
        {
          "internalType": "string",
          "name": "rejectionReason",
          "type": "string"
        }
      ],
      "stateMutability": "view",
      "type": "function"
    },
    {
      "inputs": [],
      "name": "owner",
      "outputs": [
        {
          "internalType": "address",
          "name": "",
          "type": "address"
        }
      ],
      "stateMutability": "view",
      "type": "function"
    },
    {
      "inputs": [],
      "name": "purchasePoints",
      "outputs": [],
      "stateMutability": "payable",
      "type": "function"
    },
    {
      "inputs": [],
      "name": "registerAgent",
      "outputs": [],
      "stateMutability": "nonpayable",
      "type": "function"
    },
    {
      "inputs": [
        {
          "internalType": "string",
          "name": "_username",
          "type": "string"
        },
        {
          "internalType": "string",
          "name": "_email",
          "type": "string"
        }
      ],
      "name": "registerUser",
      "outputs": [],
      "stateMutability": "nonpayable",
      "type": "function"
    },
    {
      "inputs": [
        {
          "internalType": "uint256",
          "name": "_reportId",
          "type": "uint256"
        },
        {
          "internalType": "string",
          "name": "_reason",
          "type": "string"
        }
      ],
      "name": "rejectWaste",
      "outputs": [],
      "stateMutability": "nonpayable",
      "type": "function"
    },
    {
      "inputs": [],
      "name": "renounceOwnership",
      "outputs": [],
      "stateMutability": "nonpayable",
      "type": "function"
    },
    {
      "inputs": [],
      "name": "reportCounter",
      "outputs": [
        {
          "internalType": "uint256",
          "name": "",
          "type": "uint256"
        }
      ],
      "stateMutability": "view",
      "type": "function"
    },
    {
      "inputs": [
        {
          "internalType": "string",
          "name": "_ipfsHash",
          "type": "string"
        },
        {
          "internalType": "uint256",
          "name": "_quantity",
          "type": "uint256"
        },
        {
          "internalType": "string",
          "name": "_wasteType",
          "type": "string"
        },
        {
          "internalType": "string",
          "name": "_location",
          "type": "string"
        }
      ],
      "name": "reportWaste",
      "outputs": [],
      "stateMutability": "nonpayable",
      "type": "function"
    },
    {
      "inputs": [
        {
          "internalType": "address",
          "name": "newOwner",
          "type": "address"
        }
      ],
      "name": "transferOwnership",
      "outputs": [],
      "stateMutability": "nonpayable",
      "type": "function"
    },
    {
      "inputs": [
        {
          "internalType": "string",
          "name": "",
          "type": "string"
        }
      ],
      "name": "usedQRCodes",
      "outputs": [
        {
          "internalType": "bool",
          "name": "",
          "type": "bool"
        }
      ],
      "stateMutability": "view",
      "type": "function"
    },
    {
      "inputs": [
        {
          "internalType": "address",
          "name": "",
          "type": "address"
        }
      ],
      "name": "users",
      "outputs": [
        {
          "internalType": "string",
          "name": "username",
          "type": "string"
        },
        {
          "internalType": "string",
          "name": "email",
          "type": "string"
        },
        {
          "internalType": "bool",
          "name": "isRegistered",
          "type": "bool"
        },
        {
          "internalType": "uint256",
          "name": "totalWasteReported",
          "type": "uint256"
        },
        {
          "internalType": "uint256",
          "name": "totalTokensEarned",
          "type": "uint256"
        }
      ],
      "stateMutability": "view",
      "type": "function"
    },
    {
      "inputs": [
        {
          "internalType": "uint256",
          "name": "",
          "type": "uint256"
        }
      ],
      "name": "wasteReports",
      "outputs": [
        {
          "internalType": "uint256",
          "name": "reportId",
          "type": "uint256"
        },
        {
          "internalType": "address",
          "name": "reporter",
          "type": "address"
        },
        {
          "internalType": "string",
          "name": "ipfsHash",
          "type": "string"
        },
        {
          "internalType": "uint256",
          "name": "quantity",
          "type": "uint256"
        },
        {
          "internalType": "string",
          "name": "wasteType",
          "type": "string"
        },
        {
          "internalType": "string",
          "name": "location",
          "type": "string"
        },
        {
          "internalType": "uint256",
          "name": "timestamp",
          "type": "uint256"
        },
        {
          "internalType": "bool",
          "name": "isCollected",
          "type": "bool"
        },
        {
          "internalType": "address",
          "name": "collectedBy",
          "type": "address"
        },
        {
          "internalType": "uint256",
          "name": "tokenReward",
          "type": "uint256"
        },
        {
          "internalType": "enum WasteVan.VerificationStatus",
          "name": "status",
          "type": "uint8"
        },
        {
          "internalType": "string",
          "name": "rejectionReason",
          "type": "string"
        }
      ],
      "stateMutability": "view",
      "type": "function"
    },
    {
      "inputs": [],
      "name": "wasteVanToken",
      "outputs": [
        {
          "internalType": "contract WasteVanToken",
          "name": "",
          "type": "address"
        }
      ],
      "stateMutability": "view",
      "type": "function"
    },
    {
      "inputs": [],
      "name": "withdraw",
      "outputs": [],
      "stateMutability": "nonpayable",
      "type": "function"
    }
  ],
  "bytecode": "0x608060405234801561001057600080fd5b506040516141af3803806141af833981810160405281019061003291906102b5565b61004e61004361018660201b60201c565b61018e60201b60201c565b6001808190555080600260006101000a81548173ffffffffffffffffffffffffffffffffffffffff021916908373ffffffffffffffffffffffffffffffffffffffff160217905550604051806080016040528060011515815260200160008152602001600081526020016000815250600460003373ffffffffffffffffffffffffffffffffffffffff1673ffffffffffffffffffffffffffffffffffffffff16815260200190815260200160002060008201518160000160006101000a81548160ff0219169083151502179055506020820151816001015560408201518160020155606082015181600301559050503373ffffffffffffffffffffffffffffffffffffffff167f82d0829d9d481e4cb9913897f9b9c903271c4db68c7b3324071d2a7e3b2c5ff060405160405180910390a2506102e2565b600033905090565b60008060009054906101000a900473ffffffffffffffffffffffffffffffffffffffff169050816000806101000a81548173ffffffffffffffffffffffffffffffffffffffff021916908373ffffffffffffffffffffffffffffffffffffffff1602179055508173ffffffffffffffffffffffffffffffffffffffff168173ffffffffffffffffffffffffffffffffffffffff167f8be0079c531659141344cd1fd0a4f28419497f9722a3daafe3b4186f6b6457e060405160405180910390a35050565b600080fd5b600073ffffffffffffffffffffffffffffffffffffffff82169050919050565b600061028282610257565b9050919050565b61029281610277565b811461029d57600080fd5b50565b6000815190506102af81610289565b92915050565b6000602082840312156102cb576102ca610252565b5b60006102d9848285016102a0565b91505092915050565b613ebe806102f16000396000f3fe60806040526004361061014b5760003560e01c8063898a97b9116100b6578063b9bc38f21161006f578063b9bc38f21461047a578063c5df2882146104a5578063d763bf7b146104ce578063de9f9ee414610511578063f2fde38b1461053c578063fd66091e146105655761014b565b8063898a97b91461034f5780638da5cb5b1461037a578063907b5760146103a5578063a87430ba146103ce578063b4885dae1461040f578063b5695b381461043a5761014b565b80634e43603a116101085780634e43603a14610241578063518dab3c14610280578063648c9f6d146102bd578063715018a6146102e65780637384490b146102fd5780637d03106e146103265761014b565b80630cdd8982146101505780631d2e4afd14610198578063295e9265146101c157806335eb5208146102095780633ccfd60b146102205780634c8b973814610237575b600080fd5b34801561015c57600080fd5b5061017760048036038101906101729190612b56565b6105a5565b60405161018f9c9b9a99989796959493929190612cf5565b60405180910390f35b3480156101a457600080fd5b506101bf60048036038101906101ba9190612f00565b61087f565b005b3480156101cd57600080fd5b506101e860048036038101906101e39190612b56565b610a31565b6040516102009c9b9a99989796959493929190612cf5565b60405180910390f35b34801561021557600080fd5b5061021e610e42565b005b34801561022c57600080fd5b506102356110ac565b005b61023f611104565b005b34801561024d57600080fd5b5061026860048036038101906102639190612fa4565b611255565b60405161027793929190612fd1565b60405180910390f35b34801561028c57600080fd5b506102a760048036038101906102a2919061300f565b611418565b6040516102b49190613058565b60405180910390f35b3480156102c957600080fd5b506102e460048036038101906102df9190612b56565b61144e565b005b3480156102f257600080fd5b506102fb611b0f565b005b34801561030957600080fd5b50610324600480360381019061031f9190613073565b611b23565b005b34801561033257600080fd5b5061034d600480360381019061034891906130b3565b611c9b565b005b34801561035b57600080fd5b50610364611f23565b604051610371919061310f565b60405180910390f35b34801561038657600080fd5b5061038f611f2f565b60405161039c919061312a565b60405180910390f35b3480156103b157600080fd5b506103cc60048036038101906103c79190613145565b611f58565b005b3480156103da57600080fd5b506103f560048036038101906103f09190612fa4565b6122e2565b604051610406959493929190613200565b60405180910390f35b34801561041b57600080fd5b50610424612435565b60405161043191906132c0565b60405180910390f35b34801561044657600080fd5b50610461600480360381019061045c9190612fa4565b61245b565b60405161047194939291906132db565b60405180910390f35b34801561048657600080fd5b5061048f61250c565b60405161049c919061310f565b60405180910390f35b3480156104b157600080fd5b506104cc60048036038101906104c79190612b56565b612512565b005b3480156104da57600080fd5b506104f560048036038101906104f09190612b56565b61251e565b6040516105089796959493929190613320565b60405180910390f35b34801561051d57600080fd5b506105266128fd565b604051610533919061310f565b60405180910390f35b34801561054857600080fd5b50610563600480360381019061055e9190612fa4565b612902565b005b34801561057157600080fd5b5061058c60048036038101906105879190612fa4565b612985565b60405161059c94939291906132db565b60405180910390f35b60056020528060005260406000206000915090508060000154908060010160009054906101000a900473ffffffffffffffffffffffffffffffffffffffff16908060020180546105f4906133d3565b80601f0160208091040260200160405190810160405280929190818152602001828054610620906133d3565b801561066d5780601f106106425761010080835404028352916020019161066d565b820191906000526020600020905b81548152906001019060200180831161065057829003601f168201915b505050505090806003015490806004018054610688906133d3565b80601f01602080910402602001604051908101604052809291908181526020018280546106b4906133d3565b80156107015780601f106106d657610100808354040283529160200191610701565b820191906000526020600020905b8154815290600101906020018083116106e457829003601f168201915b505050505090806005018054610716906133d3565b80601f0160208091040260200160405190810160405280929190818152602001828054610742906133d3565b801561078f5780601f106107645761010080835404028352916020019161078f565b820191906000526020600020905b81548152906001019060200180831161077257829003601f168201915b5050505050908060060154908060070160009054906101000a900460ff16908060070160019054906101000a900473ffffffffffffffffffffffffffffffffffffffff16908060080154908060090160009054906101000a900460ff169080600a0180546107fc906133d3565b80601f0160208091040260200160405190810160405280929190818152602001828054610828906133d3565b80156108755780601f1061084a57610100808354040283529160200191610875565b820191906000526020600020905b81548152906001019060200180831161085857829003601f168201915b505050505090508c565b600360003373ffffffffffffffffffffffffffffffffffffffff1673ffffffffffffffffffffffffffffffffffffffff16815260200190815260200160002060020160009054906101000a900460ff161561090f576040517f08c379a000000000000000000000000000000000000000000000000000000000815260040161090690613450565b60405180910390fd5b6040518060a00160405280838152602001828152602001600115158152602001600081526020016000815250600360003373ffffffffffffffffffffffffffffffffffffffff1673ffffffffffffffffffffffffffffffffffffffff168152602001908152602001600020600082015181600001908161098f9190613612565b5060208201518160010190816109a59190613612565b5060408201518160020160006101000a81548160ff02191690831515021790555060608201518160030155608082015181600401559050503373ffffffffffffffffffffffffffffffffffffffff167f92822564bab8864c3a47b34e8d23fbce5c46234eb5da261f94087b995ac0f33b8383604051610a259291906136e4565b60405180910390a25050565b60008060606000606080600080600080600060606000600560008f815260200190815260200160002060405180610180016040529081600082015481526020016001820160009054906101000a900473ffffffffffffffffffffffffffffffffffffffff1673ffffffffffffffffffffffffffffffffffffffff1673ffffffffffffffffffffffffffffffffffffffff168152602001600282018054610ad6906133d3565b80601f0160208091040260200160405190810160405280929190818152602001828054610b02906133d3565b8015610b4f5780601f10610b2457610100808354040283529160200191610b4f565b820191906000526020600020905b815481529060010190602001808311610b3257829003601f168201915b5050505050815260200160038201548152602001600482018054610b72906133d3565b80601f0160208091040260200160405190810160405280929190818152602001828054610b9e906133d3565b8015610beb5780601f10610bc057610100808354040283529160200191610beb565b820191906000526020600020905b815481529060010190602001808311610bce57829003601f168201915b50505050508152602001600582018054610c04906133d3565b80601f0160208091040260200160405190810160405280929190818152602001828054610c30906133d3565b8015610c7d5780601f10610c5257610100808354040283529160200191610c7d565b820191906000526020600020905b815481529060010190602001808311610c6057829003601f168201915b50505050508152602001600682015481526020016007820160009054906101000a900460ff161515151581526020016007820160019054906101000a900473ffffffffffffffffffffffffffffffffffffffff1673ffffffffffffffffffffffffffffffffffffffff1673ffffffffffffffffffffffffffffffffffffffff168152602001600882015481526020016009820160009054906101000a900460ff166002811115610d3057610d2f612c7e565b5b6002811115610d4257610d41612c7e565b5b8152602001600a82018054610d56906133d3565b80601f0160208091040260200160405190810160405280929190818152602001828054610d82906133d3565b8015610dcf5780601f10610da457610100808354040283529160200191610dcf565b820191906000526020600020905b815481529060010190602001808311610db257829003601f168201915b5050505050815250509050806000015181602001518260400151836060015184608001518560a001518660c001518760e001518861010001518961012001518a61014001518b61016001519c509c509c509c509c509c509c509c509c509c509c509c505091939597999b5091939597999b565b600460003373ffffffffffffffffffffffffffffffffffffffff1673ffffffffffffffffffffffffffffffffffffffff16815260200190815260200160002060000160009054906101000a900460ff1615610ed2576040517f08c379a0000000000000000000000000000000000000000000000000000000008152600401610ec990613767565b60405180910390fd5b604051806080016040528060011515815260200160008152602001600081526020016000815250600460003373ffffffffffffffffffffffffffffffffffffffff1673ffffffffffffffffffffffffffffffffffffffff16815260200190815260200160002060008201518160000160006101000a81548160ff021916908315150217905550602082015181600101556040820151816002015560608201518160030155905050600260009054906101000a900473ffffffffffffffffffffffffffffffffffffffff1673ffffffffffffffffffffffffffffffffffffffff166340c10f1933683635c9adc5dea000006040518363ffffffff1660e01b8152600401610fdf9291906137c2565b600060405180830381600087803b158015610ff957600080fd5b505af192505050801561100a575060015b15611067573373ffffffffffffffffffffffffffffffffffffffff167f16b0da2ffcb90c6723317bd637d9aad7f04711f42bbe0ac0918ebe10f1f9001c683635c9adc5dea0000060405161105e91906137eb565b60405180910390a25b3373ffffffffffffffffffffffffffffffffffffffff167f82d0829d9d481e4cb9913897f9b9c903271c4db68c7b3324071d2a7e3b2c5ff060405160405180910390a2565b6110b46129c2565b6110bc611f2f565b73ffffffffffffffffffffffffffffffffffffffff166108fc479081150290604051600060405180830381858888f19350505050158015611101573d6000803e3d6000fd5b50565b600460003373ffffffffffffffffffffffffffffffffffffffff1673ffffffffffffffffffffffffffffffffffffffff16815260200190815260200160002060000160009054906101000a900460ff16611193576040517f08c379a000000000000000000000000000000000000000000000000000000000815260040161118a90613852565b60405180910390fd5b6000670de0b6b3a7640000346111a991906138d0565b905080600460003373ffffffffffffffffffffffffffffffffffffffff1673ffffffffffffffffffffffffffffffffffffffff16815260200190815260200160002060010160008282546111fd9190613901565b925050819055503373ffffffffffffffffffffffffffffffffffffffff167f4188bb0074eb5be3d6b8089e8faaa457e592aab04dd8d5fc19d7358791c4eee48260405161124a919061310f565b60405180910390a250565b60606000806000600360008673ffffffffffffffffffffffffffffffffffffffff1673ffffffffffffffffffffffffffffffffffffffff1681526020019081526020016000206040518060a00160405290816000820180546112b6906133d3565b80601f01602080910402602001604051908101604052809291908181526020018280546112e2906133d3565b801561132f5780601f106113045761010080835404028352916020019161132f565b820191906000526020600020905b81548152906001019060200180831161131257829003601f168201915b50505050508152602001600182018054611348906133d3565b80601f0160208091040260200160405190810160405280929190818152602001828054611374906133d3565b80156113c15780601f10611396576101008083540402835291602001916113c1565b820191906000526020600020905b8154815290600101906020018083116113a457829003601f168201915b505050505081526020016002820160009054906101000a900460ff16151515158152602001600382015481526020016004820154815250509050806000015181606001518260800151935093509350509193909250565b6006818051602081018201805184825260208301602085012081835280955050505050506000915054906101000a900460ff1681565b600460003373ffffffffffffffffffffffffffffffffffffffff1673ffffffffffffffffffffffffffffffffffffffff16815260200190815260200160002060000160009054906101000a900460ff166114dd576040517f08c379a00000000000000000000000000000000000000000000000000000000081526004016114d490613852565b60405180910390fd5b60006005600083815260200190815260200160002090506000600281111561150857611507612c7e565b5b8160090160009054906101000a900460ff16600281111561152c5761152b612c7e565b5b1461156c576040517f08c379a000000000000000000000000000000000000000000000000000000000815260040161156390613981565b60405180910390fd5b600073ffffffffffffffffffffffffffffffffffffffff168160010160009054906101000a900473ffffffffffffffffffffffffffffffffffffffff1673ffffffffffffffffffffffffffffffffffffffff16036115ff576040517f08c379a00000000000000000000000000000000000000000000000000000000081526004016115f6906139ed565b60405180910390fd5b6000600260009054906101000a900473ffffffffffffffffffffffffffffffffffffffff1673ffffffffffffffffffffffffffffffffffffffff166370a08231336040518263ffffffff1660e01b815260040161165c919061312a565b602060405180830381865afa158015611679573d6000803e3d6000fd5b505050506040513d601f19601f8201168201806040525081019061169d9190613a22565b905081600801548110156116e6576040517f08c379a00000000000000000000000000000000000000000000000000000000081526004016116dd90613ac1565b60405180910390fd5b60018260090160006101000a81548160ff0219169083600281111561170e5761170d612c7e565b5b021790555060018260070160006101000a81548160ff021916908315150217905550338260070160016101000a81548173ffffffffffffffffffffffffffffffffffffffff021916908373ffffffffffffffffffffffffffffffffffffffff160217905550600460003373ffffffffffffffffffffffffffffffffffffffff1673ffffffffffffffffffffffffffffffffffffffff16815260200190815260200160002060020160008154809291906117c690613ae1565b91905055506064600460003373ffffffffffffffffffffffffffffffffffffffff1673ffffffffffffffffffffffffffffffffffffffff168152602001908152602001600020600101600082825461181e9190613901565b925050819055508160080154600460003373ffffffffffffffffffffffffffffffffffffffff1673ffffffffffffffffffffffffffffffffffffffff168152602001908152602001600020600301600082825461187b9190613901565b92505081905550600260009054906101000a900473ffffffffffffffffffffffffffffffffffffffff1673ffffffffffffffffffffffffffffffffffffffff16635a46321c338460010160009054906101000a900473ffffffffffffffffffffffffffffffffffffffff1685600801546040518463ffffffff1660e01b815260040161190993929190613b29565b6020604051808303816000875af1158015611928573d6000803e3d6000fd5b505050506040513d601f19601f8201168201806040525081019061194c9190613b8c565b61198b576040517f08c379a000000000000000000000000000000000000000000000000000000000815260040161198290613c05565b60405180910390fd5b8160080154600360008460010160009054906101000a900473ffffffffffffffffffffffffffffffffffffffff1673ffffffffffffffffffffffffffffffffffffffff1673ffffffffffffffffffffffffffffffffffffffff1681526020019081526020016000206004016000828254611a059190613901565b925050819055503373ffffffffffffffffffffffffffffffffffffffff16837fc9f75226a31c0d65b81755fe248896e822c7af404af44933b5faed5e9055f3e660405160405180910390a33373ffffffffffffffffffffffffffffffffffffffff16837f38d3917dbc216c1520f644e7bb11d91fd7ab92c81c7da47f42e0e7fa7bbfa24c60405160405180910390a38160010160009054906101000a900473ffffffffffffffffffffffffffffffffffffffff1673ffffffffffffffffffffffffffffffffffffffff167f16b0da2ffcb90c6723317bd637d9aad7f04711f42bbe0ac0918ebe10f1f9001c8360080154604051611b02919061310f565b60405180910390a2505050565b611b176129c2565b611b216000612a40565b565b611b2b6129c2565b600460008373ffffffffffffffffffffffffffffffffffffffff1673ffffffffffffffffffffffffffffffffffffffff16815260200190815260200160002060000160009054906101000a900460ff16611bba576040517f08c379a0000000000000000000000000000000000000000000000000000000008152600401611bb190613852565b60405180910390fd5b600260009054906101000a900473ffffffffffffffffffffffffffffffffffffffff1673ffffffffffffffffffffffffffffffffffffffff166340c10f1983836040518363ffffffff1660e01b8152600401611c17929190613c25565b600060405180830381600087803b158015611c3157600080fd5b505af1158015611c45573d6000803e3d6000fd5b505050508173ffffffffffffffffffffffffffffffffffffffff167f16b0da2ffcb90c6723317bd637d9aad7f04711f42bbe0ac0918ebe10f1f9001c82604051611c8f919061310f565b60405180910390a25050565b600460003373ffffffffffffffffffffffffffffffffffffffff1673ffffffffffffffffffffffffffffffffffffffff16815260200190815260200160002060000160009054906101000a900460ff16611d2a576040517f08c379a0000000000000000000000000000000000000000000000000000000008152600401611d2190613852565b60405180910390fd5b600060056000848152602001908152602001600020905060006002811115611d5557611d54612c7e565b5b8160090160009054906101000a900460ff166002811115611d7957611d78612c7e565b5b14611db9576040517f08c379a0000000000000000000000000000000000000000000000000000000008152600401611db090613981565b60405180910390fd5b600073ffffffffffffffffffffffffffffffffffffffff168160010160009054906101000a900473ffffffffffffffffffffffffffffffffffffffff1673ffffffffffffffffffffffffffffffffffffffff1603611e4c576040517f08c379a0000000000000000000000000000000000000000000000000000000008152600401611e43906139ed565b60405180910390fd5b6000825111611e90576040517f08c379a0000000000000000000000000000000000000000000000000000000008152600401611e8790613c9a565b60405180910390fd5b60028160090160006101000a81548160ff02191690836002811115611eb857611eb7612c7e565b5b02179055508181600a019081611ece9190613612565b503373ffffffffffffffffffffffffffffffffffffffff16837fa30465b144190351a63c963eaa4c36c298186bb7b78e53bd3deecc99c09c016084604051611f169190613cba565b60405180910390a3505050565b670de0b6b3a764000081565b60008060009054906101000a900473ffffffffffffffffffffffffffffffffffffffff16905090565b600360003373ffffffffffffffffffffffffffffffffffffffff1673ffffffffffffffffffffffffffffffffffffffff16815260200190815260200160002060020160009054906101000a900460ff16611fe7576040517f08c379a0000000000000000000000000000000000000000000000000000000008152600401611fde90613d28565b60405180910390fd5b60076000815480929190611ffa90613ae1565b919050555060405180610180016040528060075481526020013373ffffffffffffffffffffffffffffffffffffffff168152602001858152602001848152602001838152602001828152602001428152602001600015158152602001600073ffffffffffffffffffffffffffffffffffffffff168152602001670de0b6b3a7640000856120879190613d48565b8152602001600060028111156120a05761209f612c7e565b5b8152602001604051806020016040528060008152508152506005600060075481526020019081526020016000206000820151816000015560208201518160010160006101000a81548173ffffffffffffffffffffffffffffffffffffffff021916908373ffffffffffffffffffffffffffffffffffffffff16021790555060408201518160020190816121339190613612565b506060820151816003015560808201518160040190816121539190613612565b5060a08201518160050190816121699190613612565b5060c0820151816006015560e08201518160070160006101000a81548160ff0219169083151502179055506101008201518160070160016101000a81548173ffffffffffffffffffffffffffffffffffffffff021916908373ffffffffffffffffffffffffffffffffffffffff16021790555061012082015181600801556101408201518160090160006101000a81548160ff0219169083600281111561221357612212612c7e565b5b021790555061016082015181600a01908161222e9190613612565b5090505082600360003373ffffffffffffffffffffffffffffffffffffffff1673ffffffffffffffffffffffffffffffffffffffff16815260200190815260200160002060030160008282546122849190613901565b925050819055503373ffffffffffffffffffffffffffffffffffffffff166007547f8380288083f7a53853cdd4ad41fb7f4d17a3ea763b59968823158f363ed7e07c866040516122d49190613cba565b60405180910390a350505050565b6003602052806000526040600020600091509050806000018054612305906133d3565b80601f0160208091040260200160405190810160405280929190818152602001828054612331906133d3565b801561237e5780601f106123535761010080835404028352916020019161237e565b820191906000526020600020905b81548152906001019060200180831161236157829003601f168201915b505050505090806001018054612393906133d3565b80601f01602080910402602001604051908101604052809291908181526020018280546123bf906133d3565b801561240c5780601f106123e15761010080835404028352916020019161240c565b820191906000526020600020905b8154815290600101906020018083116123ef57829003601f168201915b5050505050908060020160009054906101000a900460ff16908060030154908060040154905085565b600260009054906101000a900473ffffffffffffffffffffffffffffffffffffffff1681565b6000806000806000600460008773ffffffffffffffffffffffffffffffffffffffff1673ffffffffffffffffffffffffffffffffffffffff1681526020019081526020016000206040518060800160405290816000820160009054906101000a900460ff161515151581526020016001820154815260200160028201548152602001600382015481525050905080600001518160200151826040015183606001519450945094509450509193509193565b60075481565b61251b8161144e565b50565b6000606060006060806000806000600560008a815260200190815260200160002060405180610180016040529081600082015481526020016001820160009054906101000a900473ffffffffffffffffffffffffffffffffffffffff1673ffffffffffffffffffffffffffffffffffffffff1673ffffffffffffffffffffffffffffffffffffffff1681526020016002820180546125bb906133d3565b80601f01602080910402602001604051908101604052809291908181526020018280546125e7906133d3565b80156126345780601f1061260957610100808354040283529160200191612634565b820191906000526020600020905b81548152906001019060200180831161261757829003601f168201915b5050505050815260200160038201548152602001600482018054612657906133d3565b80601f0160208091040260200160405190810160405280929190818152602001828054612683906133d3565b80156126d05780601f106126a5576101008083540402835291602001916126d0565b820191906000526020600020905b8154815290600101906020018083116126b357829003601f168201915b505050505081526020016005820180546126e9906133d3565b80601f0160208091040260200160405190810160405280929190818152602001828054612715906133d3565b80156127625780601f1061273757610100808354040283529160200191612762565b820191906000526020600020905b81548152906001019060200180831161274557829003601f168201915b50505050508152602001600682015481526020016007820160009054906101000a900460ff161515151581526020016007820160019054906101000a900473ffffffffffffffffffffffffffffffffffffffff1673ffffffffffffffffffffffffffffffffffffffff1673ffffffffffffffffffffffffffffffffffffffff168152602001600882015481526020016009820160009054906101000a900460ff16600281111561281557612814612c7e565b5b600281111561282757612826612c7e565b5b8152602001600a8201805461283b906133d3565b80601f0160208091040260200160405190810160405280929190818152602001828054612867906133d3565b80156128b45780601f10612889576101008083540402835291602001916128b4565b820191906000526020600020905b81548152906001019060200180831161289757829003601f168201915b505050505081525050905080602001518160400151826060015183608001518460a001518560e00151866101000151975097509750975097509750975050919395979092949650565b606481565b61290a6129c2565b600073ffffffffffffffffffffffffffffffffffffffff168173ffffffffffffffffffffffffffffffffffffffff1603612979576040517f08c379a000000000000000000000000000000000000000000000000000000000815260040161297090613dfc565b60405180910390fd5b61298281612a40565b50565b60046020528060005260406000206000915090508060000160009054906101000a900460ff16908060010154908060020154908060030154905084565b6129ca612b04565b73ffffffffffffffffffffffffffffffffffffffff166129e8611f2f565b73ffffffffffffffffffffffffffffffffffffffff1614612a3e576040517f08c379a0000000000000000000000000000000000000000000000000000000008152600401612a3590613e68565b60405180910390fd5b565b60008060009054906101000a900473ffffffffffffffffffffffffffffffffffffffff169050816000806101000a81548173ffffffffffffffffffffffffffffffffffffffff021916908373ffffffffffffffffffffffffffffffffffffffff1602179055508173ffffffffffffffffffffffffffffffffffffffff168173ffffffffffffffffffffffffffffffffffffffff167f8be0079c531659141344cd1fd0a4f28419497f9722a3daafe3b4186f6b6457e060405160405180910390a35050565b600033905090565b6000604051905090565b600080fd5b600080fd5b6000819050919050565b612b3381612b20565b8114612b3e57600080fd5b50565b600081359050612b5081612b2a565b92915050565b600060208284031215612b6c57612b6b612b16565b5b6000612b7a84828501612b41565b91505092915050565b612b8c81612b20565b82525050565b600073ffffffffffffffffffffffffffffffffffffffff82169050919050565b6000612bbd82612b92565b9050919050565b612bcd81612bb2565b82525050565b600081519050919050565b600082825260208201905092915050565b60005b83811015612c0d578082015181840152602081019050612bf2565b60008484015250505050565b6000601f19601f8301169050919050565b6000612c3582612bd3565b612c3f8185612bde565b9350612c4f818560208601612bef565b612c5881612c19565b840191505092915050565b60008115159050919050565b612c7881612c63565b82525050565b7f4e487b7100000000000000000000000000000000000000000000000000000000600052602160045260246000fd5b60038110612cbe57612cbd612c7e565b5b50565b6000819050612ccf82612cad565b919050565b6000612cdf82612cc1565b9050919050565b612cef81612cd4565b82525050565b600061018082019050612d0b600083018f612b83565b612d18602083018e612bc4565b8181036040830152612d2a818d612c2a565b9050612d39606083018c612b83565b8181036080830152612d4b818b612c2a565b905081810360a0830152612d5f818a612c2a565b9050612d6e60c0830189612b83565b612d7b60e0830188612c6f565b612d89610100830187612bc4565b612d97610120830186612b83565b612da5610140830185612ce6565b818103610160830152612db88184612c2a565b90509d9c50505050505050505050505050565b600080fd5b600080fd5b7f4e487b7100000000000000000000000000000000000000000000000000000000600052604160045260246000fd5b612e0d82612c19565b810181811067ffffffffffffffff82111715612e2c57612e2b612dd5565b5b80604052505050565b6000612e3f612b0c565b9050612e4b8282612e04565b919050565b600067ffffffffffffffff821115612e6b57612e6a612dd5565b5b612e7482612c19565b9050602081019050919050565b82818337600083830152505050565b6000612ea3612e9e84612e50565b612e35565b905082815260208101848484011115612ebf57612ebe612dd0565b5b612eca848285612e81565b509392505050565b600082601f830112612ee757612ee6612dcb565b5b8135612ef7848260208601612e90565b91505092915050565b60008060408385031215612f1757612f16612b16565b5b600083013567ffffffffffffffff811115612f3557612f34612b1b565b5b612f4185828601612ed2565b925050602083013567ffffffffffffffff811115612f6257612f61612b1b565b5b612f6e85828601612ed2565b9150509250929050565b612f8181612bb2565b8114612f8c57600080fd5b50565b600081359050612f9e81612f78565b92915050565b600060208284031215612fba57612fb9612b16565b5b6000612fc884828501612f8f565b91505092915050565b60006060820190508181036000830152612feb8186612c2a565b9050612ffa6020830185612b83565b6130076040830184612b83565b949350505050565b60006020828403121561302557613024612b16565b5b600082013567ffffffffffffffff81111561304357613042612b1b565b5b61304f84828501612ed2565b91505092915050565b600060208201905061306d6000830184612c6f565b92915050565b6000806040838503121561308a57613089612b16565b5b600061309885828601612f8f565b92505060206130a985828601612b41565b9150509250929050565b600080604083850312156130ca576130c9612b16565b5b60006130d885828601612b41565b925050602083013567ffffffffffffffff8111156130f9576130f8612b1b565b5b61310585828601612ed2565b9150509250929050565b60006020820190506131246000830184612b83565b92915050565b600060208201905061313f6000830184612bc4565b92915050565b6000806000806080858703121561315f5761315e612b16565b5b600085013567ffffffffffffffff81111561317d5761317c612b1b565b5b61318987828801612ed2565b945050602061319a87828801612b41565b935050604085013567ffffffffffffffff8111156131bb576131ba612b1b565b5b6131c787828801612ed2565b925050606085013567ffffffffffffffff8111156131e8576131e7612b1b565b5b6131f487828801612ed2565b91505092959194509250565b600060a082019050818103600083015261321a8188612c2a565b9050818103602083015261322e8187612c2a565b905061323d6040830186612c6f565b61324a6060830185612b83565b6132576080830184612b83565b9695505050505050565b6000819050919050565b600061328661328161327c84612b92565b613261565b612b92565b9050919050565b60006132988261326b565b9050919050565b60006132aa8261328d565b9050919050565b6132ba8161329f565b82525050565b60006020820190506132d560008301846132b1565b92915050565b60006080820190506132f06000830187612c6f565b6132fd6020830186612b83565b61330a6040830185612b83565b6133176060830184612b83565b95945050505050565b600060e082019050613335600083018a612bc4565b81810360208301526133478189612c2a565b90506133566040830188612b83565b81810360608301526133688187612c2a565b9050818103608083015261337c8186612c2a565b905061338b60a0830185612c6f565b61339860c0830184612bc4565b98975050505050505050565b7f4e487b7100000000000000000000000000000000000000000000000000000000600052602260045260246000fd5b600060028204905060018216806133eb57607f821691505b6020821081036133fe576133fd6133a4565b5b50919050565b7f5573657220616c72656164792072656769737465726564000000000000000000600082015250565b600061343a601783612bde565b915061344582613404565b602082019050919050565b600060208201905081810360008301526134698161342d565b9050919050565b60008190508160005260206000209050919050565b60006020601f8301049050919050565b600082821b905092915050565b6000600883026134d27fffffffffffffffffffffffffffffffffffffffffffffffffffffffffffffffff82613495565b6134dc8683613495565b95508019841693508086168417925050509392505050565b600061350f61350a61350584612b20565b613261565b612b20565b9050919050565b6000819050919050565b613529836134f4565b61353d61353582613516565b8484546134a2565b825550505050565b600090565b613552613545565b61355d818484613520565b505050565b5b818110156135815761357660008261354a565b600181019050613563565b5050565b601f8211156135c65761359781613470565b6135a084613485565b810160208510156135af578190505b6135c36135bb85613485565b830182613562565b50505b505050565b600082821c905092915050565b60006135e9600019846008026135cb565b1980831691505092915050565b600061360283836135d8565b9150826002028217905092915050565b61361b82612bd3565b67ffffffffffffffff81111561363457613633612dd5565b5b61363e82546133d3565b613649828285613585565b600060209050601f83116001811461367c576000841561366a578287015190505b61367485826135f6565b8655506136dc565b601f19841661368a86613470565b60005b828110156136b25784890151825560018201915060208501945060208101905061368d565b868310156136cf57848901516136cb601f8916826135d8565b8355505b6001600288020188555050505b505050505050565b600060408201905081810360008301526136fe8185612c2a565b905081810360208301526137128184612c2a565b90509392505050565b7f4167656e7420616c726561647920726567697374657265640000000000000000600082015250565b6000613751601883612bde565b915061375c8261371b565b602082019050919050565b6000602082019050818103600083015261378081613744565b9050919050565b6000819050919050565b60006137ac6137a76137a284613787565b613261565b612b20565b9050919050565b6137bc81613791565b82525050565b60006040820190506137d76000830185612bc4565b6137e460208301846137b3565b9392505050565b600060208201905061380060008301846137b3565b92915050565b7f4e6f742061207665726966696564206167656e74000000000000000000000000600082015250565b600061383c601483612bde565b915061384782613806565b602082019050919050565b6000602082019050818103600083015261386b8161382f565b9050919050565b7f4e487b7100000000000000000000000000000000000000000000000000000000600052601260045260246000fd5b7f4e487b7100000000000000000000000000000000000000000000000000000000600052601160045260246000fd5b60006138db82612b20565b91506138e683612b20565b9250826138f6576138f5613872565b5b828204905092915050565b600061390c82612b20565b915061391783612b20565b925082820190508082111561392f5761392e6138a1565b5b92915050565b7f5265706f727420616c72656164792070726f6365737365640000000000000000600082015250565b600061396b601883612bde565b915061397682613935565b602082019050919050565b6000602082019050818103600083015261399a8161395e565b9050919050565b7f496e76616c6964207265706f7274000000000000000000000000000000000000600082015250565b60006139d7600e83612bde565b91506139e2826139a1565b602082019050919050565b60006020820190508181036000830152613a06816139ca565b9050919050565b600081519050613a1c81612b2a565b92915050565b600060208284031215613a3857613a37612b16565b5b6000613a4684828501613a0d565b91505092915050565b7f496e73756666696369656e7420746f6b656e2062616c616e636520746f20726560008201527f7761726420757365720000000000000000000000000000000000000000000000602082015250565b6000613aab602983612bde565b9150613ab682613a4f565b604082019050919050565b60006020820190508181036000830152613ada81613a9e565b9050919050565b6000613aec82612b20565b91507fffffffffffffffffffffffffffffffffffffffffffffffffffffffffffffffff8203613b1e57613b1d6138a1565b5b600182019050919050565b6000606082019050613b3e6000830186612bc4565b613b4b6020830185612bc4565b613b586040830184612b83565b949350505050565b613b6981612c63565b8114613b7457600080fd5b50565b600081519050613b8681613b60565b92915050565b600060208284031215613ba257613ba1612b16565b5b6000613bb084828501613b77565b91505092915050565b7f546f6b656e207472616e73666572206661696c65640000000000000000000000600082015250565b6000613bef601583612bde565b9150613bfa82613bb9565b602082019050919050565b60006020820190508181036000830152613c1e81613be2565b9050919050565b6000604082019050613c3a6000830185612bc4565b613c476020830184612b83565b9392505050565b7f52656a656374696f6e20726561736f6e20726571756972656400000000000000600082015250565b6000613c84601983612bde565b9150613c8f82613c4e565b602082019050919050565b60006020820190508181036000830152613cb381613c77565b9050919050565b60006020820190508181036000830152613cd48184612c2a565b905092915050565b7f55736572206e6f74207265676973746572656400000000000000000000000000600082015250565b6000613d12601383612bde565b9150613d1d82613cdc565b602082019050919050565b60006020820190508181036000830152613d4181613d05565b9050919050565b6000613d5382612b20565b9150613d5e83612b20565b9250828202613d6c81612b20565b91508282048414831517613d8357613d826138a1565b5b5092915050565b7f4f776e61626c653a206e6577206f776e657220697320746865207a65726f206160008201527f6464726573730000000000000000000000000000000000000000000000000000602082015250565b6000613de6602683612bde565b9150613df182613d8a565b604082019050919050565b60006020820190508181036000830152613e1581613dd9565b9050919050565b7f4f776e61626c653a2063616c6c6572206973206e6f7420746865206f776e6572600082015250565b6000613e52602083612bde565b9150613e5d82613e1c565b602082019050919050565b60006020820190508181036000830152613e8181613e45565b905091905056fea26469706673582212203f47576efc07ff4c9bddf47c82826be4f8df0cdf3016790ce079e87dceccbfd864736f6c634300081c0033",
  "linkReferences": {},
  "deployedLinkReferences": {}
}