{
  "_format": "hh-sol-artifact-1",
  "contractName": "WasteVanToken",
  "sourceName": "contracts/WasteVanToken.sol",
  "abi": [
    {
      "inputs": [],
      "stateMutability": "nonpayable",
      "type": "constructor"
    },
    {
      "anonymous": false,
      "inputs": [
        {
          "indexed": true,
          "internalType": "address",
          "name": "owner",
          "type": "address"
        },
        {
          "indexed": true,
          "internalType": "address",
          "name": "spender",
          "type": "address"
        },
        {
          "indexed": false,
          "internalType": "uint256",
          "name": "value",
          "type": "uint256"
        }
      ],
      "name": "Approval",
      "type": "event"
    },
    {
      "anonymous": false,
      "inputs": [
        {
          "indexed": true,
          "internalType": "address",
          "name": "minter",
          "type": "address"
        }
      ],
      "name": "MinterAdded",
      "type": "event"
    },
    {
      "anonymous": false,
      "inputs": [
        {
          "indexed": true,
          "internalType": "address",
          "name": "minter",
          "type": "address"
        }
      ],
      "name": "MinterRemoved",
      "type": "event"
    },
    {
      "anonymous": false,
      "inputs": [
        {
          "indexed": true,
          "internalType": "address",
          "name": "previousOwner",
          "type": "address"
        },
        {
          "indexed": true,
          "internalType": "address",
          "name": "newOwner",
          "type": "address"
        }
      ],
      "name": "OwnershipTransferred",
      "type": "event"
    },
    {
      "anonymous": false,
      "inputs": [
        {
          "indexed": true,
          "internalType": "address",
          "name": "from",
          "type": "address"
        },
        {
          "indexed": true,
          "internalType": "address",
          "name": "to",
          "type": "address"
        },
        {
          "indexed": false,
          "internalType": "uint256",
          "name": "value",
          "type": "uint256"
        }
      ],
      "name": "Transfer",
      "type": "event"
    },
    {
      "inputs": [
        {
          "internalType": "address",
          "name": "minter",
          "type": "address"
        }
      ],
      "name": "addMinter",
      "outputs": [],
      "stateMutability": "nonpayable",
      "type": "function"
    },
    {
      "inputs": [
        {
          "internalType": "address",
          "name": "owner",
          "type": "address"
        },
        {
          "internalType": "address",
          "name": "spender",
          "type": "address"
        }
      ],
      "name": "allowance",
      "outputs": [
        {
          "internalType": "uint256",
          "name": "",
          "type": "uint256"
        }
      ],
      "stateMutability": "view",
      "type": "function"
    },
    {
      "inputs": [
        {
          "internalType": "address",
          "name": "spender",
          "type": "address"
        },
        {
          "internalType": "uint256",
          "name": "amount",
          "type": "uint256"
        }
      ],
      "name": "approve",
      "outputs": [
        {
          "internalType": "bool",
          "name": "",
          "type": "bool"
        }
      ],
      "stateMutability": "nonpayable",
      "type": "function"
    },
    {
      "inputs": [
        {
          "internalType": "address",
          "name": "account",
          "type": "address"
        }
      ],
      "name": "balanceOf",
      "outputs": [
        {
          "internalType": "uint256",
          "name": "",
          "type": "uint256"
        }
      ],
      "stateMutability": "view",
      "type": "function"
    },
    {
      "inputs": [
        {
          "internalType": "uint256",
          "name": "amount",
          "type": "uint256"
        }
      ],
      "name": "burn",
      "outputs": [],
      "stateMutability": "nonpayable",
      "type": "function"
    },
    {
      "inputs": [],
      "name": "decimals",
      "outputs": [
        {
          "internalType": "uint8",
          "name": "",
          "type": "uint8"
        }
      ],
      "stateMutability": "view",
      "type": "function"
    },
    {
      "inputs": [
        {
          "internalType": "address",
          "name": "spender",
          "type": "address"
        },
        {
          "internalType": "uint256",
          "name": "subtractedValue",
          "type": "uint256"
        }
      ],
      "name": "decreaseAllowance",
      "outputs": [
        {
          "internalType": "bool",
          "name": "",
          "type": "bool"
        }
      ],
      "stateMutability": "nonpayable",
      "type": "function"
    },
    {
      "inputs": [
        {
          "internalType": "address",
          "name": "spender",
          "type": "address"
        },
        {
          "internalType": "uint256",
          "name": "addedValue",
          "type": "uint256"
        }
      ],
      "name": "increaseAllowance",
      "outputs": [
        {
          "internalType": "bool",
          "name": "",
          "type": "bool"
        }
      ],
      "stateMutability": "nonpayable",
      "type": "function"
    },
    {
      "inputs": [
        {
          "internalType": "address",
          "name": "to",
          "type": "address"
        },
        {
          "internalType": "uint256",
          "name": "amount",
          "type": "uint256"
        }
      ],
      "name": "mint",
      "outputs": [],
      "stateMutability": "nonpayable",
      "type": "function"
    },
    {
      "inputs": [
        {
          "internalType": "address",
          "name": "",
          "type": "address"
        }
      ],
      "name": "minters",
      "outputs": [
        {
          "internalType": "bool",
          "name": "",
          "type": "bool"
        }
      ],
      "stateMutability": "view",
      "type": "function"
    },
    {
      "inputs": [],
      "name": "name",
      "outputs": [
        {
          "internalType": "string",
          "name": "",
          "type": "string"
        }
      ],
      "stateMutability": "view",
      "type": "function"
    },
    {
      "inputs": [],
      "name": "owner",
      "outputs": [
        {
          "internalType": "address",
          "name": "",
          "type": "address"
        }
      ],
      "stateMutability": "view",
      "type": "function"
    },
    {
      "inputs": [
        {
          "internalType": "address",
          "name": "minter",
          "type": "address"
        }
      ],
      "name": "removeMinter",
      "outputs": [],
      "stateMutability": "nonpayable",
      "type": "function"
    },
    {
      "inputs": [],
      "name": "renounceOwnership",
      "outputs": [],
      "stateMutability": "nonpayable",
      "type": "function"
    },
    {
      "inputs": [],
      "name": "symbol",
      "outputs": [
        {
          "internalType": "string",
          "name": "",
          "type": "string"
        }
      ],
      "stateMutability": "view",
      "type": "function"
    },
    {
      "inputs": [],
      "name": "totalSupply",
      "outputs": [
        {
          "internalType": "uint256",
          "name": "",
          "type": "uint256"
        }
      ],
      "stateMutability": "view",
      "type": "function"
    },
    {
      "inputs": [
        {
          "internalType": "address",
          "name": "to",
          "type": "address"
        },
        {
          "internalType": "uint256",
          "name": "amount",
          "type": "uint256"
        }
      ],
      "name": "transfer",
      "outputs": [
        {
          "internalType": "bool",
          "name": "",
          "type": "bool"
        }
      ],
      "stateMutability": "nonpayable",
      "type": "function"
    },
    {
      "inputs": [
        {
          "internalType": "address",
          "name": "from",
          "type": "address"
        },
        {
          "internalType": "address",
          "name": "to",
          "type": "address"
        },
        {
          "internalType": "uint256",
          "name": "amount",
          "type": "uint256"
        }
      ],
      "name": "transferFrom",
      "outputs": [
        {
          "internalType": "bool",
          "name": "",
          "type": "bool"
        }
      ],
      "stateMutability": "nonpayable",
      "type": "function"
    },
    {
      "inputs": [
        {
          "internalType": "address",
          "name": "from",
          "type": "address"
        },
        {
          "internalType": "address",
          "name": "to",
          "type": "address"
        },
        {
          "internalType": "uint256",
          "name": "amount",
          "type": "uint256"
        }
      ],
      "name": "transferFromAgent",
      "outputs": [
        {
          "internalType": "bool",
          "name": "",
          "type": "bool"
        }
      ],
      "stateMutability": "nonpayable",
      "type": "function"
    },
    {
      "inputs": [
        {
          "internalType": "address",
          "name": "newOwner",
          "type": "address"
        }
      ],
      "name": "transferOwnership",
      "outputs": [],
      "stateMutability": "nonpayable",
      "type": "function"
    }
  ],
  "bytecode": "0x608060405234801561001057600080fd5b506040518060400160405280600e81526020016d2bb0b9ba32ab30b7102a37b5b2b760911b8152506040518060400160405280600381526020016215d59560ea1b8152508160039081610063919061026c565b506004610070828261026c565b5050506100896100846100b060201b60201c565b6100b4565b6100ab336100996012600a610429565b6100a690620f424061043f565b610106565b610469565b3390565b600580546001600160a01b038381166001600160a01b0319831681179093556040519116919082907f8be0079c531659141344cd1fd0a4f28419497f9722a3daafe3b4186f6b6457e090600090a35050565b6001600160a01b0382166101605760405162461bcd60e51b815260206004820152601f60248201527f45524332303a206d696e7420746f20746865207a65726f206164647265737300604482015260640160405180910390fd5b80600260008282546101729190610456565b90915550506001600160a01b038216600081815260208181526040808320805486019055518481527fddf252ad1be2c89b69c2b068fc378daa952ba7f163c4a11628f55a4df523b3ef910160405180910390a35050565b505050565b634e487b7160e01b600052604160045260246000fd5b600181811c908216806101f857607f821691505b60208210810361021857634e487b7160e01b600052602260045260246000fd5b50919050565b601f8211156101c957806000526020600020601f840160051c810160208510156102455750805b601f840160051c820191505b818110156102655760008155600101610251565b5050505050565b81516001600160401b03811115610285576102856101ce565b6102998161029384546101e4565b8461021e565b6020601f8211600181146102cd57600083156102b55750848201515b600019600385901b1c1916600184901b178455610265565b600084815260208120601f198516915b828110156102fd57878501518255602094850194600190920191016102dd565b508482101561031b5786840151600019600387901b60f8161c191681555b50505050600190811b01905550565b634e487b7160e01b600052601160045260246000fd5b6001815b600184111561037b5780850481111561035f5761035f61032a565b600184161561036d57908102905b60019390931c928002610344565b935093915050565b60008261039257506001610423565b8161039f57506000610423565b81600181146103b557600281146103bf576103db565b6001915050610423565b60ff8411156103d0576103d061032a565b50506001821b610423565b5060208310610133831016604e8410600b84101617156103fe575081810a610423565b61040b6000198484610340565b806000190482111561041f5761041f61032a565b0290505b92915050565b600061043860ff841683610383565b9392505050565b80820281158282048414176104235761042361032a565b808201808211156104235761042361032a565b610edd806104786000396000f3fe608060405234801561001057600080fd5b506004361061012c5760003560e01c806370a08231116100ad578063a457c2d711610071578063a457c2d71461026e578063a9059cbb14610281578063dd62ed3e14610294578063f2fde38b146102a7578063f46eccc4146102ba57600080fd5b806370a0823114610207578063715018a6146102305780638da5cb5b1461023857806395d89b4114610253578063983b2d561461025b57600080fd5b8063313ce567116100f4578063313ce567146101ac57806339509351146101bb57806340c10f19146101ce57806342966c68146101e15780635a46321c146101f457600080fd5b806306fdde0314610131578063095ea7b31461014f57806318160ddd1461017257806323b872dd146101845780633092afd514610197575b600080fd5b6101396102dd565b6040516101469190610d0d565b60405180910390f35b61016261015d366004610d77565b61036f565b6040519015158152602001610146565b6002545b604051908152602001610146565b610162610192366004610da1565b610389565b6101aa6101a5366004610dde565b6103ad565b005b60405160128152602001610146565b6101626101c9366004610d77565b6103fe565b6101aa6101dc366004610d77565b610420565b6101aa6101ef366004610e00565b6104a0565b610162610202366004610da1565b6104ad565b610176610215366004610dde565b6001600160a01b031660009081526020819052604090205490565b6101aa610594565b6005546040516001600160a01b039091168152602001610146565b6101396105a8565b6101aa610269366004610dde565b6105b7565b61016261027c366004610d77565b61060b565b61016261028f366004610d77565b610686565b6101766102a2366004610e19565b610694565b6101aa6102b5366004610dde565b6106bf565b6101626102c8366004610dde565b60066020526000908152604090205460ff1681565b6060600380546102ec90610e4c565b80601f016020809104026020016040519081016040528092919081815260200182805461031890610e4c565b80156103655780601f1061033a57610100808354040283529160200191610365565b820191906000526020600020905b81548152906001019060200180831161034857829003601f168201915b5050505050905090565b60003361037d818585610735565b60019150505b92915050565b60003361039785828561085a565b6103a28585856108d4565b506001949350505050565b6103b5610a78565b6001600160a01b038116600081815260066020526040808220805460ff19169055517fe94479a9f7e1952cc78f2d6baab678adc1b772d936c6583def489e524cb666929190a250565b60003361037d8185856104118383610694565b61041b9190610e86565b610735565b3360009081526006602052604090205460ff168061044857506005546001600160a01b031633145b6104925760405162461bcd60e51b8152602060048201526016602482015275139bdd08185d5d1a1bdc9a5e9959081d1bc81b5a5b9d60521b60448201526064015b60405180910390fd5b61049c8282610ad2565b5050565b6104aa3382610b91565b50565b3360009081526006602052604081205460ff16806104d557506005546001600160a01b031633145b61051a5760405162461bcd60e51b8152602060048201526016602482015275139bdd08185d5d1a1bdc9a5e9959081d1bc81b5a5b9d60521b6044820152606401610489565b8161053a856001600160a01b031660009081526020819052604090205490565b101561057f5760405162461bcd60e51b8152602060048201526014602482015273496e73756666696369656e742062616c616e636560601b6044820152606401610489565b61058a8484846108d4565b5060019392505050565b61059c610a78565b6105a66000610cbb565b565b6060600480546102ec90610e4c565b6105bf610a78565b6001600160a01b038116600081815260066020526040808220805460ff19166001179055517f6ae172837ea30b801fbfcdd4108aa1d5bf8ff775444fd70256b44e6bf3dfc3f69190a250565b600033816106198286610694565b9050838110156106795760405162461bcd60e51b815260206004820152602560248201527f45524332303a2064656372656173656420616c6c6f77616e63652062656c6f77604482015264207a65726f60d81b6064820152608401610489565b6103a28286868403610735565b60003361037d8185856108d4565b6001600160a01b03918216600090815260016020908152604080832093909416825291909152205490565b6106c7610a78565b6001600160a01b03811661072c5760405162461bcd60e51b815260206004820152602660248201527f4f776e61626c653a206e6577206f776e657220697320746865207a65726f206160448201526564647265737360d01b6064820152608401610489565b6104aa81610cbb565b6001600160a01b0383166107975760405162461bcd60e51b8152602060048201526024808201527f45524332303a20617070726f76652066726f6d20746865207a65726f206164646044820152637265737360e01b6064820152608401610489565b6001600160a01b0382166107f85760405162461bcd60e51b815260206004820152602260248201527f45524332303a20617070726f766520746f20746865207a65726f206164647265604482015261737360f01b6064820152608401610489565b6001600160a01b0383811660008181526001602090815260408083209487168084529482529182902085905590518481527f8c5be1e5ebec7d5bd14f71427d1e84f3dd0314c0f7b2291e5b200ac8c7c3b92591015b60405180910390a3505050565b60006108668484610694565b905060001981146108ce57818110156108c15760405162461bcd60e51b815260206004820152601d60248201527f45524332303a20696e73756666696369656e7420616c6c6f77616e63650000006044820152606401610489565b6108ce8484848403610735565b50505050565b6001600160a01b0383166109385760405162461bcd60e51b815260206004820152602560248201527f45524332303a207472616e736665722066726f6d20746865207a65726f206164604482015264647265737360d81b6064820152608401610489565b6001600160a01b03821661099a5760405162461bcd60e51b815260206004820152602360248201527f45524332303a207472616e7366657220746f20746865207a65726f206164647260448201526265737360e81b6064820152608401610489565b6001600160a01b03831660009081526020819052604090205481811015610a125760405162461bcd60e51b815260206004820152602660248201527f45524332303a207472616e7366657220616d6f756e7420657863656564732062604482015265616c616e636560d01b6064820152608401610489565b6001600160a01b03848116600081815260208181526040808320878703905593871680835291849020805487019055925185815290927fddf252ad1be2c89b69c2b068fc378daa952ba7f163c4a11628f55a4df523b3ef910160405180910390a36108ce565b6005546001600160a01b031633146105a65760405162461bcd60e51b815260206004820181905260248201527f4f776e61626c653a2063616c6c6572206973206e6f7420746865206f776e65726044820152606401610489565b6001600160a01b038216610b285760405162461bcd60e51b815260206004820152601f60248201527f45524332303a206d696e7420746f20746865207a65726f2061646472657373006044820152606401610489565b8060026000828254610b3a9190610e86565b90915550506001600160a01b038216600081815260208181526040808320805486019055518481527fddf252ad1be2c89b69c2b068fc378daa952ba7f163c4a11628f55a4df523b3ef910160405180910390a35050565b6001600160a01b038216610bf15760405162461bcd60e51b815260206004820152602160248201527f45524332303a206275726e2066726f6d20746865207a65726f206164647265736044820152607360f81b6064820152608401610489565b6001600160a01b03821660009081526020819052604090205481811015610c655760405162461bcd60e51b815260206004820152602260248201527f45524332303a206275726e20616d6f756e7420657863656564732062616c616e604482015261636560f01b6064820152608401610489565b6001600160a01b0383166000818152602081815260408083208686039055600280548790039055518581529192917fddf252ad1be2c89b69c2b068fc378daa952ba7f163c4a11628f55a4df523b3ef910161084d565b600580546001600160a01b038381166001600160a01b0319831681179093556040519116919082907f8be0079c531659141344cd1fd0a4f28419497f9722a3daafe3b4186f6b6457e090600090a35050565b602081526000825180602084015260005b81811015610d3b5760208186018101516040868401015201610d1e565b506000604082850101526040601f19601f83011684010191505092915050565b80356001600160a01b0381168114610d7257600080fd5b919050565b60008060408385031215610d8a57600080fd5b610d9383610d5b565b946020939093013593505050565b600080600060608486031215610db657600080fd5b610dbf84610d5b565b9250610dcd60208501610d5b565b929592945050506040919091013590565b600060208284031215610df057600080fd5b610df982610d5b565b9392505050565b600060208284031215610e1257600080fd5b5035919050565b60008060408385031215610e2c57600080fd5b610e3583610d5b565b9150610e4360208401610d5b565b90509250929050565b600181811c90821680610e6057607f821691505b602082108103610e8057634e487b7160e01b600052602260045260246000fd5b50919050565b8082018082111561038357634e487b7160e01b600052601160045260246000fdfea2646970667358221220717c0854aa6531c8f45219c7b1db7725c428ebbe0575955a06dc77c2e706e9e564736f6c634300081c0033",
  "linkReferences": {},
  "deployedLinkReferences": {}
}