{
  "_format": "hh-sol-artifact-1",
  "contractName": "WasteVanToken",
  "sourceName": "contracts/WasteVanToken.sol",
  "abi": [
    {
      "inputs": [],
      "stateMutability": "nonpayable",
      "type": "constructor"
    },
    {
      "anonymous": false,
      "inputs": [
        {
          "indexed": true,
          "internalType": "address",
          "name": "owner",
          "type": "address"
        },
        {
          "indexed": true,
          "internalType": "address",
          "name": "spender",
          "type": "address"
        },
        {
          "indexed": false,
          "internalType": "uint256",
          "name": "value",
          "type": "uint256"
        }
      ],
      "name": "Approval",
      "type": "event"
    },
    {
      "anonymous": false,
      "inputs": [
        {
          "indexed": true,
          "internalType": "address",
          "name": "minter",
          "type": "address"
        }
      ],
      "name": "MinterAdded",
      "type": "event"
    },
    {
      "anonymous": false,
      "inputs": [
        {
          "indexed": true,
          "internalType": "address",
          "name": "minter",
          "type": "address"
        }
      ],
      "name": "MinterRemoved",
      "type": "event"
    },
    {
      "anonymous": false,
      "inputs": [
        {
          "indexed": true,
          "internalType": "address",
          "name": "previousOwner",
          "type": "address"
        },
        {
          "indexed": true,
          "internalType": "address",
          "name": "newOwner",
          "type": "address"
        }
      ],
      "name": "OwnershipTransferred",
      "type": "event"
    },
    {
      "anonymous": false,
      "inputs": [
        {
          "indexed": true,
          "internalType": "address",
          "name": "from",
          "type": "address"
        },
        {
          "indexed": true,
          "internalType": "address",
          "name": "to",
          "type": "address"
        },
        {
          "indexed": false,
          "internalType": "uint256",
          "name": "value",
          "type": "uint256"
        }
      ],
      "name": "Transfer",
      "type": "event"
    },
    {
      "inputs": [
        {
          "internalType": "address",
          "name": "minter",
          "type": "address"
        }
      ],
      "name": "addMinter",
      "outputs": [],
      "stateMutability": "nonpayable",
      "type": "function"
    },
    {
      "inputs": [
        {
          "internalType": "address",
          "name": "owner",
          "type": "address"
        },
        {
          "internalType": "address",
          "name": "spender",
          "type": "address"
        }
      ],
      "name": "allowance",
      "outputs": [
        {
          "internalType": "uint256",
          "name": "",
          "type": "uint256"
        }
      ],
      "stateMutability": "view",
      "type": "function"
    },
    {
      "inputs": [
        {
          "internalType": "address",
          "name": "spender",
          "type": "address"
        },
        {
          "internalType": "uint256",
          "name": "amount",
          "type": "uint256"
        }
      ],
      "name": "approve",
      "outputs": [
        {
          "internalType": "bool",
          "name": "",
          "type": "bool"
        }
      ],
      "stateMutability": "nonpayable",
      "type": "function"
    },
    {
      "inputs": [
        {
          "internalType": "address",
          "name": "account",
          "type": "address"
        }
      ],
      "name": "balanceOf",
      "outputs": [
        {
          "internalType": "uint256",
          "name": "",
          "type": "uint256"
        }
      ],
      "stateMutability": "view",
      "type": "function"
    },
    {
      "inputs": [
        {
          "internalType": "uint256",
          "name": "amount",
          "type": "uint256"
        }
      ],
      "name": "burn",
      "outputs": [],
      "stateMutability": "nonpayable",
      "type": "function"
    },
    {
      "inputs": [],
      "name": "decimals",
      "outputs": [
        {
          "internalType": "uint8",
          "name": "",
          "type": "uint8"
        }
      ],
      "stateMutability": "view",
      "type": "function"
    },
    {
      "inputs": [
        {
          "internalType": "address",
          "name": "spender",
          "type": "address"
        },
        {
          "internalType": "uint256",
          "name": "subtractedValue",
          "type": "uint256"
        }
      ],
      "name": "decreaseAllowance",
      "outputs": [
        {
          "internalType": "bool",
          "name": "",
          "type": "bool"
        }
      ],
      "stateMutability": "nonpayable",
      "type": "function"
    },
    {
      "inputs": [
        {
          "internalType": "address",
          "name": "spender",
          "type": "address"
        },
        {
          "internalType": "uint256",
          "name": "addedValue",
          "type": "uint256"
        }
      ],
      "name": "increaseAllowance",
      "outputs": [
        {
          "internalType": "bool",
          "name": "",
          "type": "bool"
        }
      ],
      "stateMutability": "nonpayable",
      "type": "function"
    },
    {
      "inputs": [
        {
          "internalType": "address",
          "name": "to",
          "type": "address"
        },
        {
          "internalType": "uint256",
          "name": "amount",
          "type": "uint256"
        }
      ],
      "name": "mint",
      "outputs": [],
      "stateMutability": "nonpayable",
      "type": "function"
    },
    {
      "inputs": [
        {
          "internalType": "address",
          "name": "",
          "type": "address"
        }
      ],
      "name": "minters",
      "outputs": [
        {
          "internalType": "bool",
          "name": "",
          "type": "bool"
        }
      ],
      "stateMutability": "view",
      "type": "function"
    },
    {
      "inputs": [],
      "name": "name",
      "outputs": [
        {
          "internalType": "string",
          "name": "",
          "type": "string"
        }
      ],
      "stateMutability": "view",
      "type": "function"
    },
    {
      "inputs": [],
      "name": "owner",
      "outputs": [
        {
          "internalType": "address",
          "name": "",
          "type": "address"
        }
      ],
      "stateMutability": "view",
      "type": "function"
    },
    {
      "inputs": [
        {
          "internalType": "address",
          "name": "minter",
          "type": "address"
        }
      ],
      "name": "removeMinter",
      "outputs": [],
      "stateMutability": "nonpayable",
      "type": "function"
    },
    {
      "inputs": [],
      "name": "renounceOwnership",
      "outputs": [],
      "stateMutability": "nonpayable",
      "type": "function"
    },
    {
      "inputs": [],
      "name": "symbol",
      "outputs": [
        {
          "internalType": "string",
          "name": "",
          "type": "string"
        }
      ],
      "stateMutability": "view",
      "type": "function"
    },
    {
      "inputs": [],
      "name": "totalSupply",
      "outputs": [
        {
          "internalType": "uint256",
          "name": "",
          "type": "uint256"
        }
      ],
      "stateMutability": "view",
      "type": "function"
    },
    {
      "inputs": [
        {
          "internalType": "address",
          "name": "to",
          "type": "address"
        },
        {
          "internalType": "uint256",
          "name": "amount",
          "type": "uint256"
        }
      ],
      "name": "transfer",
      "outputs": [
        {
          "internalType": "bool",
          "name": "",
          "type": "bool"
        }
      ],
      "stateMutability": "nonpayable",
      "type": "function"
    },
    {
      "inputs": [
        {
          "internalType": "address",
          "name": "from",
          "type": "address"
        },
        {
          "internalType": "address",
          "name": "to",
          "type": "address"
        },
        {
          "internalType": "uint256",
          "name": "amount",
          "type": "uint256"
        }
      ],
      "name": "transferFrom",
      "outputs": [
        {
          "internalType": "bool",
          "name": "",
          "type": "bool"
        }
      ],
      "stateMutability": "nonpayable",
      "type": "function"
    },
    {
      "inputs": [
        {
          "internalType": "address",
          "name": "from",
          "type": "address"
        },
        {
          "internalType": "address",
          "name": "to",
          "type": "address"
        },
        {
          "internalType": "uint256",
          "name": "amount",
          "type": "uint256"
        }
      ],
      "name": "transferFromAgent",
      "outputs": [
        {
          "internalType": "bool",
          "name": "",
          "type": "bool"
        }
      ],
      "stateMutability": "nonpayable",
      "type": "function"
    },
    {
      "inputs": [
        {
          "internalType": "address",
          "name": "newOwner",
          "type": "address"
        }
      ],
      "name": "transferOwnership",
      "outputs": [],
      "stateMutability": "nonpayable",
      "type": "function"
    }
  ],
  "bytecode": "0x608060405234801561001057600080fd5b506040518060400160405280600e81526020017f576173746556616e20546f6b656e0000000000000000000000000000000000008152506040518060400160405280600381526020017f5756540000000000000000000000000000000000000000000000000000000000815250816003908161008c919061058a565b50806004908161009c919061058a565b5050506100bb6100b06100f760201b60201c565b6100ff60201b60201c565b6100f2336100cd6101c560201b60201c565b600a6100d991906107cb565b620f42406100e79190610816565b6101ce60201b60201c565b610933565b600033905090565b6000600560009054906101000a900473ffffffffffffffffffffffffffffffffffffffff16905081600560006101000a81548173ffffffffffffffffffffffffffffffffffffffff021916908373ffffffffffffffffffffffffffffffffffffffff1602179055508173ffffffffffffffffffffffffffffffffffffffff168173ffffffffffffffffffffffffffffffffffffffff167f8be0079c531659141344cd1fd0a4f28419497f9722a3daafe3b4186f6b6457e060405160405180910390a35050565b60006012905090565b600073ffffffffffffffffffffffffffffffffffffffff168273ffffffffffffffffffffffffffffffffffffffff160361023d576040517f08c379a0000000000000000000000000000000000000000000000000000000008152600401610234906108b5565b60405180910390fd5b61024f6000838361033060201b60201c565b806002600082825461026191906108d5565b92505081905550806000808473ffffffffffffffffffffffffffffffffffffffff1673ffffffffffffffffffffffffffffffffffffffff168152602001908152602001600020600082825401925050819055508173ffffffffffffffffffffffffffffffffffffffff16600073ffffffffffffffffffffffffffffffffffffffff167fddf252ad1be2c89b69c2b068fc378daa952ba7f163c4a11628f55a4df523b3ef836040516103129190610918565b60405180910390a361032c6000838361033560201b60201c565b5050565b505050565b505050565b600081519050919050565b7f4e487b7100000000000000000000000000000000000000000000000000000000600052604160045260246000fd5b7f4e487b7100000000000000000000000000000000000000000000000000000000600052602260045260246000fd5b600060028204905060018216806103bb57607f821691505b6020821081036103ce576103cd610374565b5b50919050565b60008190508160005260206000209050919050565b60006020601f8301049050919050565b600082821b905092915050565b6000600883026104367fffffffffffffffffffffffffffffffffffffffffffffffffffffffffffffffff826103f9565b61044086836103f9565b95508019841693508086168417925050509392505050565b6000819050919050565b6000819050919050565b600061048761048261047d84610458565b610462565b610458565b9050919050565b6000819050919050565b6104a18361046c565b6104b56104ad8261048e565b848454610406565b825550505050565b600090565b6104ca6104bd565b6104d5818484610498565b505050565b5b818110156104f9576104ee6000826104c2565b6001810190506104db565b5050565b601f82111561053e5761050f816103d4565b610518846103e9565b81016020851015610527578190505b61053b610533856103e9565b8301826104da565b50505b505050565b600082821c905092915050565b600061056160001984600802610543565b1980831691505092915050565b600061057a8383610550565b9150826002028217905092915050565b6105938261033a565b67ffffffffffffffff8111156105ac576105ab610345565b5b6105b682546103a3565b6105c18282856104fd565b600060209050601f8311600181146105f457600084156105e2578287015190505b6105ec858261056e565b865550610654565b601f198416610602866103d4565b60005b8281101561062a57848901518255600182019150602085019450602081019050610605565b868310156106475784890151610643601f891682610550565b8355505b6001600288020188555050505b505050505050565b7f4e487b7100000000000000000000000000000000000000000000000000000000600052601160045260246000fd5b60008160011c9050919050565b6000808291508390505b60018511156106e2578086048111156106be576106bd61065c565b5b60018516156106cd5780820291505b80810290506106db8561068b565b94506106a2565b94509492505050565b6000826106fb57600190506107b7565b8161070957600090506107b7565b816001811461071f576002811461072957610758565b60019150506107b7565b60ff84111561073b5761073a61065c565b5b8360020a9150848211156107525761075161065c565b5b506107b7565b5060208310610133831016604e8410600b841016171561078d5782820a9050838111156107885761078761065c565b5b6107b7565b61079a8484846001610698565b925090508184048111156107b1576107b061065c565b5b81810290505b9392505050565b600060ff82169050919050565b60006107d682610458565b91506107e1836107be565b925061080e7fffffffffffffffffffffffffffffffffffffffffffffffffffffffffffffffff84846106eb565b905092915050565b600061082182610458565b915061082c83610458565b925082820261083a81610458565b915082820484148315176108515761085061065c565b5b5092915050565b600082825260208201905092915050565b7f45524332303a206d696e7420746f20746865207a65726f206164647265737300600082015250565b600061089f601f83610858565b91506108aa82610869565b602082019050919050565b600060208201905081810360008301526108ce81610892565b9050919050565b60006108e082610458565b91506108eb83610458565b92508282019050808211156109035761090261065c565b5b92915050565b61091281610458565b82525050565b600060208201905061092d6000830184610909565b92915050565b612027806109426000396000f3fe608060405234801561001057600080fd5b506004361061012c5760003560e01c806370a08231116100ad578063a457c2d711610071578063a457c2d714610331578063a9059cbb14610361578063dd62ed3e14610391578063f2fde38b146103c1578063f46eccc4146103dd5761012c565b806370a082311461029f578063715018a6146102cf5780638da5cb5b146102d957806395d89b41146102f7578063983b2d56146103155761012c565b8063313ce567116100f4578063313ce567146101e9578063395093511461020757806340c10f191461023757806342966c68146102535780635a46321c1461026f5761012c565b806306fdde0314610131578063095ea7b31461014f57806318160ddd1461017f57806323b872dd1461019d5780633092afd5146101cd575b600080fd5b61013961040d565b6040516101469190611547565b60405180910390f35b61016960048036038101906101649190611602565b61049f565b604051610176919061165d565b60405180910390f35b6101876104c2565b6040516101949190611687565b60405180910390f35b6101b760048036038101906101b291906116a2565b6104cc565b6040516101c4919061165d565b60405180910390f35b6101e760048036038101906101e291906116f5565b6104fb565b005b6101f16105a1565b6040516101fe919061173e565b60405180910390f35b610221600480360381019061021c9190611602565b6105aa565b60405161022e919061165d565b60405180910390f35b610251600480360381019061024c9190611602565b6105e1565b005b61026d60048036038101906102689190611759565b6106b8565b005b610289600480360381019061028491906116a2565b6106c5565b604051610296919061165d565b60405180910390f35b6102b960048036038101906102b491906116f5565b6107f1565b6040516102c69190611687565b60405180910390f35b6102d7610839565b005b6102e161084d565b6040516102ee9190611795565b60405180910390f35b6102ff610877565b60405161030c9190611547565b60405180910390f35b61032f600480360381019061032a91906116f5565b610909565b005b61034b60048036038101906103469190611602565b6109af565b604051610358919061165d565b60405180910390f35b61037b60048036038101906103769190611602565b610a26565b604051610388919061165d565b60405180910390f35b6103ab60048036038101906103a691906117b0565b610a49565b6040516103b89190611687565b60405180910390f35b6103db60048036038101906103d691906116f5565b610ad0565b005b6103f760048036038101906103f291906116f5565b610b53565b604051610404919061165d565b60405180910390f35b60606003805461041c9061181f565b80601f01602080910402602001604051908101604052809291908181526020018280546104489061181f565b80156104955780601f1061046a57610100808354040283529160200191610495565b820191906000526020600020905b81548152906001019060200180831161047857829003601f168201915b5050505050905090565b6000806104aa610b73565b90506104b7818585610b7b565b600191505092915050565b6000600254905090565b6000806104d7610b73565b90506104e4858285610d44565b6104ef858585610dd0565b60019150509392505050565b610503611046565b6000600660008373ffffffffffffffffffffffffffffffffffffffff1673ffffffffffffffffffffffffffffffffffffffff16815260200190815260200160002060006101000a81548160ff0219169083151502179055508073ffffffffffffffffffffffffffffffffffffffff167fe94479a9f7e1952cc78f2d6baab678adc1b772d936c6583def489e524cb6669260405160405180910390a250565b60006012905090565b6000806105b5610b73565b90506105d68185856105c78589610a49565b6105d1919061187f565b610b7b565b600191505092915050565b600660003373ffffffffffffffffffffffffffffffffffffffff1673ffffffffffffffffffffffffffffffffffffffff16815260200190815260200160002060009054906101000a900460ff168061066b575061063c61084d565b73ffffffffffffffffffffffffffffffffffffffff163373ffffffffffffffffffffffffffffffffffffffff16145b6106aa576040517f08c379a00000000000000000000000000000000000000000000000000000000081526004016106a1906118ff565b60405180910390fd5b6106b482826110c4565b5050565b6106c2338261121a565b50565b6000600660003373ffffffffffffffffffffffffffffffffffffffff1673ffffffffffffffffffffffffffffffffffffffff16815260200190815260200160002060009054906101000a900460ff1680610751575061072261084d565b73ffffffffffffffffffffffffffffffffffffffff163373ffffffffffffffffffffffffffffffffffffffff16145b610790576040517f08c379a0000000000000000000000000000000000000000000000000000000008152600401610787906118ff565b60405180910390fd5b8161079a856107f1565b10156107db576040517f08c379a00000000000000000000000000000000000000000000000000000000081526004016107d29061196b565b60405180910390fd5b6107e6848484610dd0565b600190509392505050565b60008060008373ffffffffffffffffffffffffffffffffffffffff1673ffffffffffffffffffffffffffffffffffffffff168152602001908152602001600020549050919050565b610841611046565b61084b60006113e7565b565b6000600560009054906101000a900473ffffffffffffffffffffffffffffffffffffffff16905090565b6060600480546108869061181f565b80601f01602080910402602001604051908101604052809291908181526020018280546108b29061181f565b80156108ff5780601f106108d4576101008083540402835291602001916108ff565b820191906000526020600020905b8154815290600101906020018083116108e257829003601f168201915b5050505050905090565b610911611046565b6001600660008373ffffffffffffffffffffffffffffffffffffffff1673ffffffffffffffffffffffffffffffffffffffff16815260200190815260200160002060006101000a81548160ff0219169083151502179055508073ffffffffffffffffffffffffffffffffffffffff167f6ae172837ea30b801fbfcdd4108aa1d5bf8ff775444fd70256b44e6bf3dfc3f660405160405180910390a250565b6000806109ba610b73565b905060006109c88286610a49565b905083811015610a0d576040517f08c379a0000000000000000000000000000000000000000000000000000000008152600401610a04906119fd565b60405180910390fd5b610a1a8286868403610b7b565b60019250505092915050565b600080610a31610b73565b9050610a3e818585610dd0565b600191505092915050565b6000600160008473ffffffffffffffffffffffffffffffffffffffff1673ffffffffffffffffffffffffffffffffffffffff16815260200190815260200160002060008373ffffffffffffffffffffffffffffffffffffffff1673ffffffffffffffffffffffffffffffffffffffff16815260200190815260200160002054905092915050565b610ad8611046565b600073ffffffffffffffffffffffffffffffffffffffff168173ffffffffffffffffffffffffffffffffffffffff1603610b47576040517f08c379a0000000000000000000000000000000000000000000000000000000008152600401610b3e90611a8f565b60405180910390fd5b610b50816113e7565b50565b60066020528060005260406000206000915054906101000a900460ff1681565b600033905090565b600073ffffffffffffffffffffffffffffffffffffffff168373ffffffffffffffffffffffffffffffffffffffff1603610bea576040517f08c379a0000000000000000000000000000000000000000000000000000000008152600401610be190611b21565b60405180910390fd5b600073ffffffffffffffffffffffffffffffffffffffff168273ffffffffffffffffffffffffffffffffffffffff1603610c59576040517f08c379a0000000000000000000000000000000000000000000000000000000008152600401610c5090611bb3565b60405180910390fd5b80600160008573ffffffffffffffffffffffffffffffffffffffff1673ffffffffffffffffffffffffffffffffffffffff16815260200190815260200160002060008473ffffffffffffffffffffffffffffffffffffffff1673ffffffffffffffffffffffffffffffffffffffff168152602001908152602001600020819055508173ffffffffffffffffffffffffffffffffffffffff168373ffffffffffffffffffffffffffffffffffffffff167f8c5be1e5ebec7d5bd14f71427d1e84f3dd0314c0f7b2291e5b200ac8c7c3b92583604051610d379190611687565b60405180910390a3505050565b6000610d508484610a49565b90507fffffffffffffffffffffffffffffffffffffffffffffffffffffffffffffffff8114610dca5781811015610dbc576040517f08c379a0000000000000000000000000000000000000000000000000000000008152600401610db390611c1f565b60405180910390fd5b610dc98484848403610b7b565b5b50505050565b600073ffffffffffffffffffffffffffffffffffffffff168373ffffffffffffffffffffffffffffffffffffffff1603610e3f576040517f08c379a0000000000000000000000000000000000000000000000000000000008152600401610e3690611cb1565b60405180910390fd5b600073ffffffffffffffffffffffffffffffffffffffff168273ffffffffffffffffffffffffffffffffffffffff1603610eae576040517f08c379a0000000000000000000000000000000000000000000000000000000008152600401610ea590611d43565b60405180910390fd5b610eb98383836114ad565b60008060008573ffffffffffffffffffffffffffffffffffffffff1673ffffffffffffffffffffffffffffffffffffffff16815260200190815260200160002054905081811015610f3f576040517f08c379a0000000000000000000000000000000000000000000000000000000008152600401610f3690611dd5565b60405180910390fd5b8181036000808673ffffffffffffffffffffffffffffffffffffffff1673ffffffffffffffffffffffffffffffffffffffff16815260200190815260200160002081905550816000808573ffffffffffffffffffffffffffffffffffffffff1673ffffffffffffffffffffffffffffffffffffffff168152602001908152602001600020600082825401925050819055508273ffffffffffffffffffffffffffffffffffffffff168473ffffffffffffffffffffffffffffffffffffffff167fddf252ad1be2c89b69c2b068fc378daa952ba7f163c4a11628f55a4df523b3ef8460405161102d9190611687565b60405180910390a36110408484846114b2565b50505050565b61104e610b73565b73ffffffffffffffffffffffffffffffffffffffff1661106c61084d565b73ffffffffffffffffffffffffffffffffffffffff16146110c2576040517f08c379a00000000000000000000000000000000000000000000000000000000081526004016110b990611e41565b60405180910390fd5b565b600073ffffffffffffffffffffffffffffffffffffffff168273ffffffffffffffffffffffffffffffffffffffff1603611133576040517f08c379a000000000000000000000000000000000000000000000000000000000815260040161112a90611ead565b60405180910390fd5b61113f600083836114ad565b8060026000828254611151919061187f565b92505081905550806000808473ffffffffffffffffffffffffffffffffffffffff1673ffffffffffffffffffffffffffffffffffffffff168152602001908152602001600020600082825401925050819055508173ffffffffffffffffffffffffffffffffffffffff16600073ffffffffffffffffffffffffffffffffffffffff167fddf252ad1be2c89b69c2b068fc378daa952ba7f163c4a11628f55a4df523b3ef836040516112029190611687565b60405180910390a3611216600083836114b2565b5050565b600073ffffffffffffffffffffffffffffffffffffffff168273ffffffffffffffffffffffffffffffffffffffff1603611289576040517f08c379a000000000000000000000000000000000000000000000000000000000815260040161128090611f3f565b60405180910390fd5b611295826000836114ad565b60008060008473ffffffffffffffffffffffffffffffffffffffff1673ffffffffffffffffffffffffffffffffffffffff1681526020019081526020016000205490508181101561131b576040517f08c379a000000000000000000000000000000000000000000000000000000000815260040161131290611fd1565b60405180910390fd5b8181036000808573ffffffffffffffffffffffffffffffffffffffff1673ffffffffffffffffffffffffffffffffffffffff1681526020019081526020016000208190555081600260008282540392505081905550600073ffffffffffffffffffffffffffffffffffffffff168373ffffffffffffffffffffffffffffffffffffffff167fddf252ad1be2c89b69c2b068fc378daa952ba7f163c4a11628f55a4df523b3ef846040516113ce9190611687565b60405180910390a36113e2836000846114b2565b505050565b6000600560009054906101000a900473ffffffffffffffffffffffffffffffffffffffff16905081600560006101000a81548173ffffffffffffffffffffffffffffffffffffffff021916908373ffffffffffffffffffffffffffffffffffffffff1602179055508173ffffffffffffffffffffffffffffffffffffffff168173ffffffffffffffffffffffffffffffffffffffff167f8be0079c531659141344cd1fd0a4f28419497f9722a3daafe3b4186f6b6457e060405160405180910390a35050565b505050565b505050565b600081519050919050565b600082825260208201905092915050565b60005b838110156114f15780820151818401526020810190506114d6565b60008484015250505050565b6000601f19601f8301169050919050565b6000611519826114b7565b61152381856114c2565b93506115338185602086016114d3565b61153c816114fd565b840191505092915050565b60006020820190508181036000830152611561818461150e565b905092915050565b600080fd5b600073ffffffffffffffffffffffffffffffffffffffff82169050919050565b60006115998261156e565b9050919050565b6115a98161158e565b81146115b457600080fd5b50565b6000813590506115c6816115a0565b92915050565b6000819050919050565b6115df816115cc565b81146115ea57600080fd5b50565b6000813590506115fc816115d6565b92915050565b6000806040838503121561161957611618611569565b5b6000611627858286016115b7565b9250506020611638858286016115ed565b9150509250929050565b60008115159050919050565b61165781611642565b82525050565b6000602082019050611672600083018461164e565b92915050565b611681816115cc565b82525050565b600060208201905061169c6000830184611678565b92915050565b6000806000606084860312156116bb576116ba611569565b5b60006116c9868287016115b7565b93505060206116da868287016115b7565b92505060406116eb868287016115ed565b9150509250925092565b60006020828403121561170b5761170a611569565b5b6000611719848285016115b7565b91505092915050565b600060ff82169050919050565b61173881611722565b82525050565b6000602082019050611753600083018461172f565b92915050565b60006020828403121561176f5761176e611569565b5b600061177d848285016115ed565b91505092915050565b61178f8161158e565b82525050565b60006020820190506117aa6000830184611786565b92915050565b600080604083850312156117c7576117c6611569565b5b60006117d5858286016115b7565b92505060206117e6858286016115b7565b9150509250929050565b7f4e487b7100000000000000000000000000000000000000000000000000000000600052602260045260246000fd5b6000600282049050600182168061183757607f821691505b60208210810361184a576118496117f0565b5b50919050565b7f4e487b7100000000000000000000000000000000000000000000000000000000600052601160045260246000fd5b600061188a826115cc565b9150611895836115cc565b92508282019050808211156118ad576118ac611850565b5b92915050565b7f4e6f7420617574686f72697a656420746f206d696e7400000000000000000000600082015250565b60006118e96016836114c2565b91506118f4826118b3565b602082019050919050565b60006020820190508181036000830152611918816118dc565b9050919050565b7f496e73756666696369656e742062616c616e6365000000000000000000000000600082015250565b60006119556014836114c2565b91506119608261191f565b602082019050919050565b6000602082019050818103600083015261198481611948565b9050919050565b7f45524332303a2064656372656173656420616c6c6f77616e63652062656c6f7760008201527f207a65726f000000000000000000000000000000000000000000000000000000602082015250565b60006119e76025836114c2565b91506119f28261198b565b604082019050919050565b60006020820190508181036000830152611a16816119da565b9050919050565b7f4f776e61626c653a206e6577206f776e657220697320746865207a65726f206160008201527f6464726573730000000000000000000000000000000000000000000000000000602082015250565b6000611a796026836114c2565b9150611a8482611a1d565b604082019050919050565b60006020820190508181036000830152611aa881611a6c565b9050919050565b7f45524332303a20617070726f76652066726f6d20746865207a65726f2061646460008201527f7265737300000000000000000000000000000000000000000000000000000000602082015250565b6000611b0b6024836114c2565b9150611b1682611aaf565b604082019050919050565b60006020820190508181036000830152611b3a81611afe565b9050919050565b7f45524332303a20617070726f766520746f20746865207a65726f20616464726560008201527f7373000000000000000000000000000000000000000000000000000000000000602082015250565b6000611b9d6022836114c2565b9150611ba882611b41565b604082019050919050565b60006020820190508181036000830152611bcc81611b90565b9050919050565b7f45524332303a20696e73756666696369656e7420616c6c6f77616e6365000000600082015250565b6000611c09601d836114c2565b9150611c1482611bd3565b602082019050919050565b60006020820190508181036000830152611c3881611bfc565b9050919050565b7f45524332303a207472616e736665722066726f6d20746865207a65726f20616460008201527f6472657373000000000000000000000000000000000000000000000000000000602082015250565b6000611c9b6025836114c2565b9150611ca682611c3f565b604082019050919050565b60006020820190508181036000830152611cca81611c8e565b9050919050565b7f45524332303a207472616e7366657220746f20746865207a65726f206164647260008201527f6573730000000000000000000000000000000000000000000000000000000000602082015250565b6000611d2d6023836114c2565b9150611d3882611cd1565b604082019050919050565b60006020820190508181036000830152611d5c81611d20565b9050919050565b7f45524332303a207472616e7366657220616d6f756e742065786365656473206260008201527f616c616e63650000000000000000000000000000000000000000000000000000602082015250565b6000611dbf6026836114c2565b9150611dca82611d63565b604082019050919050565b60006020820190508181036000830152611dee81611db2565b9050919050565b7f4f776e61626c653a2063616c6c6572206973206e6f7420746865206f776e6572600082015250565b6000611e2b6020836114c2565b9150611e3682611df5565b602082019050919050565b60006020820190508181036000830152611e5a81611e1e565b9050919050565b7f45524332303a206d696e7420746f20746865207a65726f206164647265737300600082015250565b6000611e97601f836114c2565b9150611ea282611e61565b602082019050919050565b60006020820190508181036000830152611ec681611e8a565b9050919050565b7f45524332303a206275726e2066726f6d20746865207a65726f2061646472657360008201527f7300000000000000000000000000000000000000000000000000000000000000602082015250565b6000611f296021836114c2565b9150611f3482611ecd565b604082019050919050565b60006020820190508181036000830152611f5881611f1c565b9050919050565b7f45524332303a206275726e20616d6f756e7420657863656564732062616c616e60008201527f6365000000000000000000000000000000000000000000000000000000000000602082015250565b6000611fbb6022836114c2565b9150611fc682611f5f565b604082019050919050565b60006020820190508181036000830152611fea81611fae565b905091905056fea26469706673582212206732d09a64c85062d9d096a0357deb25c15fbd6e7950ca2a4a9f53bda2e305f464736f6c634300081c0033",
  "linkReferences": {},
  "deployedLinkReferences": {}
}