{
  "_format": "hh-sol-artifact-1",
  "contractName": "WasteVan",
  "sourceName": "contracts/WasteVan.sol",
  "abi": [
    {
      "inputs": [
        {
          "internalType": "address",
          "name": "_tokenAddress",
          "type": "address"
        }
      ],
      "stateMutability": "nonpayable",
      "type": "constructor"
    },
    {
      "anonymous": false,
      "inputs": [
        {
          "indexed": true,
          "internalType": "address",
          "name": "agent",
          "type": "address"
        }
      ],
      "name": "AgentRegistered",
      "type": "event"
    },
    {
      "anonymous": false,
      "inputs": [
        {
          "indexed": true,
          "internalType": "address",
          "name": "previousOwner",
          "type": "address"
        },
        {
          "indexed": true,
          "internalType": "address",
          "name": "newOwner",
          "type": "address"
        }
      ],
      "name": "OwnershipTransferred",
      "type": "event"
    },
    {
      "anonymous": false,
      "inputs": [
        {
          "indexed": true,
          "internalType": "address",
          "name": "agent",
          "type": "address"
        },
        {
          "indexed": false,
          "internalType": "uint256",
          "name": "amount",
          "type": "uint256"
        }
      ],
      "name": "PointsPurchased",
      "type": "event"
    },
    {
      "anonymous": false,
      "inputs": [
        {
          "indexed": true,
          "internalType": "address",
          "name": "user",
          "type": "address"
        },
        {
          "indexed": false,
          "internalType": "uint256",
          "name": "amount",
          "type": "uint256"
        }
      ],
      "name": "TokensDistributed",
      "type": "event"
    },
    {
      "anonymous": false,
      "inputs": [
        {
          "indexed": true,
          "internalType": "address",
          "name": "user",
          "type": "address"
        },
        {
          "indexed": false,
          "internalType": "string",
          "name": "username",
          "type": "string"
        },
        {
          "indexed": false,
          "internalType": "string",
          "name": "email",
          "type": "string"
        }
      ],
      "name": "UserRegistered",
      "type": "event"
    },
    {
      "anonymous": false,
      "inputs": [
        {
          "indexed": true,
          "internalType": "uint256",
          "name": "reportId",
          "type": "uint256"
        },
        {
          "indexed": true,
          "internalType": "address",
          "name": "agent",
          "type": "address"
        }
      ],
      "name": "WasteCollected",
      "type": "event"
    },
    {
      "anonymous": false,
      "inputs": [
        {
          "indexed": true,
          "internalType": "uint256",
          "name": "reportId",
          "type": "uint256"
        },
        {
          "indexed": true,
          "internalType": "address",
          "name": "reporter",
          "type": "address"
        },
        {
          "indexed": false,
          "internalType": "string",
          "name": "ipfsHash",
          "type": "string"
        }
      ],
      "name": "WasteReported",
      "type": "event"
    },
    {
      "inputs": [],
      "name": "POINTS_PER_COLLECTION",
      "outputs": [
        {
          "internalType": "uint256",
          "name": "",
          "type": "uint256"
        }
      ],
      "stateMutability": "view",
      "type": "function"
    },
    {
      "inputs": [],
      "name": "TOKENS_PER_POINT",
      "outputs": [
        {
          "internalType": "uint256",
          "name": "",
          "type": "uint256"
        }
      ],
      "stateMutability": "view",
      "type": "function"
    },
    {
      "inputs": [
        {
          "internalType": "address",
          "name": "",
          "type": "address"
        }
      ],
      "name": "agents",
      "outputs": [
        {
          "internalType": "bool",
          "name": "isVerified",
          "type": "bool"
        },
        {
          "internalType": "uint256",
          "name": "points",
          "type": "uint256"
        },
        {
          "internalType": "uint256",
          "name": "totalCollections",
          "type": "uint256"
        },
        {
          "internalType": "uint256",
          "name": "totalPointsDistributed",
          "type": "uint256"
        }
      ],
      "stateMutability": "view",
      "type": "function"
    },
    {
      "inputs": [
        {
          "internalType": "uint256",
          "name": "_reportId",
          "type": "uint256"
        }
      ],
      "name": "collectWaste",
      "outputs": [],
      "stateMutability": "nonpayable",
      "type": "function"
    },
    {
      "inputs": [
        {
          "internalType": "address",
          "name": "_agent",
          "type": "address"
        }
      ],
      "name": "getAgentStats",
      "outputs": [
        {
          "internalType": "bool",
          "name": "isVerified",
          "type": "bool"
        },
        {
          "internalType": "uint256",
          "name": "points",
          "type": "uint256"
        },
        {
          "internalType": "uint256",
          "name": "totalCollections",
          "type": "uint256"
        },
        {
          "internalType": "uint256",
          "name": "totalPointsDistributed",
          "type": "uint256"
        }
      ],
      "stateMutability": "view",
      "type": "function"
    },
    {
      "inputs": [
        {
          "internalType": "address",
          "name": "_user",
          "type": "address"
        }
      ],
      "name": "getUserStats",
      "outputs": [
        {
          "internalType": "string",
          "name": "username",
          "type": "string"
        },
        {
          "internalType": "uint256",
          "name": "totalWasteReported",
          "type": "uint256"
        },
        {
          "internalType": "uint256",
          "name": "totalTokensEarned",
          "type": "uint256"
        }
      ],
      "stateMutability": "view",
      "type": "function"
    },
    {
      "inputs": [
        {
          "internalType": "uint256",
          "name": "_reportId",
          "type": "uint256"
        }
      ],
      "name": "getWasteReport",
      "outputs": [
        {
          "internalType": "address",
          "name": "reporter",
          "type": "address"
        },
        {
          "internalType": "string",
          "name": "ipfsHash",
          "type": "string"
        },
        {
          "internalType": "uint256",
          "name": "quantity",
          "type": "uint256"
        },
        {
          "internalType": "string",
          "name": "wasteType",
          "type": "string"
        },
        {
          "internalType": "string",
          "name": "location",
          "type": "string"
        },
        {
          "internalType": "bool",
          "name": "isCollected",
          "type": "bool"
        },
        {
          "internalType": "address",
          "name": "collectedBy",
          "type": "address"
        }
      ],
      "stateMutability": "view",
      "type": "function"
    },
    {
      "inputs": [],
      "name": "owner",
      "outputs": [
        {
          "internalType": "address",
          "name": "",
          "type": "address"
        }
      ],
      "stateMutability": "view",
      "type": "function"
    },
    {
      "inputs": [],
      "name": "purchasePoints",
      "outputs": [],
      "stateMutability": "payable",
      "type": "function"
    },
    {
      "inputs": [],
      "name": "registerAgent",
      "outputs": [],
      "stateMutability": "nonpayable",
      "type": "function"
    },
    {
      "inputs": [
        {
          "internalType": "string",
          "name": "_username",
          "type": "string"
        },
        {
          "internalType": "string",
          "name": "_email",
          "type": "string"
        }
      ],
      "name": "registerUser",
      "outputs": [],
      "stateMutability": "nonpayable",
      "type": "function"
    },
    {
      "inputs": [],
      "name": "renounceOwnership",
      "outputs": [],
      "stateMutability": "nonpayable",
      "type": "function"
    },
    {
      "inputs": [],
      "name": "reportCounter",
      "outputs": [
        {
          "internalType": "uint256",
          "name": "",
          "type": "uint256"
        }
      ],
      "stateMutability": "view",
      "type": "function"
    },
    {
      "inputs": [
        {
          "internalType": "string",
          "name": "_ipfsHash",
          "type": "string"
        },
        {
          "internalType": "uint256",
          "name": "_quantity",
          "type": "uint256"
        },
        {
          "internalType": "string",
          "name": "_wasteType",
          "type": "string"
        },
        {
          "internalType": "string",
          "name": "_location",
          "type": "string"
        }
      ],
      "name": "reportWaste",
      "outputs": [],
      "stateMutability": "nonpayable",
      "type": "function"
    },
    {
      "inputs": [
        {
          "internalType": "address",
          "name": "newOwner",
          "type": "address"
        }
      ],
      "name": "transferOwnership",
      "outputs": [],
      "stateMutability": "nonpayable",
      "type": "function"
    },
    {
      "inputs": [
        {
          "internalType": "string",
          "name": "",
          "type": "string"
        }
      ],
      "name": "usedQRCodes",
      "outputs": [
        {
          "internalType": "bool",
          "name": "",
          "type": "bool"
        }
      ],
      "stateMutability": "view",
      "type": "function"
    },
    {
      "inputs": [
        {
          "internalType": "address",
          "name": "",
          "type": "address"
        }
      ],
      "name": "users",
      "outputs": [
        {
          "internalType": "string",
          "name": "username",
          "type": "string"
        },
        {
          "internalType": "string",
          "name": "email",
          "type": "string"
        },
        {
          "internalType": "bool",
          "name": "isRegistered",
          "type": "bool"
        },
        {
          "internalType": "uint256",
          "name": "totalWasteReported",
          "type": "uint256"
        },
        {
          "internalType": "uint256",
          "name": "totalTokensEarned",
          "type": "uint256"
        }
      ],
      "stateMutability": "view",
      "type": "function"
    },
    {
      "inputs": [
        {
          "internalType": "uint256",
          "name": "",
          "type": "uint256"
        }
      ],
      "name": "wasteReports",
      "outputs": [
        {
          "internalType": "uint256",
          "name": "reportId",
          "type": "uint256"
        },
        {
          "internalType": "address",
          "name": "reporter",
          "type": "address"
        },
        {
          "internalType": "string",
          "name": "ipfsHash",
          "type": "string"
        },
        {
          "internalType": "uint256",
          "name": "quantity",
          "type": "uint256"
        },
        {
          "internalType": "string",
          "name": "wasteType",
          "type": "string"
        },
        {
          "internalType": "string",
          "name": "location",
          "type": "string"
        },
        {
          "internalType": "uint256",
          "name": "timestamp",
          "type": "uint256"
        },
        {
          "internalType": "bool",
          "name": "isCollected",
          "type": "bool"
        },
        {
          "internalType": "address",
          "name": "collectedBy",
          "type": "address"
        },
        {
          "internalType": "uint256",
          "name": "tokenReward",
          "type": "uint256"
        }
      ],
      "stateMutability": "view",
      "type": "function"
    },
    {
      "inputs": [],
      "name": "wasteVanToken",
      "outputs": [
        {
          "internalType": "contract WasteVanToken",
          "name": "",
          "type": "address"
        }
      ],
      "stateMutability": "view",
      "type": "function"
    },
    {
      "inputs": [],
      "name": "withdraw",
      "outputs": [],
      "stateMutability": "nonpayable",
      "type": "function"
    }
  ],
  "bytecode": "0x608060405234801561001057600080fd5b50604051612eb6380380612eb6833981810160405281019061003291906101cb565b61004e61004361009c60201b60201c565b6100a460201b60201c565b6001808190555080600260006101000a81548173ffffffffffffffffffffffffffffffffffffffff021916908373ffffffffffffffffffffffffffffffffffffffff160217905550506101f8565b600033905090565b60008060009054906101000a900473ffffffffffffffffffffffffffffffffffffffff169050816000806101000a81548173ffffffffffffffffffffffffffffffffffffffff021916908373ffffffffffffffffffffffffffffffffffffffff1602179055508173ffffffffffffffffffffffffffffffffffffffff168173ffffffffffffffffffffffffffffffffffffffff167f8be0079c531659141344cd1fd0a4f28419497f9722a3daafe3b4186f6b6457e060405160405180910390a35050565b600080fd5b600073ffffffffffffffffffffffffffffffffffffffff82169050919050565b60006101988261016d565b9050919050565b6101a88161018d565b81146101b357600080fd5b50565b6000815190506101c58161019f565b92915050565b6000602082840312156101e1576101e0610168565b5b60006101ef848285016101b6565b91505092915050565b612caf806102076000396000f3fe60806040526004361061011f5760003560e01c8063907b5760116100a0578063c5df288211610064578063c5df2882146103b4578063d763bf7b146103dd578063de9f9ee414610420578063f2fde38b1461044b578063fd66091e146104745761011f565b8063907b5760146102b4578063a87430ba146102dd578063b4885dae1461031e578063b5695b3814610349578063b9bc38f2146103895761011f565b80634e43603a116100e75780634e43603a146101cb578063518dab3c1461020a578063715018a614610247578063898a97b91461025e5780638da5cb5b146102895761011f565b80630cdd8982146101245780631d2e4afd1461016a57806335eb5208146101935780633ccfd60b146101aa5780634c8b9738146101c1575b600080fd5b34801561013057600080fd5b5061014b60048036038101906101469190611d3a565b6104b4565b6040516101619a99989796959493929190611e62565b60405180910390f35b34801561017657600080fd5b50610191600480360381019061018c9190612048565b6106ed565b005b34801561019f57600080fd5b506101a861089f565b005b3480156101b657600080fd5b506101bf610a1b565b005b6101c9610a73565b005b3480156101d757600080fd5b506101f260048036038101906101ed91906120ec565b610bc4565b60405161020193929190612119565b60405180910390f35b34801561021657600080fd5b50610231600480360381019061022c9190612157565b610d87565b60405161023e91906121a0565b60405180910390f35b34801561025357600080fd5b5061025c610dbd565b005b34801561026a57600080fd5b50610273610dd1565b60405161028091906121bb565b60405180910390f35b34801561029557600080fd5b5061029e610dd6565b6040516102ab91906121d6565b60405180910390f35b3480156102c057600080fd5b506102db60048036038101906102d691906121f1565b610dff565b005b3480156102e957600080fd5b5061030460048036038101906102ff91906120ec565b61110c565b6040516103159594939291906122ac565b60405180910390f35b34801561032a57600080fd5b5061033361125f565b604051610340919061236c565b60405180910390f35b34801561035557600080fd5b50610370600480360381019061036b91906120ec565b611285565b6040516103809493929190612387565b60405180910390f35b34801561039557600080fd5b5061039e611336565b6040516103ab91906121bb565b60405180910390f35b3480156103c057600080fd5b506103db60048036038101906103d69190611d3a565b61133c565b005b3480156103e957600080fd5b5061040460048036038101906103ff9190611d3a565b6117cf565b60405161041797969594939291906123cc565b60405180910390f35b34801561042c57600080fd5b50610435611ae1565b60405161044291906121bb565b60405180910390f35b34801561045757600080fd5b50610472600480360381019061046d91906120ec565b611ae6565b005b34801561048057600080fd5b5061049b600480360381019061049691906120ec565b611b69565b6040516104ab9493929190612387565b60405180910390f35b60056020528060005260406000206000915090508060000154908060010160009054906101000a900473ffffffffffffffffffffffffffffffffffffffff16908060020180546105039061247f565b80601f016020809104026020016040519081016040528092919081815260200182805461052f9061247f565b801561057c5780601f106105515761010080835404028352916020019161057c565b820191906000526020600020905b81548152906001019060200180831161055f57829003601f168201915b5050505050908060030154908060040180546105979061247f565b80601f01602080910402602001604051908101604052809291908181526020018280546105c39061247f565b80156106105780601f106105e557610100808354040283529160200191610610565b820191906000526020600020905b8154815290600101906020018083116105f357829003601f168201915b5050505050908060050180546106259061247f565b80601f01602080910402602001604051908101604052809291908181526020018280546106519061247f565b801561069e5780601f106106735761010080835404028352916020019161069e565b820191906000526020600020905b81548152906001019060200180831161068157829003601f168201915b5050505050908060060154908060070160009054906101000a900460ff16908060070160019054906101000a900473ffffffffffffffffffffffffffffffffffffffff1690806008015490508a565b600360003373ffffffffffffffffffffffffffffffffffffffff1673ffffffffffffffffffffffffffffffffffffffff16815260200190815260200160002060020160009054906101000a900460ff161561077d576040517f08c379a0000000000000000000000000000000000000000000000000000000008152600401610774906124fc565b60405180910390fd5b6040518060a00160405280838152602001828152602001600115158152602001600081526020016000815250600360003373ffffffffffffffffffffffffffffffffffffffff1673ffffffffffffffffffffffffffffffffffffffff16815260200190815260200160002060008201518160000190816107fd91906126be565b50602082015181600101908161081391906126be565b5060408201518160020160006101000a81548160ff02191690831515021790555060608201518160030155608082015181600401559050503373ffffffffffffffffffffffffffffffffffffffff167f92822564bab8864c3a47b34e8d23fbce5c46234eb5da261f94087b995ac0f33b8383604051610893929190612790565b60405180910390a25050565b600460003373ffffffffffffffffffffffffffffffffffffffff1673ffffffffffffffffffffffffffffffffffffffff16815260200190815260200160002060000160009054906101000a900460ff161561092f576040517f08c379a000000000000000000000000000000000000000000000000000000000815260040161092690612813565b60405180910390fd5b604051806080016040528060011515815260200160008152602001600081526020016000815250600460003373ffffffffffffffffffffffffffffffffffffffff1673ffffffffffffffffffffffffffffffffffffffff16815260200190815260200160002060008201518160000160006101000a81548160ff0219169083151502179055506020820151816001015560408201518160020155606082015181600301559050503373ffffffffffffffffffffffffffffffffffffffff167f82d0829d9d481e4cb9913897f9b9c903271c4db68c7b3324071d2a7e3b2c5ff060405160405180910390a2565b610a23611ba6565b610a2b610dd6565b73ffffffffffffffffffffffffffffffffffffffff166108fc479081150290604051600060405180830381858888f19350505050158015610a70573d6000803e3d6000fd5b50565b600460003373ffffffffffffffffffffffffffffffffffffffff1673ffffffffffffffffffffffffffffffffffffffff16815260200190815260200160002060000160009054906101000a900460ff16610b02576040517f08c379a0000000000000000000000000000000000000000000000000000000008152600401610af99061287f565b60405180910390fd5b6000670de0b6b3a764000034610b1891906128fd565b905080600460003373ffffffffffffffffffffffffffffffffffffffff1673ffffffffffffffffffffffffffffffffffffffff1681526020019081526020016000206001016000828254610b6c919061292e565b925050819055503373ffffffffffffffffffffffffffffffffffffffff167f4188bb0074eb5be3d6b8089e8faaa457e592aab04dd8d5fc19d7358791c4eee482604051610bb991906121bb565b60405180910390a250565b60606000806000600360008673ffffffffffffffffffffffffffffffffffffffff1673ffffffffffffffffffffffffffffffffffffffff1681526020019081526020016000206040518060a0016040529081600082018054610c259061247f565b80601f0160208091040260200160405190810160405280929190818152602001828054610c519061247f565b8015610c9e5780601f10610c7357610100808354040283529160200191610c9e565b820191906000526020600020905b815481529060010190602001808311610c8157829003601f168201915b50505050508152602001600182018054610cb79061247f565b80601f0160208091040260200160405190810160405280929190818152602001828054610ce39061247f565b8015610d305780601f10610d0557610100808354040283529160200191610d30565b820191906000526020600020905b815481529060010190602001808311610d1357829003601f168201915b505050505081526020016002820160009054906101000a900460ff16151515158152602001600382015481526020016004820154815250509050806000015181606001518260800151935093509350509193909250565b6006818051602081018201805184825260208301602085012081835280955050505050506000915054906101000a900460ff1681565b610dc5611ba6565b610dcf6000611c24565b565b600181565b60008060009054906101000a900473ffffffffffffffffffffffffffffffffffffffff16905090565b600360003373ffffffffffffffffffffffffffffffffffffffff1673ffffffffffffffffffffffffffffffffffffffff16815260200190815260200160002060020160009054906101000a900460ff16610e8e576040517f08c379a0000000000000000000000000000000000000000000000000000000008152600401610e85906129ae565b60405180910390fd5b60076000815480929190610ea1906129ce565b919050555060405180610140016040528060075481526020013373ffffffffffffffffffffffffffffffffffffffff168152602001858152602001848152602001838152602001828152602001428152602001600015158152602001600073ffffffffffffffffffffffffffffffffffffffff168152602001600185610f279190612a16565b8152506005600060075481526020019081526020016000206000820151816000015560208201518160010160006101000a81548173ffffffffffffffffffffffffffffffffffffffff021916908373ffffffffffffffffffffffffffffffffffffffff1602179055506040820151816002019081610fa591906126be565b50606082015181600301556080820151816004019081610fc591906126be565b5060a0820151816005019081610fdb91906126be565b5060c0820151816006015560e08201518160070160006101000a81548160ff0219169083151502179055506101008201518160070160016101000a81548173ffffffffffffffffffffffffffffffffffffffff021916908373ffffffffffffffffffffffffffffffffffffffff160217905550610120820151816008015590505082600360003373ffffffffffffffffffffffffffffffffffffffff1673ffffffffffffffffffffffffffffffffffffffff16815260200190815260200160002060030160008282546110ae919061292e565b925050819055503373ffffffffffffffffffffffffffffffffffffffff166007547f8380288083f7a53853cdd4ad41fb7f4d17a3ea763b59968823158f363ed7e07c866040516110fe9190612a58565b60405180910390a350505050565b600360205280600052604060002060009150905080600001805461112f9061247f565b80601f016020809104026020016040519081016040528092919081815260200182805461115b9061247f565b80156111a85780601f1061117d576101008083540402835291602001916111a8565b820191906000526020600020905b81548152906001019060200180831161118b57829003601f168201915b5050505050908060010180546111bd9061247f565b80601f01602080910402602001604051908101604052809291908181526020018280546111e99061247f565b80156112365780601f1061120b57610100808354040283529160200191611236565b820191906000526020600020905b81548152906001019060200180831161121957829003601f168201915b5050505050908060020160009054906101000a900460ff16908060030154908060040154905085565b600260009054906101000a900473ffffffffffffffffffffffffffffffffffffffff1681565b6000806000806000600460008773ffffffffffffffffffffffffffffffffffffffff1673ffffffffffffffffffffffffffffffffffffffff1681526020019081526020016000206040518060800160405290816000820160009054906101000a900460ff161515151581526020016001820154815260200160028201548152602001600382015481525050905080600001518160200151826040015183606001519450945094509450509193509193565b60075481565b600460003373ffffffffffffffffffffffffffffffffffffffff1673ffffffffffffffffffffffffffffffffffffffff16815260200190815260200160002060000160009054906101000a900460ff166113cb576040517f08c379a00000000000000000000000000000000000000000000000000000000081526004016113c29061287f565b60405180910390fd5b60006005600083815260200190815260200160002090508060070160009054906101000a900460ff1615611434576040517f08c379a000000000000000000000000000000000000000000000000000000000815260040161142b90612ac6565b60405180910390fd5b600073ffffffffffffffffffffffffffffffffffffffff168160010160009054906101000a900473ffffffffffffffffffffffffffffffffffffffff1673ffffffffffffffffffffffffffffffffffffffff16036114c7576040517f08c379a00000000000000000000000000000000000000000000000000000000081526004016114be90612b32565b60405180910390fd5b60018160070160006101000a81548160ff021916908315150217905550338160070160016101000a81548173ffffffffffffffffffffffffffffffffffffffff021916908373ffffffffffffffffffffffffffffffffffffffff160217905550600460003373ffffffffffffffffffffffffffffffffffffffff1673ffffffffffffffffffffffffffffffffffffffff168152602001908152602001600020600201600081548092919061157a906129ce565b91905055506064600460003373ffffffffffffffffffffffffffffffffffffffff1673ffffffffffffffffffffffffffffffffffffffff16815260200190815260200160002060010160008282546115d2919061292e565b92505081905550600260009054906101000a900473ffffffffffffffffffffffffffffffffffffffff1673ffffffffffffffffffffffffffffffffffffffff166340c10f198260010160009054906101000a900473ffffffffffffffffffffffffffffffffffffffff1683600801546040518363ffffffff1660e01b815260040161165e929190612b52565b600060405180830381600087803b15801561167857600080fd5b505af115801561168c573d6000803e3d6000fd5b505050508060080154600360008360010160009054906101000a900473ffffffffffffffffffffffffffffffffffffffff1673ffffffffffffffffffffffffffffffffffffffff1673ffffffffffffffffffffffffffffffffffffffff168152602001908152602001600020600401600082825461170a919061292e565b925050819055503373ffffffffffffffffffffffffffffffffffffffff16827f38d3917dbc216c1520f644e7bb11d91fd7ab92c81c7da47f42e0e7fa7bbfa24c60405160405180910390a38060010160009054906101000a900473ffffffffffffffffffffffffffffffffffffffff1673ffffffffffffffffffffffffffffffffffffffff167f16b0da2ffcb90c6723317bd637d9aad7f04711f42bbe0ac0918ebe10f1f9001c82600801546040516117c391906121bb565b60405180910390a25050565b6000606060006060806000806000600560008a815260200190815260200160002060405180610140016040529081600082015481526020016001820160009054906101000a900473ffffffffffffffffffffffffffffffffffffffff1673ffffffffffffffffffffffffffffffffffffffff1673ffffffffffffffffffffffffffffffffffffffff16815260200160028201805461186c9061247f565b80601f01602080910402602001604051908101604052809291908181526020018280546118989061247f565b80156118e55780601f106118ba576101008083540402835291602001916118e5565b820191906000526020600020905b8154815290600101906020018083116118c857829003601f168201915b50505050508152602001600382015481526020016004820180546119089061247f565b80601f01602080910402602001604051908101604052809291908181526020018280546119349061247f565b80156119815780601f1061195657610100808354040283529160200191611981565b820191906000526020600020905b81548152906001019060200180831161196457829003601f168201915b5050505050815260200160058201805461199a9061247f565b80601f01602080910402602001604051908101604052809291908181526020018280546119c69061247f565b8015611a135780601f106119e857610100808354040283529160200191611a13565b820191906000526020600020905b8154815290600101906020018083116119f657829003601f168201915b50505050508152602001600682015481526020016007820160009054906101000a900460ff161515151581526020016007820160019054906101000a900473ffffffffffffffffffffffffffffffffffffffff1673ffffffffffffffffffffffffffffffffffffffff1673ffffffffffffffffffffffffffffffffffffffff168152602001600882015481525050905080602001518160400151826060015183608001518460a001518560e00151866101000151975097509750975097509750975050919395979092949650565b606481565b611aee611ba6565b600073ffffffffffffffffffffffffffffffffffffffff168173ffffffffffffffffffffffffffffffffffffffff1603611b5d576040517f08c379a0000000000000000000000000000000000000000000000000000000008152600401611b5490612bed565b60405180910390fd5b611b6681611c24565b50565b60046020528060005260406000206000915090508060000160009054906101000a900460ff16908060010154908060020154908060030154905084565b611bae611ce8565b73ffffffffffffffffffffffffffffffffffffffff16611bcc610dd6565b73ffffffffffffffffffffffffffffffffffffffff1614611c22576040517f08c379a0000000000000000000000000000000000000000000000000000000008152600401611c1990612c59565b60405180910390fd5b565b60008060009054906101000a900473ffffffffffffffffffffffffffffffffffffffff169050816000806101000a81548173ffffffffffffffffffffffffffffffffffffffff021916908373ffffffffffffffffffffffffffffffffffffffff1602179055508173ffffffffffffffffffffffffffffffffffffffff168173ffffffffffffffffffffffffffffffffffffffff167f8be0079c531659141344cd1fd0a4f28419497f9722a3daafe3b4186f6b6457e060405160405180910390a35050565b600033905090565b6000604051905090565b600080fd5b600080fd5b6000819050919050565b611d1781611d04565b8114611d2257600080fd5b50565b600081359050611d3481611d0e565b92915050565b600060208284031215611d5057611d4f611cfa565b5b6000611d5e84828501611d25565b91505092915050565b611d7081611d04565b82525050565b600073ffffffffffffffffffffffffffffffffffffffff82169050919050565b6000611da182611d76565b9050919050565b611db181611d96565b82525050565b600081519050919050565b600082825260208201905092915050565b60005b83811015611df1578082015181840152602081019050611dd6565b60008484015250505050565b6000601f19601f8301169050919050565b6000611e1982611db7565b611e238185611dc2565b9350611e33818560208601611dd3565b611e3c81611dfd565b840191505092915050565b60008115159050919050565b611e5c81611e47565b82525050565b600061014082019050611e78600083018d611d67565b611e85602083018c611da8565b8181036040830152611e97818b611e0e565b9050611ea6606083018a611d67565b8181036080830152611eb88189611e0e565b905081810360a0830152611ecc8188611e0e565b9050611edb60c0830187611d67565b611ee860e0830186611e53565b611ef6610100830185611da8565b611f04610120830184611d67565b9b9a5050505050505050505050565b600080fd5b600080fd5b7f4e487b7100000000000000000000000000000000000000000000000000000000600052604160045260246000fd5b611f5582611dfd565b810181811067ffffffffffffffff82111715611f7457611f73611f1d565b5b80604052505050565b6000611f87611cf0565b9050611f938282611f4c565b919050565b600067ffffffffffffffff821115611fb357611fb2611f1d565b5b611fbc82611dfd565b9050602081019050919050565b82818337600083830152505050565b6000611feb611fe684611f98565b611f7d565b90508281526020810184848401111561200757612006611f18565b5b612012848285611fc9565b509392505050565b600082601f83011261202f5761202e611f13565b5b813561203f848260208601611fd8565b91505092915050565b6000806040838503121561205f5761205e611cfa565b5b600083013567ffffffffffffffff81111561207d5761207c611cff565b5b6120898582860161201a565b925050602083013567ffffffffffffffff8111156120aa576120a9611cff565b5b6120b68582860161201a565b9150509250929050565b6120c981611d96565b81146120d457600080fd5b50565b6000813590506120e6816120c0565b92915050565b60006020828403121561210257612101611cfa565b5b6000612110848285016120d7565b91505092915050565b600060608201905081810360008301526121338186611e0e565b90506121426020830185611d67565b61214f6040830184611d67565b949350505050565b60006020828403121561216d5761216c611cfa565b5b600082013567ffffffffffffffff81111561218b5761218a611cff565b5b6121978482850161201a565b91505092915050565b60006020820190506121b56000830184611e53565b92915050565b60006020820190506121d06000830184611d67565b92915050565b60006020820190506121eb6000830184611da8565b92915050565b6000806000806080858703121561220b5761220a611cfa565b5b600085013567ffffffffffffffff81111561222957612228611cff565b5b6122358782880161201a565b945050602061224687828801611d25565b935050604085013567ffffffffffffffff81111561226757612266611cff565b5b6122738782880161201a565b925050606085013567ffffffffffffffff81111561229457612293611cff565b5b6122a08782880161201a565b91505092959194509250565b600060a08201905081810360008301526122c68188611e0e565b905081810360208301526122da8187611e0e565b90506122e96040830186611e53565b6122f66060830185611d67565b6123036080830184611d67565b9695505050505050565b6000819050919050565b600061233261232d61232884611d76565b61230d565b611d76565b9050919050565b600061234482612317565b9050919050565b600061235682612339565b9050919050565b6123668161234b565b82525050565b6000602082019050612381600083018461235d565b92915050565b600060808201905061239c6000830187611e53565b6123a96020830186611d67565b6123b66040830185611d67565b6123c36060830184611d67565b95945050505050565b600060e0820190506123e1600083018a611da8565b81810360208301526123f38189611e0e565b90506124026040830188611d67565b81810360608301526124148187611e0e565b905081810360808301526124288186611e0e565b905061243760a0830185611e53565b61244460c0830184611da8565b98975050505050505050565b7f4e487b7100000000000000000000000000000000000000000000000000000000600052602260045260246000fd5b6000600282049050600182168061249757607f821691505b6020821081036124aa576124a9612450565b5b50919050565b7f5573657220616c72656164792072656769737465726564000000000000000000600082015250565b60006124e6601783611dc2565b91506124f1826124b0565b602082019050919050565b60006020820190508181036000830152612515816124d9565b9050919050565b60008190508160005260206000209050919050565b60006020601f8301049050919050565b600082821b905092915050565b60006008830261257e7fffffffffffffffffffffffffffffffffffffffffffffffffffffffffffffffff82612541565b6125888683612541565b95508019841693508086168417925050509392505050565b60006125bb6125b66125b184611d04565b61230d565b611d04565b9050919050565b6000819050919050565b6125d5836125a0565b6125e96125e1826125c2565b84845461254e565b825550505050565b600090565b6125fe6125f1565b6126098184846125cc565b505050565b5b8181101561262d576126226000826125f6565b60018101905061260f565b5050565b601f821115612672576126438161251c565b61264c84612531565b8101602085101561265b578190505b61266f61266785612531565b83018261260e565b50505b505050565b600082821c905092915050565b600061269560001984600802612677565b1980831691505092915050565b60006126ae8383612684565b9150826002028217905092915050565b6126c782611db7565b67ffffffffffffffff8111156126e0576126df611f1d565b5b6126ea825461247f565b6126f5828285612631565b600060209050601f8311600181146127285760008415612716578287015190505b61272085826126a2565b865550612788565b601f1984166127368661251c565b60005b8281101561275e57848901518255600182019150602085019450602081019050612739565b8683101561277b5784890151612777601f891682612684565b8355505b6001600288020188555050505b505050505050565b600060408201905081810360008301526127aa8185611e0e565b905081810360208301526127be8184611e0e565b90509392505050565b7f4167656e7420616c726561647920726567697374657265640000000000000000600082015250565b60006127fd601883611dc2565b9150612808826127c7565b602082019050919050565b6000602082019050818103600083015261282c816127f0565b9050919050565b7f4e6f742061207665726966696564206167656e74000000000000000000000000600082015250565b6000612869601483611dc2565b915061287482612833565b602082019050919050565b600060208201905081810360008301526128988161285c565b9050919050565b7f4e487b7100000000000000000000000000000000000000000000000000000000600052601260045260246000fd5b7f4e487b7100000000000000000000000000000000000000000000000000000000600052601160045260246000fd5b600061290882611d04565b915061291383611d04565b9250826129235761292261289f565b5b828204905092915050565b600061293982611d04565b915061294483611d04565b925082820190508082111561295c5761295b6128ce565b5b92915050565b7f55736572206e6f74207265676973746572656400000000000000000000000000600082015250565b6000612998601383611dc2565b91506129a382612962565b602082019050919050565b600060208201905081810360008301526129c78161298b565b9050919050565b60006129d982611d04565b91507fffffffffffffffffffffffffffffffffffffffffffffffffffffffffffffffff8203612a0b57612a0a6128ce565b5b600182019050919050565b6000612a2182611d04565b9150612a2c83611d04565b9250828202612a3a81611d04565b91508282048414831517612a5157612a506128ce565b5b5092915050565b60006020820190508181036000830152612a728184611e0e565b905092915050565b7f576173746520616c726561647920636f6c6c6563746564000000000000000000600082015250565b6000612ab0601783611dc2565b9150612abb82612a7a565b602082019050919050565b60006020820190508181036000830152612adf81612aa3565b9050919050565b7f496e76616c6964207265706f7274000000000000000000000000000000000000600082015250565b6000612b1c600e83611dc2565b9150612b2782612ae6565b602082019050919050565b60006020820190508181036000830152612b4b81612b0f565b9050919050565b6000604082019050612b676000830185611da8565b612b746020830184611d67565b9392505050565b7f4f776e61626c653a206e6577206f776e657220697320746865207a65726f206160008201527f6464726573730000000000000000000000000000000000000000000000000000602082015250565b6000612bd7602683611dc2565b9150612be282612b7b565b604082019050919050565b60006020820190508181036000830152612c0681612bca565b9050919050565b7f4f776e61626c653a2063616c6c6572206973206e6f7420746865206f776e6572600082015250565b6000612c43602083611dc2565b9150612c4e82612c0d565b602082019050919050565b60006020820190508181036000830152612c7281612c36565b905091905056fea2646970667358221220a7d2081d90daafa137885bbd035631dfe971127eb4cd1bdf3fb83c192b3b1ff764736f6c634300081c0033",
  "linkReferences": {},
  "deployedLinkReferences": {}
}