{
  "_format": "hh-sol-artifact-1",
  "contractName": "WasteVan",
  "sourceName": "contracts/WasteVan.sol",
  "abi": [
    {
      "inputs": [
        {
          "internalType": "address",
          "name": "_tokenAddress",
          "type": "address"
        }
      ],
      "stateMutability": "nonpayable",
      "type": "constructor"
    },
    {
      "anonymous": false,
      "inputs": [
        {
          "indexed": true,
          "internalType": "address",
          "name": "agent",
          "type": "address"
        }
      ],
      "name": "AgentRegistered",
      "type": "event"
    },
    {
      "anonymous": false,
      "inputs": [
        {
          "indexed": true,
          "internalType": "address",
          "name": "previousOwner",
          "type": "address"
        },
        {
          "indexed": true,
          "internalType": "address",
          "name": "newOwner",
          "type": "address"
        }
      ],
      "name": "OwnershipTransferred",
      "type": "event"
    },
    {
      "anonymous": false,
      "inputs": [
        {
          "indexed": true,
          "internalType": "address",
          "name": "agent",
          "type": "address"
        },
        {
          "indexed": false,
          "internalType": "uint256",
          "name": "amount",
          "type": "uint256"
        }
      ],
      "name": "PointsPurchased",
      "type": "event"
    },
    {
      "anonymous": false,
      "inputs": [
        {
          "indexed": true,
          "internalType": "address",
          "name": "user",
          "type": "address"
        },
        {
          "indexed": false,
          "internalType": "uint256",
          "name": "amount",
          "type": "uint256"
        }
      ],
      "name": "TokensDistributed",
      "type": "event"
    },
    {
      "anonymous": false,
      "inputs": [
        {
          "indexed": true,
          "internalType": "address",
          "name": "user",
          "type": "address"
        },
        {
          "indexed": false,
          "internalType": "string",
          "name": "username",
          "type": "string"
        },
        {
          "indexed": false,
          "internalType": "string",
          "name": "email",
          "type": "string"
        }
      ],
      "name": "UserRegistered",
      "type": "event"
    },
    {
      "anonymous": false,
      "inputs": [
        {
          "indexed": true,
          "internalType": "uint256",
          "name": "reportId",
          "type": "uint256"
        },
        {
          "indexed": true,
          "internalType": "address",
          "name": "agent",
          "type": "address"
        }
      ],
      "name": "WasteApproved",
      "type": "event"
    },
    {
      "anonymous": false,
      "inputs": [
        {
          "indexed": true,
          "internalType": "uint256",
          "name": "reportId",
          "type": "uint256"
        },
        {
          "indexed": true,
          "internalType": "address",
          "name": "agent",
          "type": "address"
        }
      ],
      "name": "WasteCollected",
      "type": "event"
    },
    {
      "anonymous": false,
      "inputs": [
        {
          "indexed": true,
          "internalType": "uint256",
          "name": "reportId",
          "type": "uint256"
        },
        {
          "indexed": true,
          "internalType": "address",
          "name": "agent",
          "type": "address"
        },
        {
          "indexed": false,
          "internalType": "string",
          "name": "reason",
          "type": "string"
        }
      ],
      "name": "WasteRejected",
      "type": "event"
    },
    {
      "anonymous": false,
      "inputs": [
        {
          "indexed": true,
          "internalType": "uint256",
          "name": "reportId",
          "type": "uint256"
        },
        {
          "indexed": true,
          "internalType": "address",
          "name": "reporter",
          "type": "address"
        },
        {
          "indexed": false,
          "internalType": "string",
          "name": "ipfsHash",
          "type": "string"
        }
      ],
      "name": "WasteReported",
      "type": "event"
    },
    {
      "inputs": [],
      "name": "POINTS_PER_COLLECTION",
      "outputs": [
        {
          "internalType": "uint256",
          "name": "",
          "type": "uint256"
        }
      ],
      "stateMutability": "view",
      "type": "function"
    },
    {
      "inputs": [],
      "name": "TOKENS_PER_POINT",
      "outputs": [
        {
          "internalType": "uint256",
          "name": "",
          "type": "uint256"
        }
      ],
      "stateMutability": "view",
      "type": "function"
    },
    {
      "inputs": [
        {
          "internalType": "address",
          "name": "",
          "type": "address"
        }
      ],
      "name": "agents",
      "outputs": [
        {
          "internalType": "bool",
          "name": "isVerified",
          "type": "bool"
        },
        {
          "internalType": "uint256",
          "name": "points",
          "type": "uint256"
        },
        {
          "internalType": "uint256",
          "name": "totalCollections",
          "type": "uint256"
        },
        {
          "internalType": "uint256",
          "name": "totalPointsDistributed",
          "type": "uint256"
        }
      ],
      "stateMutability": "view",
      "type": "function"
    },
    {
      "inputs": [
        {
          "internalType": "uint256",
          "name": "_reportId",
          "type": "uint256"
        }
      ],
      "name": "approveWaste",
      "outputs": [],
      "stateMutability": "nonpayable",
      "type": "function"
    },
    {
      "inputs": [
        {
          "internalType": "uint256",
          "name": "_reportId",
          "type": "uint256"
        }
      ],
      "name": "collectWaste",
      "outputs": [],
      "stateMutability": "nonpayable",
      "type": "function"
    },
    {
      "inputs": [
        {
          "internalType": "address",
          "name": "_agent",
          "type": "address"
        },
        {
          "internalType": "uint256",
          "name": "_amount",
          "type": "uint256"
        }
      ],
      "name": "distributeAgentTokens",
      "outputs": [],
      "stateMutability": "nonpayable",
      "type": "function"
    },
    {
      "inputs": [
        {
          "internalType": "address",
          "name": "_agent",
          "type": "address"
        }
      ],
      "name": "getAgentStats",
      "outputs": [
        {
          "internalType": "bool",
          "name": "isVerified",
          "type": "bool"
        },
        {
          "internalType": "uint256",
          "name": "points",
          "type": "uint256"
        },
        {
          "internalType": "uint256",
          "name": "totalCollections",
          "type": "uint256"
        },
        {
          "internalType": "uint256",
          "name": "totalPointsDistributed",
          "type": "uint256"
        }
      ],
      "stateMutability": "view",
      "type": "function"
    },
    {
      "inputs": [
        {
          "internalType": "address",
          "name": "_user",
          "type": "address"
        }
      ],
      "name": "getUserStats",
      "outputs": [
        {
          "internalType": "string",
          "name": "username",
          "type": "string"
        },
        {
          "internalType": "uint256",
          "name": "totalWasteReported",
          "type": "uint256"
        },
        {
          "internalType": "uint256",
          "name": "totalTokensEarned",
          "type": "uint256"
        }
      ],
      "stateMutability": "view",
      "type": "function"
    },
    {
      "inputs": [
        {
          "internalType": "uint256",
          "name": "_reportId",
          "type": "uint256"
        }
      ],
      "name": "getWasteReport",
      "outputs": [
        {
          "internalType": "address",
          "name": "reporter",
          "type": "address"
        },
        {
          "internalType": "string",
          "name": "ipfsHash",
          "type": "string"
        },
        {
          "internalType": "uint256",
          "name": "quantity",
          "type": "uint256"
        },
        {
          "internalType": "string",
          "name": "wasteType",
          "type": "string"
        },
        {
          "internalType": "string",
          "name": "location",
          "type": "string"
        },
        {
          "internalType": "bool",
          "name": "isCollected",
          "type": "bool"
        },
        {
          "internalType": "address",
          "name": "collectedBy",
          "type": "address"
        }
      ],
      "stateMutability": "view",
      "type": "function"
    },
    {
      "inputs": [
        {
          "internalType": "uint256",
          "name": "_reportId",
          "type": "uint256"
        }
      ],
      "name": "getWasteReportDetails",
      "outputs": [
        {
          "internalType": "uint256",
          "name": "reportId",
          "type": "uint256"
        },
        {
          "internalType": "address",
          "name": "reporter",
          "type": "address"
        },
        {
          "internalType": "string",
          "name": "ipfsHash",
          "type": "string"
        },
        {
          "internalType": "uint256",
          "name": "quantity",
          "type": "uint256"
        },
        {
          "internalType": "string",
          "name": "wasteType",
          "type": "string"
        },
        {
          "internalType": "string",
          "name": "location",
          "type": "string"
        },
        {
          "internalType": "uint256",
          "name": "timestamp",
          "type": "uint256"
        },
        {
          "internalType": "bool",
          "name": "isCollected",
          "type": "bool"
        },
        {
          "internalType": "address",
          "name": "collectedBy",
          "type": "address"
        },
        {
          "internalType": "uint256",
          "name": "tokenReward",
          "type": "uint256"
        },
        {
          "internalType": "enum WasteVan.VerificationStatus",
          "name": "status",
          "type": "uint8"
        },
        {
          "internalType": "string",
          "name": "rejectionReason",
          "type": "string"
        }
      ],
      "stateMutability": "view",
      "type": "function"
    },
    {
      "inputs": [],
      "name": "owner",
      "outputs": [
        {
          "internalType": "address",
          "name": "",
          "type": "address"
        }
      ],
      "stateMutability": "view",
      "type": "function"
    },
    {
      "inputs": [],
      "name": "purchasePoints",
      "outputs": [],
      "stateMutability": "payable",
      "type": "function"
    },
    {
      "inputs": [],
      "name": "registerAgent",
      "outputs": [],
      "stateMutability": "nonpayable",
      "type": "function"
    },
    {
      "inputs": [
        {
          "internalType": "string",
          "name": "_username",
          "type": "string"
        },
        {
          "internalType": "string",
          "name": "_email",
          "type": "string"
        }
      ],
      "name": "registerUser",
      "outputs": [],
      "stateMutability": "nonpayable",
      "type": "function"
    },
    {
      "inputs": [
        {
          "internalType": "uint256",
          "name": "_reportId",
          "type": "uint256"
        },
        {
          "internalType": "string",
          "name": "_reason",
          "type": "string"
        }
      ],
      "name": "rejectWaste",
      "outputs": [],
      "stateMutability": "nonpayable",
      "type": "function"
    },
    {
      "inputs": [],
      "name": "renounceOwnership",
      "outputs": [],
      "stateMutability": "nonpayable",
      "type": "function"
    },
    {
      "inputs": [],
      "name": "reportCounter",
      "outputs": [
        {
          "internalType": "uint256",
          "name": "",
          "type": "uint256"
        }
      ],
      "stateMutability": "view",
      "type": "function"
    },
    {
      "inputs": [
        {
          "internalType": "string",
          "name": "_ipfsHash",
          "type": "string"
        },
        {
          "internalType": "uint256",
          "name": "_quantity",
          "type": "uint256"
        },
        {
          "internalType": "string",
          "name": "_wasteType",
          "type": "string"
        },
        {
          "internalType": "string",
          "name": "_location",
          "type": "string"
        }
      ],
      "name": "reportWaste",
      "outputs": [],
      "stateMutability": "nonpayable",
      "type": "function"
    },
    {
      "inputs": [
        {
          "internalType": "address",
          "name": "newOwner",
          "type": "address"
        }
      ],
      "name": "transferOwnership",
      "outputs": [],
      "stateMutability": "nonpayable",
      "type": "function"
    },
    {
      "inputs": [
        {
          "internalType": "string",
          "name": "",
          "type": "string"
        }
      ],
      "name": "usedQRCodes",
      "outputs": [
        {
          "internalType": "bool",
          "name": "",
          "type": "bool"
        }
      ],
      "stateMutability": "view",
      "type": "function"
    },
    {
      "inputs": [
        {
          "internalType": "address",
          "name": "",
          "type": "address"
        }
      ],
      "name": "users",
      "outputs": [
        {
          "internalType": "string",
          "name": "username",
          "type": "string"
        },
        {
          "internalType": "string",
          "name": "email",
          "type": "string"
        },
        {
          "internalType": "bool",
          "name": "isRegistered",
          "type": "bool"
        },
        {
          "internalType": "uint256",
          "name": "totalWasteReported",
          "type": "uint256"
        },
        {
          "internalType": "uint256",
          "name": "totalTokensEarned",
          "type": "uint256"
        }
      ],
      "stateMutability": "view",
      "type": "function"
    },
    {
      "inputs": [
        {
          "internalType": "uint256",
          "name": "",
          "type": "uint256"
        }
      ],
      "name": "wasteReports",
      "outputs": [
        {
          "internalType": "uint256",
          "name": "reportId",
          "type": "uint256"
        },
        {
          "internalType": "address",
          "name": "reporter",
          "type": "address"
        },
        {
          "internalType": "string",
          "name": "ipfsHash",
          "type": "string"
        },
        {
          "internalType": "uint256",
          "name": "quantity",
          "type": "uint256"
        },
        {
          "internalType": "string",
          "name": "wasteType",
          "type": "string"
        },
        {
          "internalType": "string",
          "name": "location",
          "type": "string"
        },
        {
          "internalType": "uint256",
          "name": "timestamp",
          "type": "uint256"
        },
        {
          "internalType": "bool",
          "name": "isCollected",
          "type": "bool"
        },
        {
          "internalType": "address",
          "name": "collectedBy",
          "type": "address"
        },
        {
          "internalType": "uint256",
          "name": "tokenReward",
          "type": "uint256"
        },
        {
          "internalType": "enum WasteVan.VerificationStatus",
          "name": "status",
          "type": "uint8"
        },
        {
          "internalType": "string",
          "name": "rejectionReason",
          "type": "string"
        }
      ],
      "stateMutability": "view",
      "type": "function"
    },
    {
      "inputs": [],
      "name": "wasteVanToken",
      "outputs": [
        {
          "internalType": "contract WasteVanToken",
          "name": "",
          "type": "address"
        }
      ],
      "stateMutability": "view",
      "type": "function"
    },
    {
      "inputs": [],
      "name": "withdraw",
      "outputs": [],
      "stateMutability": "nonpayable",
      "type": "function"
    }
  ],
  "bytecode": "0x608060405234801561001057600080fd5b50604051613e47380380613e47833981810160405281019061003291906102b5565b61004e61004361018660201b60201c565b61018e60201b60201c565b6001808190555080600260006101000a81548173ffffffffffffffffffffffffffffffffffffffff021916908373ffffffffffffffffffffffffffffffffffffffff160217905550604051806080016040528060011515815260200160008152602001600081526020016000815250600460003373ffffffffffffffffffffffffffffffffffffffff1673ffffffffffffffffffffffffffffffffffffffff16815260200190815260200160002060008201518160000160006101000a81548160ff0219169083151502179055506020820151816001015560408201518160020155606082015181600301559050503373ffffffffffffffffffffffffffffffffffffffff167f82d0829d9d481e4cb9913897f9b9c903271c4db68c7b3324071d2a7e3b2c5ff060405160405180910390a2506102e2565b600033905090565b60008060009054906101000a900473ffffffffffffffffffffffffffffffffffffffff169050816000806101000a81548173ffffffffffffffffffffffffffffffffffffffff021916908373ffffffffffffffffffffffffffffffffffffffff1602179055508173ffffffffffffffffffffffffffffffffffffffff168173ffffffffffffffffffffffffffffffffffffffff167f8be0079c531659141344cd1fd0a4f28419497f9722a3daafe3b4186f6b6457e060405160405180910390a35050565b600080fd5b600073ffffffffffffffffffffffffffffffffffffffff82169050919050565b600061028282610257565b9050919050565b61029281610277565b811461029d57600080fd5b50565b6000815190506102af81610289565b92915050565b6000602082840312156102cb576102ca610252565b5b60006102d9848285016102a0565b91505092915050565b613b56806102f16000396000f3fe60806040526004361061014b5760003560e01c8063898a97b9116100b6578063b9bc38f21161006f578063b9bc38f21461047a578063c5df2882146104a5578063d763bf7b146104ce578063de9f9ee414610511578063f2fde38b1461053c578063fd66091e146105655761014b565b8063898a97b91461034f5780638da5cb5b1461037a578063907b5760146103a5578063a87430ba146103ce578063b4885dae1461040f578063b5695b381461043a5761014b565b80634e43603a116101085780634e43603a14610241578063518dab3c14610280578063648c9f6d146102bd578063715018a6146102e65780637384490b146102fd5780637d03106e146103265761014b565b80630cdd8982146101505780631d2e4afd14610198578063295e9265146101c157806335eb5208146102095780633ccfd60b146102205780634c8b973814610237575b600080fd5b34801561015c57600080fd5b50610177600480360381019061017291906129be565b6105a5565b60405161018f9c9b9a99989796959493929190612b5d565b60405180910390f35b3480156101a457600080fd5b506101bf60048036038101906101ba9190612d68565b61087f565b005b3480156101cd57600080fd5b506101e860048036038101906101e391906129be565b610a31565b6040516102009c9b9a99989796959493929190612b5d565b60405180910390f35b34801561021557600080fd5b5061021e610e42565b005b34801561022c57600080fd5b506102356110ac565b005b61023f611104565b005b34801561024d57600080fd5b5061026860048036038101906102639190612e0c565b611255565b60405161027793929190612e39565b60405180910390f35b34801561028c57600080fd5b506102a760048036038101906102a29190612e77565b611418565b6040516102b49190612ec0565b60405180910390f35b3480156102c957600080fd5b506102e460048036038101906102df91906129be565b61144e565b005b3480156102f257600080fd5b506102fb611977565b005b34801561030957600080fd5b50610324600480360381019061031f9190612edb565b61198b565b005b34801561033257600080fd5b5061034d60048036038101906103489190612f1b565b611b03565b005b34801561035b57600080fd5b50610364611d8b565b6040516103719190612f77565b60405180910390f35b34801561038657600080fd5b5061038f611d97565b60405161039c9190612f92565b60405180910390f35b3480156103b157600080fd5b506103cc60048036038101906103c79190612fad565b611dc0565b005b3480156103da57600080fd5b506103f560048036038101906103f09190612e0c565b61214a565b604051610406959493929190613068565b60405180910390f35b34801561041b57600080fd5b5061042461229d565b6040516104319190613128565b60405180910390f35b34801561044657600080fd5b50610461600480360381019061045c9190612e0c565b6122c3565b6040516104719493929190613143565b60405180910390f35b34801561048657600080fd5b5061048f612374565b60405161049c9190612f77565b60405180910390f35b3480156104b157600080fd5b506104cc60048036038101906104c791906129be565b61237a565b005b3480156104da57600080fd5b506104f560048036038101906104f091906129be565b612386565b6040516105089796959493929190613188565b60405180910390f35b34801561051d57600080fd5b50610526612765565b6040516105339190612f77565b60405180910390f35b34801561054857600080fd5b50610563600480360381019061055e9190612e0c565b61276a565b005b34801561057157600080fd5b5061058c60048036038101906105879190612e0c565b6127ed565b60405161059c9493929190613143565b60405180910390f35b60056020528060005260406000206000915090508060000154908060010160009054906101000a900473ffffffffffffffffffffffffffffffffffffffff16908060020180546105f49061323b565b80601f01602080910402602001604051908101604052809291908181526020018280546106209061323b565b801561066d5780601f106106425761010080835404028352916020019161066d565b820191906000526020600020905b81548152906001019060200180831161065057829003601f168201915b5050505050908060030154908060040180546106889061323b565b80601f01602080910402602001604051908101604052809291908181526020018280546106b49061323b565b80156107015780601f106106d657610100808354040283529160200191610701565b820191906000526020600020905b8154815290600101906020018083116106e457829003601f168201915b5050505050908060050180546107169061323b565b80601f01602080910402602001604051908101604052809291908181526020018280546107429061323b565b801561078f5780601f106107645761010080835404028352916020019161078f565b820191906000526020600020905b81548152906001019060200180831161077257829003601f168201915b5050505050908060060154908060070160009054906101000a900460ff16908060070160019054906101000a900473ffffffffffffffffffffffffffffffffffffffff16908060080154908060090160009054906101000a900460ff169080600a0180546107fc9061323b565b80601f01602080910402602001604051908101604052809291908181526020018280546108289061323b565b80156108755780601f1061084a57610100808354040283529160200191610875565b820191906000526020600020905b81548152906001019060200180831161085857829003601f168201915b505050505090508c565b600360003373ffffffffffffffffffffffffffffffffffffffff1673ffffffffffffffffffffffffffffffffffffffff16815260200190815260200160002060020160009054906101000a900460ff161561090f576040517f08c379a0000000000000000000000000000000000000000000000000000000008152600401610906906132b8565b60405180910390fd5b6040518060a00160405280838152602001828152602001600115158152602001600081526020016000815250600360003373ffffffffffffffffffffffffffffffffffffffff1673ffffffffffffffffffffffffffffffffffffffff168152602001908152602001600020600082015181600001908161098f919061347a565b5060208201518160010190816109a5919061347a565b5060408201518160020160006101000a81548160ff02191690831515021790555060608201518160030155608082015181600401559050503373ffffffffffffffffffffffffffffffffffffffff167f92822564bab8864c3a47b34e8d23fbce5c46234eb5da261f94087b995ac0f33b8383604051610a2592919061354c565b60405180910390a25050565b60008060606000606080600080600080600060606000600560008f815260200190815260200160002060405180610180016040529081600082015481526020016001820160009054906101000a900473ffffffffffffffffffffffffffffffffffffffff1673ffffffffffffffffffffffffffffffffffffffff1673ffffffffffffffffffffffffffffffffffffffff168152602001600282018054610ad69061323b565b80601f0160208091040260200160405190810160405280929190818152602001828054610b029061323b565b8015610b4f5780601f10610b2457610100808354040283529160200191610b4f565b820191906000526020600020905b815481529060010190602001808311610b3257829003601f168201915b5050505050815260200160038201548152602001600482018054610b729061323b565b80601f0160208091040260200160405190810160405280929190818152602001828054610b9e9061323b565b8015610beb5780601f10610bc057610100808354040283529160200191610beb565b820191906000526020600020905b815481529060010190602001808311610bce57829003601f168201915b50505050508152602001600582018054610c049061323b565b80601f0160208091040260200160405190810160405280929190818152602001828054610c309061323b565b8015610c7d5780601f10610c5257610100808354040283529160200191610c7d565b820191906000526020600020905b815481529060010190602001808311610c6057829003601f168201915b50505050508152602001600682015481526020016007820160009054906101000a900460ff161515151581526020016007820160019054906101000a900473ffffffffffffffffffffffffffffffffffffffff1673ffffffffffffffffffffffffffffffffffffffff1673ffffffffffffffffffffffffffffffffffffffff168152602001600882015481526020016009820160009054906101000a900460ff166002811115610d3057610d2f612ae6565b5b6002811115610d4257610d41612ae6565b5b8152602001600a82018054610d569061323b565b80601f0160208091040260200160405190810160405280929190818152602001828054610d829061323b565b8015610dcf5780601f10610da457610100808354040283529160200191610dcf565b820191906000526020600020905b815481529060010190602001808311610db257829003601f168201915b5050505050815250509050806000015181602001518260400151836060015184608001518560a001518660c001518760e001518861010001518961012001518a61014001518b61016001519c509c509c509c509c509c509c509c509c509c509c509c505091939597999b5091939597999b565b600460003373ffffffffffffffffffffffffffffffffffffffff1673ffffffffffffffffffffffffffffffffffffffff16815260200190815260200160002060000160009054906101000a900460ff1615610ed2576040517f08c379a0000000000000000000000000000000000000000000000000000000008152600401610ec9906135cf565b60405180910390fd5b604051806080016040528060011515815260200160008152602001600081526020016000815250600460003373ffffffffffffffffffffffffffffffffffffffff1673ffffffffffffffffffffffffffffffffffffffff16815260200190815260200160002060008201518160000160006101000a81548160ff021916908315150217905550602082015181600101556040820151816002015560608201518160030155905050600260009054906101000a900473ffffffffffffffffffffffffffffffffffffffff1673ffffffffffffffffffffffffffffffffffffffff166340c10f1933683635c9adc5dea000006040518363ffffffff1660e01b8152600401610fdf92919061362a565b600060405180830381600087803b158015610ff957600080fd5b505af192505050801561100a575060015b15611067573373ffffffffffffffffffffffffffffffffffffffff167f16b0da2ffcb90c6723317bd637d9aad7f04711f42bbe0ac0918ebe10f1f9001c683635c9adc5dea0000060405161105e9190613653565b60405180910390a25b3373ffffffffffffffffffffffffffffffffffffffff167f82d0829d9d481e4cb9913897f9b9c903271c4db68c7b3324071d2a7e3b2c5ff060405160405180910390a2565b6110b461282a565b6110bc611d97565b73ffffffffffffffffffffffffffffffffffffffff166108fc479081150290604051600060405180830381858888f19350505050158015611101573d6000803e3d6000fd5b50565b600460003373ffffffffffffffffffffffffffffffffffffffff1673ffffffffffffffffffffffffffffffffffffffff16815260200190815260200160002060000160009054906101000a900460ff16611193576040517f08c379a000000000000000000000000000000000000000000000000000000000815260040161118a906136ba565b60405180910390fd5b6000670de0b6b3a7640000346111a99190613738565b905080600460003373ffffffffffffffffffffffffffffffffffffffff1673ffffffffffffffffffffffffffffffffffffffff16815260200190815260200160002060010160008282546111fd9190613769565b925050819055503373ffffffffffffffffffffffffffffffffffffffff167f4188bb0074eb5be3d6b8089e8faaa457e592aab04dd8d5fc19d7358791c4eee48260405161124a9190612f77565b60405180910390a250565b60606000806000600360008673ffffffffffffffffffffffffffffffffffffffff1673ffffffffffffffffffffffffffffffffffffffff1681526020019081526020016000206040518060a00160405290816000820180546112b69061323b565b80601f01602080910402602001604051908101604052809291908181526020018280546112e29061323b565b801561132f5780601f106113045761010080835404028352916020019161132f565b820191906000526020600020905b81548152906001019060200180831161131257829003601f168201915b505050505081526020016001820180546113489061323b565b80601f01602080910402602001604051908101604052809291908181526020018280546113749061323b565b80156113c15780601f10611396576101008083540402835291602001916113c1565b820191906000526020600020905b8154815290600101906020018083116113a457829003601f168201915b505050505081526020016002820160009054906101000a900460ff16151515158152602001600382015481526020016004820154815250509050806000015181606001518260800151935093509350509193909250565b6006818051602081018201805184825260208301602085012081835280955050505050506000915054906101000a900460ff1681565b600460003373ffffffffffffffffffffffffffffffffffffffff1673ffffffffffffffffffffffffffffffffffffffff16815260200190815260200160002060000160009054906101000a900460ff166114dd576040517f08c379a00000000000000000000000000000000000000000000000000000000081526004016114d4906136ba565b60405180910390fd5b60006005600083815260200190815260200160002090506000600281111561150857611507612ae6565b5b8160090160009054906101000a900460ff16600281111561152c5761152b612ae6565b5b1461156c576040517f08c379a0000000000000000000000000000000000000000000000000000000008152600401611563906137e9565b60405180910390fd5b600073ffffffffffffffffffffffffffffffffffffffff168160010160009054906101000a900473ffffffffffffffffffffffffffffffffffffffff1673ffffffffffffffffffffffffffffffffffffffff16036115ff576040517f08c379a00000000000000000000000000000000000000000000000000000000081526004016115f690613855565b60405180910390fd5b60018160090160006101000a81548160ff0219169083600281111561162757611626612ae6565b5b021790555060018160070160006101000a81548160ff021916908315150217905550338160070160016101000a81548173ffffffffffffffffffffffffffffffffffffffff021916908373ffffffffffffffffffffffffffffffffffffffff160217905550600460003373ffffffffffffffffffffffffffffffffffffffff1673ffffffffffffffffffffffffffffffffffffffff16815260200190815260200160002060020160008154809291906116df90613875565b91905055506064600460003373ffffffffffffffffffffffffffffffffffffffff1673ffffffffffffffffffffffffffffffffffffffff16815260200190815260200160002060010160008282546117379190613769565b92505081905550600260009054906101000a900473ffffffffffffffffffffffffffffffffffffffff1673ffffffffffffffffffffffffffffffffffffffff166340c10f198260010160009054906101000a900473ffffffffffffffffffffffffffffffffffffffff1683600801546040518363ffffffff1660e01b81526004016117c39291906138bd565b600060405180830381600087803b1580156117dd57600080fd5b505af19250505080156117ee575060015b15611875578060080154600360008360010160009054906101000a900473ffffffffffffffffffffffffffffffffffffffff1673ffffffffffffffffffffffffffffffffffffffff1673ffffffffffffffffffffffffffffffffffffffff168152602001908152602001600020600401600082825461186d9190613769565b925050819055505b3373ffffffffffffffffffffffffffffffffffffffff16827fc9f75226a31c0d65b81755fe248896e822c7af404af44933b5faed5e9055f3e660405160405180910390a33373ffffffffffffffffffffffffffffffffffffffff16827f38d3917dbc216c1520f644e7bb11d91fd7ab92c81c7da47f42e0e7fa7bbfa24c60405160405180910390a38060010160009054906101000a900473ffffffffffffffffffffffffffffffffffffffff1673ffffffffffffffffffffffffffffffffffffffff167f16b0da2ffcb90c6723317bd637d9aad7f04711f42bbe0ac0918ebe10f1f9001c826008015460405161196b9190612f77565b60405180910390a25050565b61197f61282a565b61198960006128a8565b565b61199361282a565b600460008373ffffffffffffffffffffffffffffffffffffffff1673ffffffffffffffffffffffffffffffffffffffff16815260200190815260200160002060000160009054906101000a900460ff16611a22576040517f08c379a0000000000000000000000000000000000000000000000000000000008152600401611a19906136ba565b60405180910390fd5b600260009054906101000a900473ffffffffffffffffffffffffffffffffffffffff1673ffffffffffffffffffffffffffffffffffffffff166340c10f1983836040518363ffffffff1660e01b8152600401611a7f9291906138bd565b600060405180830381600087803b158015611a9957600080fd5b505af1158015611aad573d6000803e3d6000fd5b505050508173ffffffffffffffffffffffffffffffffffffffff167f16b0da2ffcb90c6723317bd637d9aad7f04711f42bbe0ac0918ebe10f1f9001c82604051611af79190612f77565b60405180910390a25050565b600460003373ffffffffffffffffffffffffffffffffffffffff1673ffffffffffffffffffffffffffffffffffffffff16815260200190815260200160002060000160009054906101000a900460ff16611b92576040517f08c379a0000000000000000000000000000000000000000000000000000000008152600401611b89906136ba565b60405180910390fd5b600060056000848152602001908152602001600020905060006002811115611bbd57611bbc612ae6565b5b8160090160009054906101000a900460ff166002811115611be157611be0612ae6565b5b14611c21576040517f08c379a0000000000000000000000000000000000000000000000000000000008152600401611c18906137e9565b60405180910390fd5b600073ffffffffffffffffffffffffffffffffffffffff168160010160009054906101000a900473ffffffffffffffffffffffffffffffffffffffff1673ffffffffffffffffffffffffffffffffffffffff1603611cb4576040517f08c379a0000000000000000000000000000000000000000000000000000000008152600401611cab90613855565b60405180910390fd5b6000825111611cf8576040517f08c379a0000000000000000000000000000000000000000000000000000000008152600401611cef90613932565b60405180910390fd5b60028160090160006101000a81548160ff02191690836002811115611d2057611d1f612ae6565b5b02179055508181600a019081611d36919061347a565b503373ffffffffffffffffffffffffffffffffffffffff16837fa30465b144190351a63c963eaa4c36c298186bb7b78e53bd3deecc99c09c016084604051611d7e9190613952565b60405180910390a3505050565b670de0b6b3a764000081565b60008060009054906101000a900473ffffffffffffffffffffffffffffffffffffffff16905090565b600360003373ffffffffffffffffffffffffffffffffffffffff1673ffffffffffffffffffffffffffffffffffffffff16815260200190815260200160002060020160009054906101000a900460ff16611e4f576040517f08c379a0000000000000000000000000000000000000000000000000000000008152600401611e46906139c0565b60405180910390fd5b60076000815480929190611e6290613875565b919050555060405180610180016040528060075481526020013373ffffffffffffffffffffffffffffffffffffffff168152602001858152602001848152602001838152602001828152602001428152602001600015158152602001600073ffffffffffffffffffffffffffffffffffffffff168152602001670de0b6b3a764000085611eef91906139e0565b815260200160006002811115611f0857611f07612ae6565b5b8152602001604051806020016040528060008152508152506005600060075481526020019081526020016000206000820151816000015560208201518160010160006101000a81548173ffffffffffffffffffffffffffffffffffffffff021916908373ffffffffffffffffffffffffffffffffffffffff1602179055506040820151816002019081611f9b919061347a565b50606082015181600301556080820151816004019081611fbb919061347a565b5060a0820151816005019081611fd1919061347a565b5060c0820151816006015560e08201518160070160006101000a81548160ff0219169083151502179055506101008201518160070160016101000a81548173ffffffffffffffffffffffffffffffffffffffff021916908373ffffffffffffffffffffffffffffffffffffffff16021790555061012082015181600801556101408201518160090160006101000a81548160ff0219169083600281111561207b5761207a612ae6565b5b021790555061016082015181600a019081612096919061347a565b5090505082600360003373ffffffffffffffffffffffffffffffffffffffff1673ffffffffffffffffffffffffffffffffffffffff16815260200190815260200160002060030160008282546120ec9190613769565b925050819055503373ffffffffffffffffffffffffffffffffffffffff166007547f8380288083f7a53853cdd4ad41fb7f4d17a3ea763b59968823158f363ed7e07c8660405161213c9190613952565b60405180910390a350505050565b600360205280600052604060002060009150905080600001805461216d9061323b565b80601f01602080910402602001604051908101604052809291908181526020018280546121999061323b565b80156121e65780601f106121bb576101008083540402835291602001916121e6565b820191906000526020600020905b8154815290600101906020018083116121c957829003601f168201915b5050505050908060010180546121fb9061323b565b80601f01602080910402602001604051908101604052809291908181526020018280546122279061323b565b80156122745780601f1061224957610100808354040283529160200191612274565b820191906000526020600020905b81548152906001019060200180831161225757829003601f168201915b5050505050908060020160009054906101000a900460ff16908060030154908060040154905085565b600260009054906101000a900473ffffffffffffffffffffffffffffffffffffffff1681565b6000806000806000600460008773ffffffffffffffffffffffffffffffffffffffff1673ffffffffffffffffffffffffffffffffffffffff1681526020019081526020016000206040518060800160405290816000820160009054906101000a900460ff161515151581526020016001820154815260200160028201548152602001600382015481525050905080600001518160200151826040015183606001519450945094509450509193509193565b60075481565b6123838161144e565b50565b6000606060006060806000806000600560008a815260200190815260200160002060405180610180016040529081600082015481526020016001820160009054906101000a900473ffffffffffffffffffffffffffffffffffffffff1673ffffffffffffffffffffffffffffffffffffffff1673ffffffffffffffffffffffffffffffffffffffff1681526020016002820180546124239061323b565b80601f016020809104026020016040519081016040528092919081815260200182805461244f9061323b565b801561249c5780601f106124715761010080835404028352916020019161249c565b820191906000526020600020905b81548152906001019060200180831161247f57829003601f168201915b50505050508152602001600382015481526020016004820180546124bf9061323b565b80601f01602080910402602001604051908101604052809291908181526020018280546124eb9061323b565b80156125385780601f1061250d57610100808354040283529160200191612538565b820191906000526020600020905b81548152906001019060200180831161251b57829003601f168201915b505050505081526020016005820180546125519061323b565b80601f016020809104026020016040519081016040528092919081815260200182805461257d9061323b565b80156125ca5780601f1061259f576101008083540402835291602001916125ca565b820191906000526020600020905b8154815290600101906020018083116125ad57829003601f168201915b50505050508152602001600682015481526020016007820160009054906101000a900460ff161515151581526020016007820160019054906101000a900473ffffffffffffffffffffffffffffffffffffffff1673ffffffffffffffffffffffffffffffffffffffff1673ffffffffffffffffffffffffffffffffffffffff168152602001600882015481526020016009820160009054906101000a900460ff16600281111561267d5761267c612ae6565b5b600281111561268f5761268e612ae6565b5b8152602001600a820180546126a39061323b565b80601f01602080910402602001604051908101604052809291908181526020018280546126cf9061323b565b801561271c5780601f106126f15761010080835404028352916020019161271c565b820191906000526020600020905b8154815290600101906020018083116126ff57829003601f168201915b505050505081525050905080602001518160400151826060015183608001518460a001518560e00151866101000151975097509750975097509750975050919395979092949650565b606481565b61277261282a565b600073ffffffffffffffffffffffffffffffffffffffff168173ffffffffffffffffffffffffffffffffffffffff16036127e1576040517f08c379a00000000000000000000000000000000000000000000000000000000081526004016127d890613a94565b60405180910390fd5b6127ea816128a8565b50565b60046020528060005260406000206000915090508060000160009054906101000a900460ff16908060010154908060020154908060030154905084565b61283261296c565b73ffffffffffffffffffffffffffffffffffffffff16612850611d97565b73ffffffffffffffffffffffffffffffffffffffff16146128a6576040517f08c379a000000000000000000000000000000000000000000000000000000000815260040161289d90613b00565b60405180910390fd5b565b60008060009054906101000a900473ffffffffffffffffffffffffffffffffffffffff169050816000806101000a81548173ffffffffffffffffffffffffffffffffffffffff021916908373ffffffffffffffffffffffffffffffffffffffff1602179055508173ffffffffffffffffffffffffffffffffffffffff168173ffffffffffffffffffffffffffffffffffffffff167f8be0079c531659141344cd1fd0a4f28419497f9722a3daafe3b4186f6b6457e060405160405180910390a35050565b600033905090565b6000604051905090565b600080fd5b600080fd5b6000819050919050565b61299b81612988565b81146129a657600080fd5b50565b6000813590506129b881612992565b92915050565b6000602082840312156129d4576129d361297e565b5b60006129e2848285016129a9565b91505092915050565b6129f481612988565b82525050565b600073ffffffffffffffffffffffffffffffffffffffff82169050919050565b6000612a25826129fa565b9050919050565b612a3581612a1a565b82525050565b600081519050919050565b600082825260208201905092915050565b60005b83811015612a75578082015181840152602081019050612a5a565b60008484015250505050565b6000601f19601f8301169050919050565b6000612a9d82612a3b565b612aa78185612a46565b9350612ab7818560208601612a57565b612ac081612a81565b840191505092915050565b60008115159050919050565b612ae081612acb565b82525050565b7f4e487b7100000000000000000000000000000000000000000000000000000000600052602160045260246000fd5b60038110612b2657612b25612ae6565b5b50565b6000819050612b3782612b15565b919050565b6000612b4782612b29565b9050919050565b612b5781612b3c565b82525050565b600061018082019050612b73600083018f6129eb565b612b80602083018e612a2c565b8181036040830152612b92818d612a92565b9050612ba1606083018c6129eb565b8181036080830152612bb3818b612a92565b905081810360a0830152612bc7818a612a92565b9050612bd660c08301896129eb565b612be360e0830188612ad7565b612bf1610100830187612a2c565b612bff6101208301866129eb565b612c0d610140830185612b4e565b818103610160830152612c208184612a92565b90509d9c50505050505050505050505050565b600080fd5b600080fd5b7f4e487b7100000000000000000000000000000000000000000000000000000000600052604160045260246000fd5b612c7582612a81565b810181811067ffffffffffffffff82111715612c9457612c93612c3d565b5b80604052505050565b6000612ca7612974565b9050612cb38282612c6c565b919050565b600067ffffffffffffffff821115612cd357612cd2612c3d565b5b612cdc82612a81565b9050602081019050919050565b82818337600083830152505050565b6000612d0b612d0684612cb8565b612c9d565b905082815260208101848484011115612d2757612d26612c38565b5b612d32848285612ce9565b509392505050565b600082601f830112612d4f57612d4e612c33565b5b8135612d5f848260208601612cf8565b91505092915050565b60008060408385031215612d7f57612d7e61297e565b5b600083013567ffffffffffffffff811115612d9d57612d9c612983565b5b612da985828601612d3a565b925050602083013567ffffffffffffffff811115612dca57612dc9612983565b5b612dd685828601612d3a565b9150509250929050565b612de981612a1a565b8114612df457600080fd5b50565b600081359050612e0681612de0565b92915050565b600060208284031215612e2257612e2161297e565b5b6000612e3084828501612df7565b91505092915050565b60006060820190508181036000830152612e538186612a92565b9050612e6260208301856129eb565b612e6f60408301846129eb565b949350505050565b600060208284031215612e8d57612e8c61297e565b5b600082013567ffffffffffffffff811115612eab57612eaa612983565b5b612eb784828501612d3a565b91505092915050565b6000602082019050612ed56000830184612ad7565b92915050565b60008060408385031215612ef257612ef161297e565b5b6000612f0085828601612df7565b9250506020612f11858286016129a9565b9150509250929050565b60008060408385031215612f3257612f3161297e565b5b6000612f40858286016129a9565b925050602083013567ffffffffffffffff811115612f6157612f60612983565b5b612f6d85828601612d3a565b9150509250929050565b6000602082019050612f8c60008301846129eb565b92915050565b6000602082019050612fa76000830184612a2c565b92915050565b60008060008060808587031215612fc757612fc661297e565b5b600085013567ffffffffffffffff811115612fe557612fe4612983565b5b612ff187828801612d3a565b9450506020613002878288016129a9565b935050604085013567ffffffffffffffff81111561302357613022612983565b5b61302f87828801612d3a565b925050606085013567ffffffffffffffff8111156130505761304f612983565b5b61305c87828801612d3a565b91505092959194509250565b600060a08201905081810360008301526130828188612a92565b905081810360208301526130968187612a92565b90506130a56040830186612ad7565b6130b260608301856129eb565b6130bf60808301846129eb565b9695505050505050565b6000819050919050565b60006130ee6130e96130e4846129fa565b6130c9565b6129fa565b9050919050565b6000613100826130d3565b9050919050565b6000613112826130f5565b9050919050565b61312281613107565b82525050565b600060208201905061313d6000830184613119565b92915050565b60006080820190506131586000830187612ad7565b61316560208301866129eb565b61317260408301856129eb565b61317f60608301846129eb565b95945050505050565b600060e08201905061319d600083018a612a2c565b81810360208301526131af8189612a92565b90506131be60408301886129eb565b81810360608301526131d08187612a92565b905081810360808301526131e48186612a92565b90506131f360a0830185612ad7565b61320060c0830184612a2c565b98975050505050505050565b7f4e487b7100000000000000000000000000000000000000000000000000000000600052602260045260246000fd5b6000600282049050600182168061325357607f821691505b6020821081036132665761326561320c565b5b50919050565b7f5573657220616c72656164792072656769737465726564000000000000000000600082015250565b60006132a2601783612a46565b91506132ad8261326c565b602082019050919050565b600060208201905081810360008301526132d181613295565b9050919050565b60008190508160005260206000209050919050565b60006020601f8301049050919050565b600082821b905092915050565b60006008830261333a7fffffffffffffffffffffffffffffffffffffffffffffffffffffffffffffffff826132fd565b61334486836132fd565b95508019841693508086168417925050509392505050565b600061337761337261336d84612988565b6130c9565b612988565b9050919050565b6000819050919050565b6133918361335c565b6133a561339d8261337e565b84845461330a565b825550505050565b600090565b6133ba6133ad565b6133c5818484613388565b505050565b5b818110156133e9576133de6000826133b2565b6001810190506133cb565b5050565b601f82111561342e576133ff816132d8565b613408846132ed565b81016020851015613417578190505b61342b613423856132ed565b8301826133ca565b50505b505050565b600082821c905092915050565b600061345160001984600802613433565b1980831691505092915050565b600061346a8383613440565b9150826002028217905092915050565b61348382612a3b565b67ffffffffffffffff81111561349c5761349b612c3d565b5b6134a6825461323b565b6134b18282856133ed565b600060209050601f8311600181146134e457600084156134d2578287015190505b6134dc858261345e565b865550613544565b601f1984166134f2866132d8565b60005b8281101561351a578489015182556001820191506020850194506020810190506134f5565b868310156135375784890151613533601f891682613440565b8355505b6001600288020188555050505b505050505050565b600060408201905081810360008301526135668185612a92565b9050818103602083015261357a8184612a92565b90509392505050565b7f4167656e7420616c726561647920726567697374657265640000000000000000600082015250565b60006135b9601883612a46565b91506135c482613583565b602082019050919050565b600060208201905081810360008301526135e8816135ac565b9050919050565b6000819050919050565b600061361461360f61360a846135ef565b6130c9565b612988565b9050919050565b613624816135f9565b82525050565b600060408201905061363f6000830185612a2c565b61364c602083018461361b565b9392505050565b6000602082019050613668600083018461361b565b92915050565b7f4e6f742061207665726966696564206167656e74000000000000000000000000600082015250565b60006136a4601483612a46565b91506136af8261366e565b602082019050919050565b600060208201905081810360008301526136d381613697565b9050919050565b7f4e487b7100000000000000000000000000000000000000000000000000000000600052601260045260246000fd5b7f4e487b7100000000000000000000000000000000000000000000000000000000600052601160045260246000fd5b600061374382612988565b915061374e83612988565b92508261375e5761375d6136da565b5b828204905092915050565b600061377482612988565b915061377f83612988565b925082820190508082111561379757613796613709565b5b92915050565b7f5265706f727420616c72656164792070726f6365737365640000000000000000600082015250565b60006137d3601883612a46565b91506137de8261379d565b602082019050919050565b60006020820190508181036000830152613802816137c6565b9050919050565b7f496e76616c6964207265706f7274000000000000000000000000000000000000600082015250565b600061383f600e83612a46565b915061384a82613809565b602082019050919050565b6000602082019050818103600083015261386e81613832565b9050919050565b600061388082612988565b91507fffffffffffffffffffffffffffffffffffffffffffffffffffffffffffffffff82036138b2576138b1613709565b5b600182019050919050565b60006040820190506138d26000830185612a2c565b6138df60208301846129eb565b9392505050565b7f52656a656374696f6e20726561736f6e20726571756972656400000000000000600082015250565b600061391c601983612a46565b9150613927826138e6565b602082019050919050565b6000602082019050818103600083015261394b8161390f565b9050919050565b6000602082019050818103600083015261396c8184612a92565b905092915050565b7f55736572206e6f74207265676973746572656400000000000000000000000000600082015250565b60006139aa601383612a46565b91506139b582613974565b602082019050919050565b600060208201905081810360008301526139d98161399d565b9050919050565b60006139eb82612988565b91506139f683612988565b9250828202613a0481612988565b91508282048414831517613a1b57613a1a613709565b5b5092915050565b7f4f776e61626c653a206e6577206f776e657220697320746865207a65726f206160008201527f6464726573730000000000000000000000000000000000000000000000000000602082015250565b6000613a7e602683612a46565b9150613a8982613a22565b604082019050919050565b60006020820190508181036000830152613aad81613a71565b9050919050565b7f4f776e61626c653a2063616c6c6572206973206e6f7420746865206f776e6572600082015250565b6000613aea602083612a46565b9150613af582613ab4565b602082019050919050565b60006020820190508181036000830152613b1981613add565b905091905056fea2646970667358221220d2c2d0ee3a9d640ba79e156614835f4481f54be3cdf55b1b5c49bb393751347264736f6c634300081c0033",
  "linkReferences": {},
  "deployedLinkReferences": {}
}