{
  "_format": "hh-sol-artifact-1",
  "contractName": "WasteVan",
  "sourceName": "contracts/WasteVan.sol",
  "abi": [
    {
      "inputs": [
        {
          "internalType": "address",
          "name": "_tokenAddress",
          "type": "address"
        }
      ],
      "stateMutability": "nonpayable",
      "type": "constructor"
    },
    {
      "anonymous": false,
      "inputs": [
        {
          "indexed": true,
          "internalType": "address",
          "name": "agent",
          "type": "address"
        }
      ],
      "name": "AgentRegistered",
      "type": "event"
    },
    {
      "anonymous": false,
      "inputs": [
        {
          "indexed": true,
          "internalType": "address",
          "name": "previousOwner",
          "type": "address"
        },
        {
          "indexed": true,
          "internalType": "address",
          "name": "newOwner",
          "type": "address"
        }
      ],
      "name": "OwnershipTransferred",
      "type": "event"
    },
    {
      "anonymous": false,
      "inputs": [
        {
          "indexed": true,
          "internalType": "address",
          "name": "agent",
          "type": "address"
        },
        {
          "indexed": false,
          "internalType": "uint256",
          "name": "amount",
          "type": "uint256"
        }
      ],
      "name": "PointsPurchased",
      "type": "event"
    },
    {
      "anonymous": false,
      "inputs": [
        {
          "indexed": true,
          "internalType": "address",
          "name": "user",
          "type": "address"
        },
        {
          "indexed": false,
          "internalType": "uint256",
          "name": "amount",
          "type": "uint256"
        }
      ],
      "name": "TokensDistributed",
      "type": "event"
    },
    {
      "anonymous": false,
      "inputs": [
        {
          "indexed": true,
          "internalType": "address",
          "name": "user",
          "type": "address"
        },
        {
          "indexed": false,
          "internalType": "string",
          "name": "username",
          "type": "string"
        },
        {
          "indexed": false,
          "internalType": "string",
          "name": "email",
          "type": "string"
        }
      ],
      "name": "UserRegistered",
      "type": "event"
    },
    {
      "anonymous": false,
      "inputs": [
        {
          "indexed": true,
          "internalType": "uint256",
          "name": "reportId",
          "type": "uint256"
        },
        {
          "indexed": true,
          "internalType": "address",
          "name": "agent",
          "type": "address"
        }
      ],
      "name": "WasteCollected",
      "type": "event"
    },
    {
      "anonymous": false,
      "inputs": [
        {
          "indexed": true,
          "internalType": "uint256",
          "name": "reportId",
          "type": "uint256"
        },
        {
          "indexed": true,
          "internalType": "address",
          "name": "reporter",
          "type": "address"
        },
        {
          "indexed": false,
          "internalType": "string",
          "name": "ipfsHash",
          "type": "string"
        }
      ],
      "name": "WasteReported",
      "type": "event"
    },
    {
      "inputs": [],
      "name": "POINTS_PER_COLLECTION",
      "outputs": [
        {
          "internalType": "uint256",
          "name": "",
          "type": "uint256"
        }
      ],
      "stateMutability": "view",
      "type": "function"
    },
    {
      "inputs": [],
      "name": "TOKENS_PER_POINT",
      "outputs": [
        {
          "internalType": "uint256",
          "name": "",
          "type": "uint256"
        }
      ],
      "stateMutability": "view",
      "type": "function"
    },
    {
      "inputs": [
        {
          "internalType": "address",
          "name": "",
          "type": "address"
        }
      ],
      "name": "agents",
      "outputs": [
        {
          "internalType": "bool",
          "name": "isVerified",
          "type": "bool"
        },
        {
          "internalType": "uint256",
          "name": "points",
          "type": "uint256"
        },
        {
          "internalType": "uint256",
          "name": "totalCollections",
          "type": "uint256"
        },
        {
          "internalType": "uint256",
          "name": "totalPointsDistributed",
          "type": "uint256"
        }
      ],
      "stateMutability": "view",
      "type": "function"
    },
    {
      "inputs": [
        {
          "internalType": "uint256",
          "name": "_reportId",
          "type": "uint256"
        }
      ],
      "name": "collectWaste",
      "outputs": [],
      "stateMutability": "nonpayable",
      "type": "function"
    },
    {
      "inputs": [
        {
          "internalType": "address",
          "name": "_agent",
          "type": "address"
        }
      ],
      "name": "getAgentStats",
      "outputs": [
        {
          "internalType": "bool",
          "name": "isVerified",
          "type": "bool"
        },
        {
          "internalType": "uint256",
          "name": "points",
          "type": "uint256"
        },
        {
          "internalType": "uint256",
          "name": "totalCollections",
          "type": "uint256"
        },
        {
          "internalType": "uint256",
          "name": "totalPointsDistributed",
          "type": "uint256"
        }
      ],
      "stateMutability": "view",
      "type": "function"
    },
    {
      "inputs": [
        {
          "internalType": "address",
          "name": "_user",
          "type": "address"
        }
      ],
      "name": "getUserStats",
      "outputs": [
        {
          "internalType": "string",
          "name": "username",
          "type": "string"
        },
        {
          "internalType": "uint256",
          "name": "totalWasteReported",
          "type": "uint256"
        },
        {
          "internalType": "uint256",
          "name": "totalTokensEarned",
          "type": "uint256"
        }
      ],
      "stateMutability": "view",
      "type": "function"
    },
    {
      "inputs": [
        {
          "internalType": "uint256",
          "name": "_reportId",
          "type": "uint256"
        }
      ],
      "name": "getWasteReport",
      "outputs": [
        {
          "internalType": "address",
          "name": "reporter",
          "type": "address"
        },
        {
          "internalType": "string",
          "name": "ipfsHash",
          "type": "string"
        },
        {
          "internalType": "uint256",
          "name": "quantity",
          "type": "uint256"
        },
        {
          "internalType": "string",
          "name": "wasteType",
          "type": "string"
        },
        {
          "internalType": "bool",
          "name": "isCollected",
          "type": "bool"
        },
        {
          "internalType": "address",
          "name": "collectedBy",
          "type": "address"
        }
      ],
      "stateMutability": "view",
      "type": "function"
    },
    {
      "inputs": [],
      "name": "owner",
      "outputs": [
        {
          "internalType": "address",
          "name": "",
          "type": "address"
        }
      ],
      "stateMutability": "view",
      "type": "function"
    },
    {
      "inputs": [],
      "name": "purchasePoints",
      "outputs": [],
      "stateMutability": "payable",
      "type": "function"
    },
    {
      "inputs": [],
      "name": "registerAgent",
      "outputs": [],
      "stateMutability": "nonpayable",
      "type": "function"
    },
    {
      "inputs": [
        {
          "internalType": "string",
          "name": "_username",
          "type": "string"
        },
        {
          "internalType": "string",
          "name": "_email",
          "type": "string"
        }
      ],
      "name": "registerUser",
      "outputs": [],
      "stateMutability": "nonpayable",
      "type": "function"
    },
    {
      "inputs": [],
      "name": "renounceOwnership",
      "outputs": [],
      "stateMutability": "nonpayable",
      "type": "function"
    },
    {
      "inputs": [],
      "name": "reportCounter",
      "outputs": [
        {
          "internalType": "uint256",
          "name": "",
          "type": "uint256"
        }
      ],
      "stateMutability": "view",
      "type": "function"
    },
    {
      "inputs": [
        {
          "internalType": "string",
          "name": "_ipfsHash",
          "type": "string"
        },
        {
          "internalType": "uint256",
          "name": "_quantity",
          "type": "uint256"
        },
        {
          "internalType": "string",
          "name": "_wasteType",
          "type": "string"
        }
      ],
      "name": "reportWaste",
      "outputs": [],
      "stateMutability": "nonpayable",
      "type": "function"
    },
    {
      "inputs": [
        {
          "internalType": "address",
          "name": "newOwner",
          "type": "address"
        }
      ],
      "name": "transferOwnership",
      "outputs": [],
      "stateMutability": "nonpayable",
      "type": "function"
    },
    {
      "inputs": [
        {
          "internalType": "string",
          "name": "",
          "type": "string"
        }
      ],
      "name": "usedQRCodes",
      "outputs": [
        {
          "internalType": "bool",
          "name": "",
          "type": "bool"
        }
      ],
      "stateMutability": "view",
      "type": "function"
    },
    {
      "inputs": [
        {
          "internalType": "address",
          "name": "",
          "type": "address"
        }
      ],
      "name": "users",
      "outputs": [
        {
          "internalType": "string",
          "name": "username",
          "type": "string"
        },
        {
          "internalType": "string",
          "name": "email",
          "type": "string"
        },
        {
          "internalType": "bool",
          "name": "isRegistered",
          "type": "bool"
        },
        {
          "internalType": "uint256",
          "name": "totalWasteReported",
          "type": "uint256"
        },
        {
          "internalType": "uint256",
          "name": "totalTokensEarned",
          "type": "uint256"
        }
      ],
      "stateMutability": "view",
      "type": "function"
    },
    {
      "inputs": [
        {
          "internalType": "uint256",
          "name": "",
          "type": "uint256"
        }
      ],
      "name": "wasteReports",
      "outputs": [
        {
          "internalType": "uint256",
          "name": "reportId",
          "type": "uint256"
        },
        {
          "internalType": "address",
          "name": "reporter",
          "type": "address"
        },
        {
          "internalType": "string",
          "name": "ipfsHash",
          "type": "string"
        },
        {
          "internalType": "uint256",
          "name": "quantity",
          "type": "uint256"
        },
        {
          "internalType": "string",
          "name": "wasteType",
          "type": "string"
        },
        {
          "internalType": "uint256",
          "name": "timestamp",
          "type": "uint256"
        },
        {
          "internalType": "bool",
          "name": "isCollected",
          "type": "bool"
        },
        {
          "internalType": "address",
          "name": "collectedBy",
          "type": "address"
        },
        {
          "internalType": "uint256",
          "name": "tokenReward",
          "type": "uint256"
        }
      ],
      "stateMutability": "view",
      "type": "function"
    },
    {
      "inputs": [],
      "name": "wasteVanToken",
      "outputs": [
        {
          "internalType": "contract WasteVanToken",
          "name": "",
          "type": "address"
        }
      ],
      "stateMutability": "view",
      "type": "function"
    },
    {
      "inputs": [],
      "name": "withdraw",
      "outputs": [],
      "stateMutability": "nonpayable",
      "type": "function"
    }
  ],
  "bytecode": "0x608060405234801561001057600080fd5b50604051612d10380380612d10833981810160405281019061003291906101cb565b61004e61004361009c60201b60201c565b6100a460201b60201c565b6001808190555080600260006101000a81548173ffffffffffffffffffffffffffffffffffffffff021916908373ffffffffffffffffffffffffffffffffffffffff160217905550506101f8565b600033905090565b60008060009054906101000a900473ffffffffffffffffffffffffffffffffffffffff169050816000806101000a81548173ffffffffffffffffffffffffffffffffffffffff021916908373ffffffffffffffffffffffffffffffffffffffff1602179055508173ffffffffffffffffffffffffffffffffffffffff168173ffffffffffffffffffffffffffffffffffffffff167f8be0079c531659141344cd1fd0a4f28419497f9722a3daafe3b4186f6b6457e060405160405180910390a35050565b600080fd5b600073ffffffffffffffffffffffffffffffffffffffff82169050919050565b60006101988261016d565b9050919050565b6101a88161018d565b81146101b357600080fd5b50565b6000815190506101c58161019f565b92915050565b6000602082840312156101e1576101e0610168565b5b60006101ef848285016101b6565b91505092915050565b612b09806102076000396000f3fe60806040526004361061011f5760003560e01c8063a87430ba116100a0578063d763bf7b11610064578063d763bf7b146103b3578063db1b2c9a146103f5578063de9f9ee41461041e578063f2fde38b14610449578063fd66091e146104725761011f565b8063a87430ba146102b3578063b4885dae146102f4578063b5695b381461031f578063b9bc38f21461035f578063c5df28821461038a5761011f565b80634e43603a116100e75780634e43603a146101ca578063518dab3c14610209578063715018a614610246578063898a97b91461025d5780638da5cb5b146102885761011f565b80630cdd8982146101245780631d2e4afd1461016957806335eb5208146101925780633ccfd60b146101a95780634c8b9738146101c0575b600080fd5b34801561013057600080fd5b5061014b60048036038101906101469190611bef565b6104b2565b60405161016099989796959493929190611d17565b60405180910390f35b34801561017557600080fd5b50610190600480360381019061018b9190611ee7565b61065d565b005b34801561019e57600080fd5b506101a761080f565b005b3480156101b557600080fd5b506101be61098b565b005b6101c86109e3565b005b3480156101d657600080fd5b506101f160048036038101906101ec9190611f8b565b610b34565b60405161020093929190611fb8565b60405180910390f35b34801561021557600080fd5b50610230600480360381019061022b9190611ff6565b610cf7565b60405161023d919061203f565b60405180910390f35b34801561025257600080fd5b5061025b610d2d565b005b34801561026957600080fd5b50610272610d41565b60405161027f919061205a565b60405180910390f35b34801561029457600080fd5b5061029d610d46565b6040516102aa9190612075565b60405180910390f35b3480156102bf57600080fd5b506102da60048036038101906102d59190611f8b565b610d6f565b6040516102eb959493929190612090565b60405180910390f35b34801561030057600080fd5b50610309610ec2565b6040516103169190612150565b60405180910390f35b34801561032b57600080fd5b5061034660048036038101906103419190611f8b565b610ee8565b604051610356949392919061216b565b60405180910390f35b34801561036b57600080fd5b50610374610f99565b604051610381919061205a565b60405180910390f35b34801561039657600080fd5b506103b160048036038101906103ac9190611bef565b610f9f565b005b3480156103bf57600080fd5b506103da60048036038101906103d59190611bef565b611432565b6040516103ec969594939291906121b0565b60405180910390f35b34801561040157600080fd5b5061041c6004803603810190610417919061221f565b6116a7565b005b34801561042a57600080fd5b50610433611996565b604051610440919061205a565b60405180910390f35b34801561045557600080fd5b50610470600480360381019061046b9190611f8b565b61199b565b005b34801561047e57600080fd5b5061049960048036038101906104949190611f8b565b611a1e565b6040516104a9949392919061216b565b60405180910390f35b60056020528060005260406000206000915090508060000154908060010160009054906101000a900473ffffffffffffffffffffffffffffffffffffffff1690806002018054610501906122d9565b80601f016020809104026020016040519081016040528092919081815260200182805461052d906122d9565b801561057a5780601f1061054f5761010080835404028352916020019161057a565b820191906000526020600020905b81548152906001019060200180831161055d57829003601f168201915b505050505090806003015490806004018054610595906122d9565b80601f01602080910402602001604051908101604052809291908181526020018280546105c1906122d9565b801561060e5780601f106105e35761010080835404028352916020019161060e565b820191906000526020600020905b8154815290600101906020018083116105f157829003601f168201915b5050505050908060050154908060060160009054906101000a900460ff16908060060160019054906101000a900473ffffffffffffffffffffffffffffffffffffffff16908060070154905089565b600360003373ffffffffffffffffffffffffffffffffffffffff1673ffffffffffffffffffffffffffffffffffffffff16815260200190815260200160002060020160009054906101000a900460ff16156106ed576040517f08c379a00000000000000000000000000000000000000000000000000000000081526004016106e490612356565b60405180910390fd5b6040518060a00160405280838152602001828152602001600115158152602001600081526020016000815250600360003373ffffffffffffffffffffffffffffffffffffffff1673ffffffffffffffffffffffffffffffffffffffff168152602001908152602001600020600082015181600001908161076d9190612518565b5060208201518160010190816107839190612518565b5060408201518160020160006101000a81548160ff02191690831515021790555060608201518160030155608082015181600401559050503373ffffffffffffffffffffffffffffffffffffffff167f92822564bab8864c3a47b34e8d23fbce5c46234eb5da261f94087b995ac0f33b83836040516108039291906125ea565b60405180910390a25050565b600460003373ffffffffffffffffffffffffffffffffffffffff1673ffffffffffffffffffffffffffffffffffffffff16815260200190815260200160002060000160009054906101000a900460ff161561089f576040517f08c379a00000000000000000000000000000000000000000000000000000000081526004016108969061266d565b60405180910390fd5b604051806080016040528060011515815260200160008152602001600081526020016000815250600460003373ffffffffffffffffffffffffffffffffffffffff1673ffffffffffffffffffffffffffffffffffffffff16815260200190815260200160002060008201518160000160006101000a81548160ff0219169083151502179055506020820151816001015560408201518160020155606082015181600301559050503373ffffffffffffffffffffffffffffffffffffffff167f82d0829d9d481e4cb9913897f9b9c903271c4db68c7b3324071d2a7e3b2c5ff060405160405180910390a2565b610993611a5b565b61099b610d46565b73ffffffffffffffffffffffffffffffffffffffff166108fc479081150290604051600060405180830381858888f193505050501580156109e0573d6000803e3d6000fd5b50565b600460003373ffffffffffffffffffffffffffffffffffffffff1673ffffffffffffffffffffffffffffffffffffffff16815260200190815260200160002060000160009054906101000a900460ff16610a72576040517f08c379a0000000000000000000000000000000000000000000000000000000008152600401610a69906126d9565b60405180910390fd5b6000670de0b6b3a764000034610a889190612757565b905080600460003373ffffffffffffffffffffffffffffffffffffffff1673ffffffffffffffffffffffffffffffffffffffff1681526020019081526020016000206001016000828254610adc9190612788565b925050819055503373ffffffffffffffffffffffffffffffffffffffff167f4188bb0074eb5be3d6b8089e8faaa457e592aab04dd8d5fc19d7358791c4eee482604051610b29919061205a565b60405180910390a250565b60606000806000600360008673ffffffffffffffffffffffffffffffffffffffff1673ffffffffffffffffffffffffffffffffffffffff1681526020019081526020016000206040518060a0016040529081600082018054610b95906122d9565b80601f0160208091040260200160405190810160405280929190818152602001828054610bc1906122d9565b8015610c0e5780601f10610be357610100808354040283529160200191610c0e565b820191906000526020600020905b815481529060010190602001808311610bf157829003601f168201915b50505050508152602001600182018054610c27906122d9565b80601f0160208091040260200160405190810160405280929190818152602001828054610c53906122d9565b8015610ca05780601f10610c7557610100808354040283529160200191610ca0565b820191906000526020600020905b815481529060010190602001808311610c8357829003601f168201915b505050505081526020016002820160009054906101000a900460ff16151515158152602001600382015481526020016004820154815250509050806000015181606001518260800151935093509350509193909250565b6006818051602081018201805184825260208301602085012081835280955050505050506000915054906101000a900460ff1681565b610d35611a5b565b610d3f6000611ad9565b565b600181565b60008060009054906101000a900473ffffffffffffffffffffffffffffffffffffffff16905090565b6003602052806000526040600020600091509050806000018054610d92906122d9565b80601f0160208091040260200160405190810160405280929190818152602001828054610dbe906122d9565b8015610e0b5780601f10610de057610100808354040283529160200191610e0b565b820191906000526020600020905b815481529060010190602001808311610dee57829003601f168201915b505050505090806001018054610e20906122d9565b80601f0160208091040260200160405190810160405280929190818152602001828054610e4c906122d9565b8015610e995780601f10610e6e57610100808354040283529160200191610e99565b820191906000526020600020905b815481529060010190602001808311610e7c57829003601f168201915b5050505050908060020160009054906101000a900460ff16908060030154908060040154905085565b600260009054906101000a900473ffffffffffffffffffffffffffffffffffffffff1681565b6000806000806000600460008773ffffffffffffffffffffffffffffffffffffffff1673ffffffffffffffffffffffffffffffffffffffff1681526020019081526020016000206040518060800160405290816000820160009054906101000a900460ff161515151581526020016001820154815260200160028201548152602001600382015481525050905080600001518160200151826040015183606001519450945094509450509193509193565b60075481565b600460003373ffffffffffffffffffffffffffffffffffffffff1673ffffffffffffffffffffffffffffffffffffffff16815260200190815260200160002060000160009054906101000a900460ff1661102e576040517f08c379a0000000000000000000000000000000000000000000000000000000008152600401611025906126d9565b60405180910390fd5b60006005600083815260200190815260200160002090508060060160009054906101000a900460ff1615611097576040517f08c379a000000000000000000000000000000000000000000000000000000000815260040161108e90612808565b60405180910390fd5b600073ffffffffffffffffffffffffffffffffffffffff168160010160009054906101000a900473ffffffffffffffffffffffffffffffffffffffff1673ffffffffffffffffffffffffffffffffffffffff160361112a576040517f08c379a000000000000000000000000000000000000000000000000000000000815260040161112190612874565b60405180910390fd5b60018160060160006101000a81548160ff021916908315150217905550338160060160016101000a81548173ffffffffffffffffffffffffffffffffffffffff021916908373ffffffffffffffffffffffffffffffffffffffff160217905550600460003373ffffffffffffffffffffffffffffffffffffffff1673ffffffffffffffffffffffffffffffffffffffff16815260200190815260200160002060020160008154809291906111dd90612894565b91905055506064600460003373ffffffffffffffffffffffffffffffffffffffff1673ffffffffffffffffffffffffffffffffffffffff16815260200190815260200160002060010160008282546112359190612788565b92505081905550600260009054906101000a900473ffffffffffffffffffffffffffffffffffffffff1673ffffffffffffffffffffffffffffffffffffffff166340c10f198260010160009054906101000a900473ffffffffffffffffffffffffffffffffffffffff1683600701546040518363ffffffff1660e01b81526004016112c19291906128dc565b600060405180830381600087803b1580156112db57600080fd5b505af11580156112ef573d6000803e3d6000fd5b505050508060070154600360008360010160009054906101000a900473ffffffffffffffffffffffffffffffffffffffff1673ffffffffffffffffffffffffffffffffffffffff1673ffffffffffffffffffffffffffffffffffffffff168152602001908152602001600020600401600082825461136d9190612788565b925050819055503373ffffffffffffffffffffffffffffffffffffffff16827f38d3917dbc216c1520f644e7bb11d91fd7ab92c81c7da47f42e0e7fa7bbfa24c60405160405180910390a38060010160009054906101000a900473ffffffffffffffffffffffffffffffffffffffff1673ffffffffffffffffffffffffffffffffffffffff167f16b0da2ffcb90c6723317bd637d9aad7f04711f42bbe0ac0918ebe10f1f9001c8260070154604051611426919061205a565b60405180910390a25050565b600060606000606060008060006005600089815260200190815260200160002060405180610120016040529081600082015481526020016001820160009054906101000a900473ffffffffffffffffffffffffffffffffffffffff1673ffffffffffffffffffffffffffffffffffffffff1673ffffffffffffffffffffffffffffffffffffffff1681526020016002820180546114ce906122d9565b80601f01602080910402602001604051908101604052809291908181526020018280546114fa906122d9565b80156115475780601f1061151c57610100808354040283529160200191611547565b820191906000526020600020905b81548152906001019060200180831161152a57829003601f168201915b505050505081526020016003820154815260200160048201805461156a906122d9565b80601f0160208091040260200160405190810160405280929190818152602001828054611596906122d9565b80156115e35780601f106115b8576101008083540402835291602001916115e3565b820191906000526020600020905b8154815290600101906020018083116115c657829003601f168201915b50505050508152602001600582015481526020016006820160009054906101000a900460ff161515151581526020016006820160019054906101000a900473ffffffffffffffffffffffffffffffffffffffff1673ffffffffffffffffffffffffffffffffffffffff1673ffffffffffffffffffffffffffffffffffffffff168152602001600782015481525050905080602001518160400151826060015183608001518460c001518560e001519650965096509650965096505091939550919395565b600360003373ffffffffffffffffffffffffffffffffffffffff1673ffffffffffffffffffffffffffffffffffffffff16815260200190815260200160002060020160009054906101000a900460ff16611736576040517f08c379a000000000000000000000000000000000000000000000000000000000815260040161172d90612951565b60405180910390fd5b6007600081548092919061174990612894565b919050555060405180610120016040528060075481526020013373ffffffffffffffffffffffffffffffffffffffff168152602001848152602001838152602001828152602001428152602001600015158152602001600073ffffffffffffffffffffffffffffffffffffffff1681526020016001846117c99190612971565b8152506005600060075481526020019081526020016000206000820151816000015560208201518160010160006101000a81548173ffffffffffffffffffffffffffffffffffffffff021916908373ffffffffffffffffffffffffffffffffffffffff16021790555060408201518160020190816118479190612518565b506060820151816003015560808201518160040190816118679190612518565b5060a0820151816005015560c08201518160060160006101000a81548160ff02191690831515021790555060e08201518160060160016101000a81548173ffffffffffffffffffffffffffffffffffffffff021916908373ffffffffffffffffffffffffffffffffffffffff160217905550610100820151816007015590505081600360003373ffffffffffffffffffffffffffffffffffffffff1673ffffffffffffffffffffffffffffffffffffffff16815260200190815260200160002060030160008282546119399190612788565b925050819055503373ffffffffffffffffffffffffffffffffffffffff166007547f8380288083f7a53853cdd4ad41fb7f4d17a3ea763b59968823158f363ed7e07c8560405161198991906129b3565b60405180910390a3505050565b606481565b6119a3611a5b565b600073ffffffffffffffffffffffffffffffffffffffff168173ffffffffffffffffffffffffffffffffffffffff1603611a12576040517f08c379a0000000000000000000000000000000000000000000000000000000008152600401611a0990612a47565b60405180910390fd5b611a1b81611ad9565b50565b60046020528060005260406000206000915090508060000160009054906101000a900460ff16908060010154908060020154908060030154905084565b611a63611b9d565b73ffffffffffffffffffffffffffffffffffffffff16611a81610d46565b73ffffffffffffffffffffffffffffffffffffffff1614611ad7576040517f08c379a0000000000000000000000000000000000000000000000000000000008152600401611ace90612ab3565b60405180910390fd5b565b60008060009054906101000a900473ffffffffffffffffffffffffffffffffffffffff169050816000806101000a81548173ffffffffffffffffffffffffffffffffffffffff021916908373ffffffffffffffffffffffffffffffffffffffff1602179055508173ffffffffffffffffffffffffffffffffffffffff168173ffffffffffffffffffffffffffffffffffffffff167f8be0079c531659141344cd1fd0a4f28419497f9722a3daafe3b4186f6b6457e060405160405180910390a35050565b600033905090565b6000604051905090565b600080fd5b600080fd5b6000819050919050565b611bcc81611bb9565b8114611bd757600080fd5b50565b600081359050611be981611bc3565b92915050565b600060208284031215611c0557611c04611baf565b5b6000611c1384828501611bda565b91505092915050565b611c2581611bb9565b82525050565b600073ffffffffffffffffffffffffffffffffffffffff82169050919050565b6000611c5682611c2b565b9050919050565b611c6681611c4b565b82525050565b600081519050919050565b600082825260208201905092915050565b60005b83811015611ca6578082015181840152602081019050611c8b565b60008484015250505050565b6000601f19601f8301169050919050565b6000611cce82611c6c565b611cd88185611c77565b9350611ce8818560208601611c88565b611cf181611cb2565b840191505092915050565b60008115159050919050565b611d1181611cfc565b82525050565b600061012082019050611d2d600083018c611c1c565b611d3a602083018b611c5d565b8181036040830152611d4c818a611cc3565b9050611d5b6060830189611c1c565b8181036080830152611d6d8188611cc3565b9050611d7c60a0830187611c1c565b611d8960c0830186611d08565b611d9660e0830185611c5d565b611da4610100830184611c1c565b9a9950505050505050505050565b600080fd5b600080fd5b7f4e487b7100000000000000000000000000000000000000000000000000000000600052604160045260246000fd5b611df482611cb2565b810181811067ffffffffffffffff82111715611e1357611e12611dbc565b5b80604052505050565b6000611e26611ba5565b9050611e328282611deb565b919050565b600067ffffffffffffffff821115611e5257611e51611dbc565b5b611e5b82611cb2565b9050602081019050919050565b82818337600083830152505050565b6000611e8a611e8584611e37565b611e1c565b905082815260208101848484011115611ea657611ea5611db7565b5b611eb1848285611e68565b509392505050565b600082601f830112611ece57611ecd611db2565b5b8135611ede848260208601611e77565b91505092915050565b60008060408385031215611efe57611efd611baf565b5b600083013567ffffffffffffffff811115611f1c57611f1b611bb4565b5b611f2885828601611eb9565b925050602083013567ffffffffffffffff811115611f4957611f48611bb4565b5b611f5585828601611eb9565b9150509250929050565b611f6881611c4b565b8114611f7357600080fd5b50565b600081359050611f8581611f5f565b92915050565b600060208284031215611fa157611fa0611baf565b5b6000611faf84828501611f76565b91505092915050565b60006060820190508181036000830152611fd28186611cc3565b9050611fe16020830185611c1c565b611fee6040830184611c1c565b949350505050565b60006020828403121561200c5761200b611baf565b5b600082013567ffffffffffffffff81111561202a57612029611bb4565b5b61203684828501611eb9565b91505092915050565b60006020820190506120546000830184611d08565b92915050565b600060208201905061206f6000830184611c1c565b92915050565b600060208201905061208a6000830184611c5d565b92915050565b600060a08201905081810360008301526120aa8188611cc3565b905081810360208301526120be8187611cc3565b90506120cd6040830186611d08565b6120da6060830185611c1c565b6120e76080830184611c1c565b9695505050505050565b6000819050919050565b600061211661211161210c84611c2b565b6120f1565b611c2b565b9050919050565b6000612128826120fb565b9050919050565b600061213a8261211d565b9050919050565b61214a8161212f565b82525050565b60006020820190506121656000830184612141565b92915050565b60006080820190506121806000830187611d08565b61218d6020830186611c1c565b61219a6040830185611c1c565b6121a76060830184611c1c565b95945050505050565b600060c0820190506121c56000830189611c5d565b81810360208301526121d78188611cc3565b90506121e66040830187611c1c565b81810360608301526121f88186611cc3565b90506122076080830185611d08565b61221460a0830184611c5d565b979650505050505050565b60008060006060848603121561223857612237611baf565b5b600084013567ffffffffffffffff81111561225657612255611bb4565b5b61226286828701611eb9565b935050602061227386828701611bda565b925050604084013567ffffffffffffffff81111561229457612293611bb4565b5b6122a086828701611eb9565b9150509250925092565b7f4e487b7100000000000000000000000000000000000000000000000000000000600052602260045260246000fd5b600060028204905060018216806122f157607f821691505b602082108103612304576123036122aa565b5b50919050565b7f5573657220616c72656164792072656769737465726564000000000000000000600082015250565b6000612340601783611c77565b915061234b8261230a565b602082019050919050565b6000602082019050818103600083015261236f81612333565b9050919050565b60008190508160005260206000209050919050565b60006020601f8301049050919050565b600082821b905092915050565b6000600883026123d87fffffffffffffffffffffffffffffffffffffffffffffffffffffffffffffffff8261239b565b6123e2868361239b565b95508019841693508086168417925050509392505050565b600061241561241061240b84611bb9565b6120f1565b611bb9565b9050919050565b6000819050919050565b61242f836123fa565b61244361243b8261241c565b8484546123a8565b825550505050565b600090565b61245861244b565b612463818484612426565b505050565b5b818110156124875761247c600082612450565b600181019050612469565b5050565b601f8211156124cc5761249d81612376565b6124a68461238b565b810160208510156124b5578190505b6124c96124c18561238b565b830182612468565b50505b505050565b600082821c905092915050565b60006124ef600019846008026124d1565b1980831691505092915050565b600061250883836124de565b9150826002028217905092915050565b61252182611c6c565b67ffffffffffffffff81111561253a57612539611dbc565b5b61254482546122d9565b61254f82828561248b565b600060209050601f8311600181146125825760008415612570578287015190505b61257a85826124fc565b8655506125e2565b601f19841661259086612376565b60005b828110156125b857848901518255600182019150602085019450602081019050612593565b868310156125d557848901516125d1601f8916826124de565b8355505b6001600288020188555050505b505050505050565b600060408201905081810360008301526126048185611cc3565b905081810360208301526126188184611cc3565b90509392505050565b7f4167656e7420616c726561647920726567697374657265640000000000000000600082015250565b6000612657601883611c77565b915061266282612621565b602082019050919050565b600060208201905081810360008301526126868161264a565b9050919050565b7f4e6f742061207665726966696564206167656e74000000000000000000000000600082015250565b60006126c3601483611c77565b91506126ce8261268d565b602082019050919050565b600060208201905081810360008301526126f2816126b6565b9050919050565b7f4e487b7100000000000000000000000000000000000000000000000000000000600052601260045260246000fd5b7f4e487b7100000000000000000000000000000000000000000000000000000000600052601160045260246000fd5b600061276282611bb9565b915061276d83611bb9565b92508261277d5761277c6126f9565b5b828204905092915050565b600061279382611bb9565b915061279e83611bb9565b92508282019050808211156127b6576127b5612728565b5b92915050565b7f576173746520616c726561647920636f6c6c6563746564000000000000000000600082015250565b60006127f2601783611c77565b91506127fd826127bc565b602082019050919050565b60006020820190508181036000830152612821816127e5565b9050919050565b7f496e76616c6964207265706f7274000000000000000000000000000000000000600082015250565b600061285e600e83611c77565b915061286982612828565b602082019050919050565b6000602082019050818103600083015261288d81612851565b9050919050565b600061289f82611bb9565b91507fffffffffffffffffffffffffffffffffffffffffffffffffffffffffffffffff82036128d1576128d0612728565b5b600182019050919050565b60006040820190506128f16000830185611c5d565b6128fe6020830184611c1c565b9392505050565b7f55736572206e6f74207265676973746572656400000000000000000000000000600082015250565b600061293b601383611c77565b915061294682612905565b602082019050919050565b6000602082019050818103600083015261296a8161292e565b9050919050565b600061297c82611bb9565b915061298783611bb9565b925082820261299581611bb9565b915082820484148315176129ac576129ab612728565b5b5092915050565b600060208201905081810360008301526129cd8184611cc3565b905092915050565b7f4f776e61626c653a206e6577206f776e657220697320746865207a65726f206160008201527f6464726573730000000000000000000000000000000000000000000000000000602082015250565b6000612a31602683611c77565b9150612a3c826129d5565b604082019050919050565b60006020820190508181036000830152612a6081612a24565b9050919050565b7f4f776e61626c653a2063616c6c6572206973206e6f7420746865206f776e6572600082015250565b6000612a9d602083611c77565b9150612aa882612a67565b602082019050919050565b60006020820190508181036000830152612acc81612a90565b905091905056fea264697066735822122042a917a9ae4fa8d92b59aee5e1b92e02706757c6651697627437e76974fd304464736f6c634300081c0033",
  "linkReferences": {},
  "deployedLinkReferences": {}
}