{
  "_format": "hh-sol-artifact-1",
  "contractName": "WasteVanToken",
  "sourceName": "contracts/WasteVanToken.sol",
  "abi": [
    {
      "inputs": [],
      "stateMutability": "nonpayable",
      "type": "constructor"
    },
    {
      "anonymous": false,
      "inputs": [
        {
          "indexed": true,
          "internalType": "address",
          "name": "owner",
          "type": "address"
        },
        {
          "indexed": true,
          "internalType": "address",
          "name": "spender",
          "type": "address"
        },
        {
          "indexed": false,
          "internalType": "uint256",
          "name": "value",
          "type": "uint256"
        }
      ],
      "name": "Approval",
      "type": "event"
    },
    {
      "anonymous": false,
      "inputs": [
        {
          "indexed": true,
          "internalType": "address",
          "name": "minter",
          "type": "address"
        }
      ],
      "name": "MinterAdded",
      "type": "event"
    },
    {
      "anonymous": false,
      "inputs": [
        {
          "indexed": true,
          "internalType": "address",
          "name": "minter",
          "type": "address"
        }
      ],
      "name": "MinterRemoved",
      "type": "event"
    },
    {
      "anonymous": false,
      "inputs": [
        {
          "indexed": true,
          "internalType": "address",
          "name": "previousOwner",
          "type": "address"
        },
        {
          "indexed": true,
          "internalType": "address",
          "name": "newOwner",
          "type": "address"
        }
      ],
      "name": "OwnershipTransferred",
      "type": "event"
    },
    {
      "anonymous": false,
      "inputs": [
        {
          "indexed": true,
          "internalType": "address",
          "name": "from",
          "type": "address"
        },
        {
          "indexed": true,
          "internalType": "address",
          "name": "to",
          "type": "address"
        },
        {
          "indexed": false,
          "internalType": "uint256",
          "name": "value",
          "type": "uint256"
        }
      ],
      "name": "Transfer",
      "type": "event"
    },
    {
      "inputs": [
        {
          "internalType": "address",
          "name": "minter",
          "type": "address"
        }
      ],
      "name": "addMinter",
      "outputs": [],
      "stateMutability": "nonpayable",
      "type": "function"
    },
    {
      "inputs": [
        {
          "internalType": "address",
          "name": "owner",
          "type": "address"
        },
        {
          "internalType": "address",
          "name": "spender",
          "type": "address"
        }
      ],
      "name": "allowance",
      "outputs": [
        {
          "internalType": "uint256",
          "name": "",
          "type": "uint256"
        }
      ],
      "stateMutability": "view",
      "type": "function"
    },
    {
      "inputs": [
        {
          "internalType": "address",
          "name": "spender",
          "type": "address"
        },
        {
          "internalType": "uint256",
          "name": "amount",
          "type": "uint256"
        }
      ],
      "name": "approve",
      "outputs": [
        {
          "internalType": "bool",
          "name": "",
          "type": "bool"
        }
      ],
      "stateMutability": "nonpayable",
      "type": "function"
    },
    {
      "inputs": [
        {
          "internalType": "address",
          "name": "account",
          "type": "address"
        }
      ],
      "name": "balanceOf",
      "outputs": [
        {
          "internalType": "uint256",
          "name": "",
          "type": "uint256"
        }
      ],
      "stateMutability": "view",
      "type": "function"
    },
    {
      "inputs": [
        {
          "internalType": "uint256",
          "name": "amount",
          "type": "uint256"
        }
      ],
      "name": "burn",
      "outputs": [],
      "stateMutability": "nonpayable",
      "type": "function"
    },
    {
      "inputs": [],
      "name": "decimals",
      "outputs": [
        {
          "internalType": "uint8",
          "name": "",
          "type": "uint8"
        }
      ],
      "stateMutability": "view",
      "type": "function"
    },
    {
      "inputs": [
        {
          "internalType": "address",
          "name": "spender",
          "type": "address"
        },
        {
          "internalType": "uint256",
          "name": "subtractedValue",
          "type": "uint256"
        }
      ],
      "name": "decreaseAllowance",
      "outputs": [
        {
          "internalType": "bool",
          "name": "",
          "type": "bool"
        }
      ],
      "stateMutability": "nonpayable",
      "type": "function"
    },
    {
      "inputs": [
        {
          "internalType": "address",
          "name": "spender",
          "type": "address"
        },
        {
          "internalType": "uint256",
          "name": "addedValue",
          "type": "uint256"
        }
      ],
      "name": "increaseAllowance",
      "outputs": [
        {
          "internalType": "bool",
          "name": "",
          "type": "bool"
        }
      ],
      "stateMutability": "nonpayable",
      "type": "function"
    },
    {
      "inputs": [
        {
          "internalType": "address",
          "name": "to",
          "type": "address"
        },
        {
          "internalType": "uint256",
          "name": "amount",
          "type": "uint256"
        }
      ],
      "name": "mint",
      "outputs": [],
      "stateMutability": "nonpayable",
      "type": "function"
    },
    {
      "inputs": [
        {
          "internalType": "address",
          "name": "",
          "type": "address"
        }
      ],
      "name": "minters",
      "outputs": [
        {
          "internalType": "bool",
          "name": "",
          "type": "bool"
        }
      ],
      "stateMutability": "view",
      "type": "function"
    },
    {
      "inputs": [],
      "name": "name",
      "outputs": [
        {
          "internalType": "string",
          "name": "",
          "type": "string"
        }
      ],
      "stateMutability": "view",
      "type": "function"
    },
    {
      "inputs": [],
      "name": "owner",
      "outputs": [
        {
          "internalType": "address",
          "name": "",
          "type": "address"
        }
      ],
      "stateMutability": "view",
      "type": "function"
    },
    {
      "inputs": [
        {
          "internalType": "address",
          "name": "minter",
          "type": "address"
        }
      ],
      "name": "removeMinter",
      "outputs": [],
      "stateMutability": "nonpayable",
      "type": "function"
    },
    {
      "inputs": [],
      "name": "renounceOwnership",
      "outputs": [],
      "stateMutability": "nonpayable",
      "type": "function"
    },
    {
      "inputs": [],
      "name": "symbol",
      "outputs": [
        {
          "internalType": "string",
          "name": "",
          "type": "string"
        }
      ],
      "stateMutability": "view",
      "type": "function"
    },
    {
      "inputs": [],
      "name": "totalSupply",
      "outputs": [
        {
          "internalType": "uint256",
          "name": "",
          "type": "uint256"
        }
      ],
      "stateMutability": "view",
      "type": "function"
    },
    {
      "inputs": [
        {
          "internalType": "address",
          "name": "to",
          "type": "address"
        },
        {
          "internalType": "uint256",
          "name": "amount",
          "type": "uint256"
        }
      ],
      "name": "transfer",
      "outputs": [
        {
          "internalType": "bool",
          "name": "",
          "type": "bool"
        }
      ],
      "stateMutability": "nonpayable",
      "type": "function"
    },
    {
      "inputs": [
        {
          "internalType": "address",
          "name": "from",
          "type": "address"
        },
        {
          "internalType": "address",
          "name": "to",
          "type": "address"
        },
        {
          "internalType": "uint256",
          "name": "amount",
          "type": "uint256"
        }
      ],
      "name": "transferFrom",
      "outputs": [
        {
          "internalType": "bool",
          "name": "",
          "type": "bool"
        }
      ],
      "stateMutability": "nonpayable",
      "type": "function"
    },
    {
      "inputs": [
        {
          "internalType": "address",
          "name": "newOwner",
          "type": "address"
        }
      ],
      "name": "transferOwnership",
      "outputs": [],
      "stateMutability": "nonpayable",
      "type": "function"
    }
  ],
  "bytecode": "0x608060405234801561001057600080fd5b506040518060400160405280600e81526020017f576173746556616e20546f6b656e0000000000000000000000000000000000008152506040518060400160405280600381526020017f5756540000000000000000000000000000000000000000000000000000000000815250816003908161008c919061058a565b50806004908161009c919061058a565b5050506100bb6100b06100f760201b60201c565b6100ff60201b60201c565b6100f2336100cd6101c560201b60201c565b600a6100d991906107cb565b620f42406100e79190610816565b6101ce60201b60201c565b610933565b600033905090565b6000600560009054906101000a900473ffffffffffffffffffffffffffffffffffffffff16905081600560006101000a81548173ffffffffffffffffffffffffffffffffffffffff021916908373ffffffffffffffffffffffffffffffffffffffff1602179055508173ffffffffffffffffffffffffffffffffffffffff168173ffffffffffffffffffffffffffffffffffffffff167f8be0079c531659141344cd1fd0a4f28419497f9722a3daafe3b4186f6b6457e060405160405180910390a35050565b60006012905090565b600073ffffffffffffffffffffffffffffffffffffffff168273ffffffffffffffffffffffffffffffffffffffff160361023d576040517f08c379a0000000000000000000000000000000000000000000000000000000008152600401610234906108b5565b60405180910390fd5b61024f6000838361033060201b60201c565b806002600082825461026191906108d5565b92505081905550806000808473ffffffffffffffffffffffffffffffffffffffff1673ffffffffffffffffffffffffffffffffffffffff168152602001908152602001600020600082825401925050819055508173ffffffffffffffffffffffffffffffffffffffff16600073ffffffffffffffffffffffffffffffffffffffff167fddf252ad1be2c89b69c2b068fc378daa952ba7f163c4a11628f55a4df523b3ef836040516103129190610918565b60405180910390a361032c6000838361033560201b60201c565b5050565b505050565b505050565b600081519050919050565b7f4e487b7100000000000000000000000000000000000000000000000000000000600052604160045260246000fd5b7f4e487b7100000000000000000000000000000000000000000000000000000000600052602260045260246000fd5b600060028204905060018216806103bb57607f821691505b6020821081036103ce576103cd610374565b5b50919050565b60008190508160005260206000209050919050565b60006020601f8301049050919050565b600082821b905092915050565b6000600883026104367fffffffffffffffffffffffffffffffffffffffffffffffffffffffffffffffff826103f9565b61044086836103f9565b95508019841693508086168417925050509392505050565b6000819050919050565b6000819050919050565b600061048761048261047d84610458565b610462565b610458565b9050919050565b6000819050919050565b6104a18361046c565b6104b56104ad8261048e565b848454610406565b825550505050565b600090565b6104ca6104bd565b6104d5818484610498565b505050565b5b818110156104f9576104ee6000826104c2565b6001810190506104db565b5050565b601f82111561053e5761050f816103d4565b610518846103e9565b81016020851015610527578190505b61053b610533856103e9565b8301826104da565b50505b505050565b600082821c905092915050565b600061056160001984600802610543565b1980831691505092915050565b600061057a8383610550565b9150826002028217905092915050565b6105938261033a565b67ffffffffffffffff8111156105ac576105ab610345565b5b6105b682546103a3565b6105c18282856104fd565b600060209050601f8311600181146105f457600084156105e2578287015190505b6105ec858261056e565b865550610654565b601f198416610602866103d4565b60005b8281101561062a57848901518255600182019150602085019450602081019050610605565b868310156106475784890151610643601f891682610550565b8355505b6001600288020188555050505b505050505050565b7f4e487b7100000000000000000000000000000000000000000000000000000000600052601160045260246000fd5b60008160011c9050919050565b6000808291508390505b60018511156106e2578086048111156106be576106bd61065c565b5b60018516156106cd5780820291505b80810290506106db8561068b565b94506106a2565b94509492505050565b6000826106fb57600190506107b7565b8161070957600090506107b7565b816001811461071f576002811461072957610758565b60019150506107b7565b60ff84111561073b5761073a61065c565b5b8360020a9150848211156107525761075161065c565b5b506107b7565b5060208310610133831016604e8410600b841016171561078d5782820a9050838111156107885761078761065c565b5b6107b7565b61079a8484846001610698565b925090508184048111156107b1576107b061065c565b5b81810290505b9392505050565b600060ff82169050919050565b60006107d682610458565b91506107e1836107be565b925061080e7fffffffffffffffffffffffffffffffffffffffffffffffffffffffffffffffff84846106eb565b905092915050565b600061082182610458565b915061082c83610458565b925082820261083a81610458565b915082820484148315176108515761085061065c565b5b5092915050565b600082825260208201905092915050565b7f45524332303a206d696e7420746f20746865207a65726f206164647265737300600082015250565b600061089f601f83610858565b91506108aa82610869565b602082019050919050565b600060208201905081810360008301526108ce81610892565b9050919050565b60006108e082610458565b91506108eb83610458565b92508282019050808211156109035761090261065c565b5b92915050565b61091281610458565b82525050565b600060208201905061092d6000830184610909565b92915050565b611e54806109426000396000f3fe608060405234801561001057600080fd5b50600436106101215760003560e01c806370a08231116100ad578063a457c2d711610071578063a457c2d7146102f6578063a9059cbb14610326578063dd62ed3e14610356578063f2fde38b14610386578063f46eccc4146103a257610121565b806370a0823114610264578063715018a6146102945780638da5cb5b1461029e57806395d89b41146102bc578063983b2d56146102da57610121565b80633092afd5116100f45780633092afd5146101c2578063313ce567146101de57806339509351146101fc57806340c10f191461022c57806342966c681461024857610121565b806306fdde0314610126578063095ea7b31461014457806318160ddd1461017457806323b872dd14610192575b600080fd5b61012e6103d2565b60405161013b91906113e0565b60405180910390f35b61015e6004803603810190610159919061149b565b610464565b60405161016b91906114f6565b60405180910390f35b61017c610487565b6040516101899190611520565b60405180910390f35b6101ac60048036038101906101a7919061153b565b610491565b6040516101b991906114f6565b60405180910390f35b6101dc60048036038101906101d7919061158e565b6104c0565b005b6101e6610566565b6040516101f391906115d7565b60405180910390f35b6102166004803603810190610211919061149b565b61056f565b60405161022391906114f6565b60405180910390f35b6102466004803603810190610241919061149b565b6105a6565b005b610262600480360381019061025d91906115f2565b61067d565b005b61027e6004803603810190610279919061158e565b61068a565b60405161028b9190611520565b60405180910390f35b61029c6106d2565b005b6102a66106e6565b6040516102b3919061162e565b60405180910390f35b6102c4610710565b6040516102d191906113e0565b60405180910390f35b6102f460048036038101906102ef919061158e565b6107a2565b005b610310600480360381019061030b919061149b565b610848565b60405161031d91906114f6565b60405180910390f35b610340600480360381019061033b919061149b565b6108bf565b60405161034d91906114f6565b60405180910390f35b610370600480360381019061036b9190611649565b6108e2565b60405161037d9190611520565b60405180910390f35b6103a0600480360381019061039b919061158e565b610969565b005b6103bc60048036038101906103b7919061158e565b6109ec565b6040516103c991906114f6565b60405180910390f35b6060600380546103e1906116b8565b80601f016020809104026020016040519081016040528092919081815260200182805461040d906116b8565b801561045a5780601f1061042f5761010080835404028352916020019161045a565b820191906000526020600020905b81548152906001019060200180831161043d57829003601f168201915b5050505050905090565b60008061046f610a0c565b905061047c818585610a14565b600191505092915050565b6000600254905090565b60008061049c610a0c565b90506104a9858285610bdd565b6104b4858585610c69565b60019150509392505050565b6104c8610edf565b6000600660008373ffffffffffffffffffffffffffffffffffffffff1673ffffffffffffffffffffffffffffffffffffffff16815260200190815260200160002060006101000a81548160ff0219169083151502179055508073ffffffffffffffffffffffffffffffffffffffff167fe94479a9f7e1952cc78f2d6baab678adc1b772d936c6583def489e524cb6669260405160405180910390a250565b60006012905090565b60008061057a610a0c565b905061059b81858561058c85896108e2565b6105969190611718565b610a14565b600191505092915050565b600660003373ffffffffffffffffffffffffffffffffffffffff1673ffffffffffffffffffffffffffffffffffffffff16815260200190815260200160002060009054906101000a900460ff168061063057506106016106e6565b73ffffffffffffffffffffffffffffffffffffffff163373ffffffffffffffffffffffffffffffffffffffff16145b61066f576040517f08c379a000000000000000000000000000000000000000000000000000000000815260040161066690611798565b60405180910390fd5b6106798282610f5d565b5050565b61068733826110b3565b50565b60008060008373ffffffffffffffffffffffffffffffffffffffff1673ffffffffffffffffffffffffffffffffffffffff168152602001908152602001600020549050919050565b6106da610edf565b6106e46000611280565b565b6000600560009054906101000a900473ffffffffffffffffffffffffffffffffffffffff16905090565b60606004805461071f906116b8565b80601f016020809104026020016040519081016040528092919081815260200182805461074b906116b8565b80156107985780601f1061076d57610100808354040283529160200191610798565b820191906000526020600020905b81548152906001019060200180831161077b57829003601f168201915b5050505050905090565b6107aa610edf565b6001600660008373ffffffffffffffffffffffffffffffffffffffff1673ffffffffffffffffffffffffffffffffffffffff16815260200190815260200160002060006101000a81548160ff0219169083151502179055508073ffffffffffffffffffffffffffffffffffffffff167f6ae172837ea30b801fbfcdd4108aa1d5bf8ff775444fd70256b44e6bf3dfc3f660405160405180910390a250565b600080610853610a0c565b9050600061086182866108e2565b9050838110156108a6576040517f08c379a000000000000000000000000000000000000000000000000000000000815260040161089d9061182a565b60405180910390fd5b6108b38286868403610a14565b60019250505092915050565b6000806108ca610a0c565b90506108d7818585610c69565b600191505092915050565b6000600160008473ffffffffffffffffffffffffffffffffffffffff1673ffffffffffffffffffffffffffffffffffffffff16815260200190815260200160002060008373ffffffffffffffffffffffffffffffffffffffff1673ffffffffffffffffffffffffffffffffffffffff16815260200190815260200160002054905092915050565b610971610edf565b600073ffffffffffffffffffffffffffffffffffffffff168173ffffffffffffffffffffffffffffffffffffffff16036109e0576040517f08c379a00000000000000000000000000000000000000000000000000000000081526004016109d7906118bc565b60405180910390fd5b6109e981611280565b50565b60066020528060005260406000206000915054906101000a900460ff1681565b600033905090565b600073ffffffffffffffffffffffffffffffffffffffff168373ffffffffffffffffffffffffffffffffffffffff1603610a83576040517f08c379a0000000000000000000000000000000000000000000000000000000008152600401610a7a9061194e565b60405180910390fd5b600073ffffffffffffffffffffffffffffffffffffffff168273ffffffffffffffffffffffffffffffffffffffff1603610af2576040517f08c379a0000000000000000000000000000000000000000000000000000000008152600401610ae9906119e0565b60405180910390fd5b80600160008573ffffffffffffffffffffffffffffffffffffffff1673ffffffffffffffffffffffffffffffffffffffff16815260200190815260200160002060008473ffffffffffffffffffffffffffffffffffffffff1673ffffffffffffffffffffffffffffffffffffffff168152602001908152602001600020819055508173ffffffffffffffffffffffffffffffffffffffff168373ffffffffffffffffffffffffffffffffffffffff167f8c5be1e5ebec7d5bd14f71427d1e84f3dd0314c0f7b2291e5b200ac8c7c3b92583604051610bd09190611520565b60405180910390a3505050565b6000610be984846108e2565b90507fffffffffffffffffffffffffffffffffffffffffffffffffffffffffffffffff8114610c635781811015610c55576040517f08c379a0000000000000000000000000000000000000000000000000000000008152600401610c4c90611a4c565b60405180910390fd5b610c628484848403610a14565b5b50505050565b600073ffffffffffffffffffffffffffffffffffffffff168373ffffffffffffffffffffffffffffffffffffffff1603610cd8576040517f08c379a0000000000000000000000000000000000000000000000000000000008152600401610ccf90611ade565b60405180910390fd5b600073ffffffffffffffffffffffffffffffffffffffff168273ffffffffffffffffffffffffffffffffffffffff1603610d47576040517f08c379a0000000000000000000000000000000000000000000000000000000008152600401610d3e90611b70565b60405180910390fd5b610d52838383611346565b60008060008573ffffffffffffffffffffffffffffffffffffffff1673ffffffffffffffffffffffffffffffffffffffff16815260200190815260200160002054905081811015610dd8576040517f08c379a0000000000000000000000000000000000000000000000000000000008152600401610dcf90611c02565b60405180910390fd5b8181036000808673ffffffffffffffffffffffffffffffffffffffff1673ffffffffffffffffffffffffffffffffffffffff16815260200190815260200160002081905550816000808573ffffffffffffffffffffffffffffffffffffffff1673ffffffffffffffffffffffffffffffffffffffff168152602001908152602001600020600082825401925050819055508273ffffffffffffffffffffffffffffffffffffffff168473ffffffffffffffffffffffffffffffffffffffff167fddf252ad1be2c89b69c2b068fc378daa952ba7f163c4a11628f55a4df523b3ef84604051610ec69190611520565b60405180910390a3610ed984848461134b565b50505050565b610ee7610a0c565b73ffffffffffffffffffffffffffffffffffffffff16610f056106e6565b73ffffffffffffffffffffffffffffffffffffffff1614610f5b576040517f08c379a0000000000000000000000000000000000000000000000000000000008152600401610f5290611c6e565b60405180910390fd5b565b600073ffffffffffffffffffffffffffffffffffffffff168273ffffffffffffffffffffffffffffffffffffffff1603610fcc576040517f08c379a0000000000000000000000000000000000000000000000000000000008152600401610fc390611cda565b60405180910390fd5b610fd860008383611346565b8060026000828254610fea9190611718565b92505081905550806000808473ffffffffffffffffffffffffffffffffffffffff1673ffffffffffffffffffffffffffffffffffffffff168152602001908152602001600020600082825401925050819055508173ffffffffffffffffffffffffffffffffffffffff16600073ffffffffffffffffffffffffffffffffffffffff167fddf252ad1be2c89b69c2b068fc378daa952ba7f163c4a11628f55a4df523b3ef8360405161109b9190611520565b60405180910390a36110af6000838361134b565b5050565b600073ffffffffffffffffffffffffffffffffffffffff168273ffffffffffffffffffffffffffffffffffffffff1603611122576040517f08c379a000000000000000000000000000000000000000000000000000000000815260040161111990611d6c565b60405180910390fd5b61112e82600083611346565b60008060008473ffffffffffffffffffffffffffffffffffffffff1673ffffffffffffffffffffffffffffffffffffffff168152602001908152602001600020549050818110156111b4576040517f08c379a00000000000000000000000000000000000000000000000000000000081526004016111ab90611dfe565b60405180910390fd5b8181036000808573ffffffffffffffffffffffffffffffffffffffff1673ffffffffffffffffffffffffffffffffffffffff1681526020019081526020016000208190555081600260008282540392505081905550600073ffffffffffffffffffffffffffffffffffffffff168373ffffffffffffffffffffffffffffffffffffffff167fddf252ad1be2c89b69c2b068fc378daa952ba7f163c4a11628f55a4df523b3ef846040516112679190611520565b60405180910390a361127b8360008461134b565b505050565b6000600560009054906101000a900473ffffffffffffffffffffffffffffffffffffffff16905081600560006101000a81548173ffffffffffffffffffffffffffffffffffffffff021916908373ffffffffffffffffffffffffffffffffffffffff1602179055508173ffffffffffffffffffffffffffffffffffffffff168173ffffffffffffffffffffffffffffffffffffffff167f8be0079c531659141344cd1fd0a4f28419497f9722a3daafe3b4186f6b6457e060405160405180910390a35050565b505050565b505050565b600081519050919050565b600082825260208201905092915050565b60005b8381101561138a57808201518184015260208101905061136f565b60008484015250505050565b6000601f19601f8301169050919050565b60006113b282611350565b6113bc818561135b565b93506113cc81856020860161136c565b6113d581611396565b840191505092915050565b600060208201905081810360008301526113fa81846113a7565b905092915050565b600080fd5b600073ffffffffffffffffffffffffffffffffffffffff82169050919050565b600061143282611407565b9050919050565b61144281611427565b811461144d57600080fd5b50565b60008135905061145f81611439565b92915050565b6000819050919050565b61147881611465565b811461148357600080fd5b50565b6000813590506114958161146f565b92915050565b600080604083850312156114b2576114b1611402565b5b60006114c085828601611450565b92505060206114d185828601611486565b9150509250929050565b60008115159050919050565b6114f0816114db565b82525050565b600060208201905061150b60008301846114e7565b92915050565b61151a81611465565b82525050565b60006020820190506115356000830184611511565b92915050565b60008060006060848603121561155457611553611402565b5b600061156286828701611450565b935050602061157386828701611450565b925050604061158486828701611486565b9150509250925092565b6000602082840312156115a4576115a3611402565b5b60006115b284828501611450565b91505092915050565b600060ff82169050919050565b6115d1816115bb565b82525050565b60006020820190506115ec60008301846115c8565b92915050565b60006020828403121561160857611607611402565b5b600061161684828501611486565b91505092915050565b61162881611427565b82525050565b6000602082019050611643600083018461161f565b92915050565b600080604083850312156116605761165f611402565b5b600061166e85828601611450565b925050602061167f85828601611450565b9150509250929050565b7f4e487b7100000000000000000000000000000000000000000000000000000000600052602260045260246000fd5b600060028204905060018216806116d057607f821691505b6020821081036116e3576116e2611689565b5b50919050565b7f4e487b7100000000000000000000000000000000000000000000000000000000600052601160045260246000fd5b600061172382611465565b915061172e83611465565b9250828201905080821115611746576117456116e9565b5b92915050565b7f4e6f7420617574686f72697a656420746f206d696e7400000000000000000000600082015250565b600061178260168361135b565b915061178d8261174c565b602082019050919050565b600060208201905081810360008301526117b181611775565b9050919050565b7f45524332303a2064656372656173656420616c6c6f77616e63652062656c6f7760008201527f207a65726f000000000000000000000000000000000000000000000000000000602082015250565b600061181460258361135b565b915061181f826117b8565b604082019050919050565b6000602082019050818103600083015261184381611807565b9050919050565b7f4f776e61626c653a206e6577206f776e657220697320746865207a65726f206160008201527f6464726573730000000000000000000000000000000000000000000000000000602082015250565b60006118a660268361135b565b91506118b18261184a565b604082019050919050565b600060208201905081810360008301526118d581611899565b9050919050565b7f45524332303a20617070726f76652066726f6d20746865207a65726f2061646460008201527f7265737300000000000000000000000000000000000000000000000000000000602082015250565b600061193860248361135b565b9150611943826118dc565b604082019050919050565b600060208201905081810360008301526119678161192b565b9050919050565b7f45524332303a20617070726f766520746f20746865207a65726f20616464726560008201527f7373000000000000000000000000000000000000000000000000000000000000602082015250565b60006119ca60228361135b565b91506119d58261196e565b604082019050919050565b600060208201905081810360008301526119f9816119bd565b9050919050565b7f45524332303a20696e73756666696369656e7420616c6c6f77616e6365000000600082015250565b6000611a36601d8361135b565b9150611a4182611a00565b602082019050919050565b60006020820190508181036000830152611a6581611a29565b9050919050565b7f45524332303a207472616e736665722066726f6d20746865207a65726f20616460008201527f6472657373000000000000000000000000000000000000000000000000000000602082015250565b6000611ac860258361135b565b9150611ad382611a6c565b604082019050919050565b60006020820190508181036000830152611af781611abb565b9050919050565b7f45524332303a207472616e7366657220746f20746865207a65726f206164647260008201527f6573730000000000000000000000000000000000000000000000000000000000602082015250565b6000611b5a60238361135b565b9150611b6582611afe565b604082019050919050565b60006020820190508181036000830152611b8981611b4d565b9050919050565b7f45524332303a207472616e7366657220616d6f756e742065786365656473206260008201527f616c616e63650000000000000000000000000000000000000000000000000000602082015250565b6000611bec60268361135b565b9150611bf782611b90565b604082019050919050565b60006020820190508181036000830152611c1b81611bdf565b9050919050565b7f4f776e61626c653a2063616c6c6572206973206e6f7420746865206f776e6572600082015250565b6000611c5860208361135b565b9150611c6382611c22565b602082019050919050565b60006020820190508181036000830152611c8781611c4b565b9050919050565b7f45524332303a206d696e7420746f20746865207a65726f206164647265737300600082015250565b6000611cc4601f8361135b565b9150611ccf82611c8e565b602082019050919050565b60006020820190508181036000830152611cf381611cb7565b9050919050565b7f45524332303a206275726e2066726f6d20746865207a65726f2061646472657360008201527f7300000000000000000000000000000000000000000000000000000000000000602082015250565b6000611d5660218361135b565b9150611d6182611cfa565b604082019050919050565b60006020820190508181036000830152611d8581611d49565b9050919050565b7f45524332303a206275726e20616d6f756e7420657863656564732062616c616e60008201527f6365000000000000000000000000000000000000000000000000000000000000602082015250565b6000611de860228361135b565b9150611df382611d8c565b604082019050919050565b60006020820190508181036000830152611e1781611ddb565b905091905056fea2646970667358221220a28ba36843dd60abb8800c04aca8cd9a2e2e9a28dbc434cdf211acdb9b97a92d64736f6c634300081c0033",
  "linkReferences": {},
  "deployedLinkReferences": {}
}